{
	"contracts/game.sol": {
		"GameContract": {
			"abi": [
				{
					"inputs": [
						{
							"internalType": "contract ERC20",
							"name": "_token",
							"type": "address"
						},
						{
							"internalType": "contract Vault",
							"name": "_vault",
							"type": "address"
						},
						{
							"internalType": "uint256",
							"name": "_dungeonEntryFee",
							"type": "uint256"
						}
					],
					"stateMutability": "nonpayable",
					"type": "constructor"
				},
				{
					"inputs": [
						{
							"internalType": "uint256",
							"name": "_dungeonId",
							"type": "uint256"
						}
					],
					"name": "attemptDungeon",
					"outputs": [],
					"stateMutability": "nonpayable",
					"type": "function"
				},
				{
					"inputs": [
						{
							"internalType": "string",
							"name": "_name",
							"type": "string"
						},
						{
							"internalType": "uint256",
							"name": "_reward",
							"type": "uint256"
						},
						{
							"internalType": "uint256",
							"name": "_key",
							"type": "uint256"
						}
					],
					"name": "createDungeon",
					"outputs": [],
					"stateMutability": "nonpayable",
					"type": "function"
				},
				{
					"inputs": [],
					"name": "dungeonEntryFee",
					"outputs": [
						{
							"internalType": "uint256",
							"name": "",
							"type": "uint256"
						}
					],
					"stateMutability": "view",
					"type": "function"
				},
				{
					"inputs": [
						{
							"internalType": "uint256",
							"name": "",
							"type": "uint256"
						}
					],
					"name": "dungeons",
					"outputs": [
						{
							"internalType": "string",
							"name": "name",
							"type": "string"
						},
						{
							"internalType": "uint256",
							"name": "reward",
							"type": "uint256"
						},
						{
							"internalType": "uint256",
							"name": "dungeonId",
							"type": "uint256"
						},
						{
							"internalType": "enum GameContract.DungeonStatus",
							"name": "status",
							"type": "uint8"
						},
						{
							"internalType": "uint256",
							"name": "key",
							"type": "uint256"
						},
						{
							"internalType": "address",
							"name": "owner",
							"type": "address"
						}
					],
					"stateMutability": "view",
					"type": "function"
				},
				{
					"inputs": [
						{
							"internalType": "uint256",
							"name": "_dungeonId",
							"type": "uint256"
						},
						{
							"internalType": "uint256",
							"name": "_key",
							"type": "uint256"
						}
					],
					"name": "finishDungeon",
					"outputs": [],
					"stateMutability": "nonpayable",
					"type": "function"
				},
				{
					"inputs": [],
					"name": "token",
					"outputs": [
						{
							"internalType": "contract ERC20",
							"name": "",
							"type": "address"
						}
					],
					"stateMutability": "view",
					"type": "function"
				},
				{
					"inputs": [],
					"name": "vault",
					"outputs": [
						{
							"internalType": "contract Vault",
							"name": "",
							"type": "address"
						}
					],
					"stateMutability": "view",
					"type": "function"
				}
			],
			"devdoc": {
				"kind": "dev",
				"methods": {},
				"version": 1
			},
			"evm": {
				"assembly": "    /* \"contracts/game.sol\":109:2448  contract GameContract {... */\n  mstore(0x40, 0x80)\n    /* \"contracts/game.sol\":713:882  constructor(ERC20 _token, Vault _vault, uint256 _dungeonEntryFee) {... */\n  callvalue\n  dup1\n  iszero\n  tag_1\n  jumpi\n  0x00\n  dup1\n  revert\ntag_1:\n  pop\n  mload(0x40)\n  sub(codesize, bytecodeSize)\n  dup1\n  bytecodeSize\n  dup4\n  codecopy\n  dup2\n  dup2\n  add\n  0x40\n  mstore\n  dup2\n  add\n  swap1\n  tag_2\n  swap2\n  swap1\n  tag_3\n  jump\t// in\ntag_2:\n    /* \"contracts/game.sol\":798:804  _token */\n  dup3\n    /* \"contracts/game.sol\":790:795  token */\n  0x02\n  0x00\n    /* \"contracts/game.sol\":790:804  token = _token */\n  0x0100\n  exp\n  dup2\n  sload\n  dup2\n  0xffffffffffffffffffffffffffffffffffffffff\n  mul\n  not\n  and\n  swap1\n  dup4\n  0xffffffffffffffffffffffffffffffffffffffff\n  and\n  mul\n  or\n  swap1\n  sstore\n  pop\n    /* \"contracts/game.sol\":823:829  _vault */\n  dup2\n    /* \"contracts/game.sol\":815:820  vault */\n  0x03\n  0x00\n    /* \"contracts/game.sol\":815:829  vault = _vault */\n  0x0100\n  exp\n  dup2\n  sload\n  dup2\n  0xffffffffffffffffffffffffffffffffffffffff\n  mul\n  not\n  and\n  swap1\n  dup4\n  0xffffffffffffffffffffffffffffffffffffffff\n  and\n  mul\n  or\n  swap1\n  sstore\n  pop\n    /* \"contracts/game.sol\":858:874  _dungeonEntryFee */\n  dup1\n    /* \"contracts/game.sol\":840:855  dungeonEntryFee */\n  0x01\n    /* \"contracts/game.sol\":840:874  dungeonEntryFee = _dungeonEntryFee */\n  dup2\n  swap1\n  sstore\n  pop\n    /* \"contracts/game.sol\":713:882  constructor(ERC20 _token, Vault _vault, uint256 _dungeonEntryFee) {... */\n  pop\n  pop\n  pop\n    /* \"contracts/game.sol\":109:2448  contract GameContract {... */\n  jump(tag_6)\n    /* \"#utility.yul\":88:205   */\ntag_8:\n    /* \"#utility.yul\":197:198   */\n  0x00\n    /* \"#utility.yul\":194:195   */\n  dup1\n    /* \"#utility.yul\":187:199   */\n  revert\n    /* \"#utility.yul\":334:460   */\ntag_10:\n    /* \"#utility.yul\":371:378   */\n  0x00\n    /* \"#utility.yul\":411:453   */\n  0xffffffffffffffffffffffffffffffffffffffff\n    /* \"#utility.yul\":404:409   */\n  dup3\n    /* \"#utility.yul\":400:454   */\n  and\n    /* \"#utility.yul\":389:454   */\n  swap1\n  pop\n    /* \"#utility.yul\":334:460   */\n  swap2\n  swap1\n  pop\n  jump\t// out\n    /* \"#utility.yul\":466:562   */\ntag_11:\n    /* \"#utility.yul\":503:510   */\n  0x00\n    /* \"#utility.yul\":532:556   */\n  tag_27\n    /* \"#utility.yul\":550:555   */\n  dup3\n    /* \"#utility.yul\":532:556   */\n  tag_10\n  jump\t// in\ntag_27:\n    /* \"#utility.yul\":521:556   */\n  swap1\n  pop\n    /* \"#utility.yul\":466:562   */\n  swap2\n  swap1\n  pop\n  jump\t// out\n    /* \"#utility.yul\":568:677   */\ntag_12:\n    /* \"#utility.yul\":618:625   */\n  0x00\n    /* \"#utility.yul\":647:671   */\n  tag_29\n    /* \"#utility.yul\":665:670   */\n  dup3\n    /* \"#utility.yul\":647:671   */\n  tag_11\n  jump\t// in\ntag_29:\n    /* \"#utility.yul\":636:671   */\n  swap1\n  pop\n    /* \"#utility.yul\":568:677   */\n  swap2\n  swap1\n  pop\n  jump\t// out\n    /* \"#utility.yul\":683:831   */\ntag_13:\n    /* \"#utility.yul\":769:806   */\n  tag_31\n    /* \"#utility.yul\":800:805   */\n  dup2\n    /* \"#utility.yul\":769:806   */\n  tag_12\n  jump\t// in\ntag_31:\n    /* \"#utility.yul\":762:767   */\n  dup2\n    /* \"#utility.yul\":759:807   */\n  eq\n    /* \"#utility.yul\":749:825   */\n  tag_32\n  jumpi\n    /* \"#utility.yul\":821:822   */\n  0x00\n    /* \"#utility.yul\":818:819   */\n  dup1\n    /* \"#utility.yul\":811:823   */\n  revert\n    /* \"#utility.yul\":749:825   */\ntag_32:\n    /* \"#utility.yul\":683:831   */\n  pop\n  jump\t// out\n    /* \"#utility.yul\":837:1006   */\ntag_14:\n    /* \"#utility.yul\":907:912   */\n  0x00\n    /* \"#utility.yul\":938:944   */\n  dup2\n    /* \"#utility.yul\":932:945   */\n  mload\n    /* \"#utility.yul\":923:945   */\n  swap1\n  pop\n    /* \"#utility.yul\":954:1000   */\n  tag_34\n    /* \"#utility.yul\":994:999   */\n  dup2\n    /* \"#utility.yul\":954:1000   */\n  tag_13\n  jump\t// in\ntag_34:\n    /* \"#utility.yul\":837:1006   */\n  swap3\n  swap2\n  pop\n  pop\n  jump\t// out\n    /* \"#utility.yul\":1012:1121   */\ntag_15:\n    /* \"#utility.yul\":1062:1069   */\n  0x00\n    /* \"#utility.yul\":1091:1115   */\n  tag_36\n    /* \"#utility.yul\":1109:1114   */\n  dup3\n    /* \"#utility.yul\":1091:1115   */\n  tag_11\n  jump\t// in\ntag_36:\n    /* \"#utility.yul\":1080:1115   */\n  swap1\n  pop\n    /* \"#utility.yul\":1012:1121   */\n  swap2\n  swap1\n  pop\n  jump\t// out\n    /* \"#utility.yul\":1127:1275   */\ntag_16:\n    /* \"#utility.yul\":1213:1250   */\n  tag_38\n    /* \"#utility.yul\":1244:1249   */\n  dup2\n    /* \"#utility.yul\":1213:1250   */\n  tag_15\n  jump\t// in\ntag_38:\n    /* \"#utility.yul\":1206:1211   */\n  dup2\n    /* \"#utility.yul\":1203:1251   */\n  eq\n    /* \"#utility.yul\":1193:1269   */\n  tag_39\n  jumpi\n    /* \"#utility.yul\":1265:1266   */\n  0x00\n    /* \"#utility.yul\":1262:1263   */\n  dup1\n    /* \"#utility.yul\":1255:1267   */\n  revert\n    /* \"#utility.yul\":1193:1269   */\ntag_39:\n    /* \"#utility.yul\":1127:1275   */\n  pop\n  jump\t// out\n    /* \"#utility.yul\":1281:1450   */\ntag_17:\n    /* \"#utility.yul\":1351:1356   */\n  0x00\n    /* \"#utility.yul\":1382:1388   */\n  dup2\n    /* \"#utility.yul\":1376:1389   */\n  mload\n    /* \"#utility.yul\":1367:1389   */\n  swap1\n  pop\n    /* \"#utility.yul\":1398:1444   */\n  tag_41\n    /* \"#utility.yul\":1438:1443   */\n  dup2\n    /* \"#utility.yul\":1398:1444   */\n  tag_16\n  jump\t// in\ntag_41:\n    /* \"#utility.yul\":1281:1450   */\n  swap3\n  swap2\n  pop\n  pop\n  jump\t// out\n    /* \"#utility.yul\":1456:1533   */\ntag_18:\n    /* \"#utility.yul\":1493:1500   */\n  0x00\n    /* \"#utility.yul\":1522:1527   */\n  dup2\n    /* \"#utility.yul\":1511:1527   */\n  swap1\n  pop\n    /* \"#utility.yul\":1456:1533   */\n  swap2\n  swap1\n  pop\n  jump\t// out\n    /* \"#utility.yul\":1539:1661   */\ntag_19:\n    /* \"#utility.yul\":1612:1636   */\n  tag_44\n    /* \"#utility.yul\":1630:1635   */\n  dup2\n    /* \"#utility.yul\":1612:1636   */\n  tag_18\n  jump\t// in\ntag_44:\n    /* \"#utility.yul\":1605:1610   */\n  dup2\n    /* \"#utility.yul\":1602:1637   */\n  eq\n    /* \"#utility.yul\":1592:1655   */\n  tag_45\n  jumpi\n    /* \"#utility.yul\":1651:1652   */\n  0x00\n    /* \"#utility.yul\":1648:1649   */\n  dup1\n    /* \"#utility.yul\":1641:1653   */\n  revert\n    /* \"#utility.yul\":1592:1655   */\ntag_45:\n    /* \"#utility.yul\":1539:1661   */\n  pop\n  jump\t// out\n    /* \"#utility.yul\":1667:1810   */\ntag_20:\n    /* \"#utility.yul\":1724:1729   */\n  0x00\n    /* \"#utility.yul\":1755:1761   */\n  dup2\n    /* \"#utility.yul\":1749:1762   */\n  mload\n    /* \"#utility.yul\":1740:1762   */\n  swap1\n  pop\n    /* \"#utility.yul\":1771:1804   */\n  tag_47\n    /* \"#utility.yul\":1798:1803   */\n  dup2\n    /* \"#utility.yul\":1771:1804   */\n  tag_19\n  jump\t// in\ntag_47:\n    /* \"#utility.yul\":1667:1810   */\n  swap3\n  swap2\n  pop\n  pop\n  jump\t// out\n    /* \"#utility.yul\":1816:2531   */\ntag_3:\n    /* \"#utility.yul\":1930:1936   */\n  0x00\n    /* \"#utility.yul\":1938:1944   */\n  dup1\n    /* \"#utility.yul\":1946:1952   */\n  0x00\n    /* \"#utility.yul\":1995:1997   */\n  0x60\n    /* \"#utility.yul\":1983:1992   */\n  dup5\n    /* \"#utility.yul\":1974:1981   */\n  dup7\n    /* \"#utility.yul\":1970:1993   */\n  sub\n    /* \"#utility.yul\":1966:1998   */\n  slt\n    /* \"#utility.yul\":1963:2082   */\n  iszero\n  tag_49\n  jumpi\n    /* \"#utility.yul\":2001:2080   */\n  tag_50\n  tag_8\n  jump\t// in\ntag_50:\n    /* \"#utility.yul\":1963:2082   */\ntag_49:\n    /* \"#utility.yul\":2121:2122   */\n  0x00\n    /* \"#utility.yul\":2146:2223   */\n  tag_51\n    /* \"#utility.yul\":2215:2222   */\n  dup7\n    /* \"#utility.yul\":2206:2212   */\n  dup3\n    /* \"#utility.yul\":2195:2204   */\n  dup8\n    /* \"#utility.yul\":2191:2213   */\n  add\n    /* \"#utility.yul\":2146:2223   */\n  tag_14\n  jump\t// in\ntag_51:\n    /* \"#utility.yul\":2136:2223   */\n  swap4\n  pop\n    /* \"#utility.yul\":2092:2233   */\n  pop\n    /* \"#utility.yul\":2272:2274   */\n  0x20\n    /* \"#utility.yul\":2298:2375   */\n  tag_52\n    /* \"#utility.yul\":2367:2374   */\n  dup7\n    /* \"#utility.yul\":2358:2364   */\n  dup3\n    /* \"#utility.yul\":2347:2356   */\n  dup8\n    /* \"#utility.yul\":2343:2365   */\n  add\n    /* \"#utility.yul\":2298:2375   */\n  tag_17\n  jump\t// in\ntag_52:\n    /* \"#utility.yul\":2288:2375   */\n  swap3\n  pop\n    /* \"#utility.yul\":2243:2385   */\n  pop\n    /* \"#utility.yul\":2424:2426   */\n  0x40\n    /* \"#utility.yul\":2450:2514   */\n  tag_53\n    /* \"#utility.yul\":2506:2513   */\n  dup7\n    /* \"#utility.yul\":2497:2503   */\n  dup3\n    /* \"#utility.yul\":2486:2495   */\n  dup8\n    /* \"#utility.yul\":2482:2504   */\n  add\n    /* \"#utility.yul\":2450:2514   */\n  tag_20\n  jump\t// in\ntag_53:\n    /* \"#utility.yul\":2440:2514   */\n  swap2\n  pop\n    /* \"#utility.yul\":2395:2524   */\n  pop\n    /* \"#utility.yul\":1816:2531   */\n  swap3\n  pop\n  swap3\n  pop\n  swap3\n  jump\t// out\n    /* \"contracts/game.sol\":109:2448  contract GameContract {... */\ntag_6:\n  dataSize(sub_0)\n  dup1\n  dataOffset(sub_0)\n  0x00\n  codecopy\n  0x00\n  return\nstop\n\nsub_0: assembly {\n        /* \"contracts/game.sol\":109:2448  contract GameContract {... */\n      mstore(0x40, 0x80)\n      callvalue\n      dup1\n      iszero\n      tag_1\n      jumpi\n      0x00\n      dup1\n      revert\n    tag_1:\n      pop\n      jumpi(tag_2, lt(calldatasize, 0x04))\n      shr(0xe0, calldataload(0x00))\n      dup1\n      0xcecb2601\n      gt\n      tag_10\n      jumpi\n      dup1\n      0xcecb2601\n      eq\n      tag_6\n      jumpi\n      dup1\n      0xfa7ddb45\n      eq\n      tag_7\n      jumpi\n      dup1\n      0xfbfa77cf\n      eq\n      tag_8\n      jumpi\n      dup1\n      0xfc0c546a\n      eq\n      tag_9\n      jumpi\n      jump(tag_2)\n    tag_10:\n      dup1\n      0x0c0c8958\n      eq\n      tag_3\n      jumpi\n      dup1\n      0x46859c3f\n      eq\n      tag_4\n      jumpi\n      dup1\n      0x956e958a\n      eq\n      tag_5\n      jumpi\n    tag_2:\n      0x00\n      dup1\n      revert\n        /* \"contracts/game.sol\":1874:2445  function finishDungeon(uint256 _dungeonId, uint256 _key) external {... */\n    tag_3:\n      tag_11\n      0x04\n      dup1\n      calldatasize\n      sub\n      dup2\n      add\n      swap1\n      tag_12\n      swap2\n      swap1\n      tag_13\n      jump\t// in\n    tag_12:\n      tag_14\n      jump\t// in\n    tag_11:\n      stop\n        /* \"contracts/game.sol\":405:435  uint256 public dungeonEntryFee */\n    tag_4:\n      tag_15\n      tag_16\n      jump\t// in\n    tag_15:\n      mload(0x40)\n      tag_17\n      swap2\n      swap1\n      tag_18\n      jump\t// in\n    tag_17:\n      mload(0x40)\n      dup1\n      swap2\n      sub\n      swap1\n      return\n        /* \"contracts/game.sol\":373:398  Dungeon[] public dungeons */\n    tag_5:\n      tag_19\n      0x04\n      dup1\n      calldatasize\n      sub\n      dup2\n      add\n      swap1\n      tag_20\n      swap2\n      swap1\n      tag_21\n      jump\t// in\n    tag_20:\n      tag_22\n      jump\t// in\n    tag_19:\n      mload(0x40)\n      tag_23\n      swap7\n      swap6\n      swap5\n      swap4\n      swap3\n      swap2\n      swap1\n      tag_24\n      jump\t// in\n    tag_23:\n      mload(0x40)\n      dup1\n      swap2\n      sub\n      swap1\n      return\n        /* \"contracts/game.sol\":890:1407  function createDungeon(string memory _name, uint256 _reward, uint256 _key) external {... */\n    tag_6:\n      tag_25\n      0x04\n      dup1\n      calldatasize\n      sub\n      dup2\n      add\n      swap1\n      tag_26\n      swap2\n      swap1\n      tag_27\n      jump\t// in\n    tag_26:\n      tag_28\n      jump\t// in\n    tag_25:\n      stop\n        /* \"contracts/game.sol\":1415:1866  function attemptDungeon(uint256 _dungeonId) external ActiveDungeonOnly(_dungeonId) {... */\n    tag_7:\n      tag_29\n      0x04\n      dup1\n      calldatasize\n      sub\n      dup2\n      add\n      swap1\n      tag_30\n      swap2\n      swap1\n      tag_21\n      jump\t// in\n    tag_30:\n      tag_31\n      jump\t// in\n    tag_29:\n      stop\n        /* \"contracts/game.sol\":467:485  Vault public vault */\n    tag_8:\n      tag_32\n      tag_33\n      jump\t// in\n    tag_32:\n      mload(0x40)\n      tag_34\n      swap2\n      swap1\n      tag_35\n      jump\t// in\n    tag_34:\n      mload(0x40)\n      dup1\n      swap2\n      sub\n      swap1\n      return\n        /* \"contracts/game.sol\":442:460  ERC20 public token */\n    tag_9:\n      tag_36\n      tag_37\n      jump\t// in\n    tag_36:\n      mload(0x40)\n      tag_38\n      swap2\n      swap1\n      tag_39\n      jump\t// in\n    tag_38:\n      mload(0x40)\n      dup1\n      swap2\n      sub\n      swap1\n      return\n        /* \"contracts/game.sol\":1874:2445  function finishDungeon(uint256 _dungeonId, uint256 _key) external {... */\n    tag_14:\n        /* \"contracts/game.sol\":1972:1980  dungeons */\n      0x00\n        /* \"contracts/game.sol\":1972:1987  dungeons.length */\n      dup1\n      sload\n      swap1\n      pop\n        /* \"contracts/game.sol\":1959:1969  _dungeonId */\n      dup3\n        /* \"contracts/game.sol\":1959:1987  _dungeonId < dungeons.length */\n      lt\n        /* \"contracts/game.sol\":1951:2010  require(_dungeonId < dungeons.length, \"Invalid dungeon ID\") */\n      tag_41\n      jumpi\n      mload(0x40)\n      0x08c379a000000000000000000000000000000000000000000000000000000000\n      dup2\n      mstore\n      0x04\n      add\n      tag_42\n      swap1\n      tag_43\n      jump\t// in\n    tag_42:\n      mload(0x40)\n      dup1\n      swap2\n      sub\n      swap1\n      revert\n    tag_41:\n        /* \"contracts/game.sol\":2060:2083  DungeonStatus.Completed */\n      0x00\n        /* \"contracts/game.sol\":2029:2083  dungeons[_dungeonId].status != DungeonStatus.Completed */\n      0x01\n      dup2\n      gt\n      iszero\n      tag_44\n      jumpi\n      tag_45\n      tag_46\n      jump\t// in\n    tag_45:\n    tag_44:\n        /* \"contracts/game.sol\":2029:2037  dungeons */\n      0x00\n        /* \"contracts/game.sol\":2038:2048  _dungeonId */\n      dup4\n        /* \"contracts/game.sol\":2029:2049  dungeons[_dungeonId] */\n      dup2\n      sload\n      dup2\n      lt\n      tag_47\n      jumpi\n      tag_48\n      tag_49\n      jump\t// in\n    tag_48:\n    tag_47:\n      swap1\n      0x00\n      mstore\n      keccak256(0x00, 0x20)\n      swap1\n      0x06\n      mul\n      add\n        /* \"contracts/game.sol\":2029:2056  dungeons[_dungeonId].status */\n      0x03\n      add\n      0x00\n      swap1\n      sload\n      swap1\n      0x0100\n      exp\n      swap1\n      div\n      0xff\n      and\n        /* \"contracts/game.sol\":2029:2083  dungeons[_dungeonId].status != DungeonStatus.Completed */\n      0x01\n      dup2\n      gt\n      iszero\n      tag_51\n      jumpi\n      tag_52\n      tag_46\n      jump\t// in\n    tag_52:\n    tag_51:\n      sub\n        /* \"contracts/game.sol\":2021:2112  require(dungeons[_dungeonId].status != DungeonStatus.Completed, \"Dungeon is not completed\") */\n      tag_53\n      jumpi\n      mload(0x40)\n      0x08c379a000000000000000000000000000000000000000000000000000000000\n      dup2\n      mstore\n      0x04\n      add\n      tag_54\n      swap1\n      tag_55\n      jump\t// in\n    tag_54:\n      mload(0x40)\n      dup1\n      swap2\n      sub\n      swap1\n      revert\n    tag_53:\n        /* \"contracts/game.sol\":2145:2161  attemptedDungeon */\n      0x04\n        /* \"contracts/game.sol\":2145:2173  attemptedDungeon[msg.sender] */\n      0x00\n        /* \"contracts/game.sol\":2162:2172  msg.sender */\n      caller\n        /* \"contracts/game.sol\":2145:2173  attemptedDungeon[msg.sender] */\n      0xffffffffffffffffffffffffffffffffffffffff\n      and\n      0xffffffffffffffffffffffffffffffffffffffff\n      and\n      dup2\n      mstore\n      0x20\n      add\n      swap1\n      dup2\n      mstore\n      0x20\n      add\n      0x00\n      keccak256\n      sload\n        /* \"contracts/game.sol\":2131:2141  _dungeonId */\n      dup3\n        /* \"contracts/game.sol\":2131:2173  _dungeonId == attemptedDungeon[msg.sender] */\n      eq\n        /* \"contracts/game.sol\":2123:2212  require(_dungeonId == attemptedDungeon[msg.sender], \"you haven't attempted this dungeon\") */\n      tag_56\n      jumpi\n      mload(0x40)\n      0x08c379a000000000000000000000000000000000000000000000000000000000\n      dup2\n      mstore\n      0x04\n      add\n      tag_57\n      swap1\n      tag_58\n      jump\t// in\n    tag_57:\n      mload(0x40)\n      dup1\n      swap2\n      sub\n      swap1\n      revert\n    tag_56:\n        /* \"contracts/game.sol\":2257:2261  _key */\n      dup1\n        /* \"contracts/game.sol\":2229:2237  dungeons */\n      0x00\n        /* \"contracts/game.sol\":2238:2248  _dungeonId */\n      dup4\n        /* \"contracts/game.sol\":2229:2249  dungeons[_dungeonId] */\n      dup2\n      sload\n      dup2\n      lt\n      tag_59\n      jumpi\n      tag_60\n      tag_49\n      jump\t// in\n    tag_60:\n    tag_59:\n      swap1\n      0x00\n      mstore\n      keccak256(0x00, 0x20)\n      swap1\n      0x06\n      mul\n      add\n        /* \"contracts/game.sol\":2229:2253  dungeons[_dungeonId].key */\n      0x04\n      add\n      sload\n        /* \"contracts/game.sol\":2229:2261  dungeons[_dungeonId].key == _key */\n      sub\n        /* \"contracts/game.sol\":2225:2438  if (dungeons[_dungeonId].key == _key) {... */\n      tag_62\n      jumpi\n        /* \"contracts/game.sol\":2339:2344  token */\n      0x02\n      0x00\n      swap1\n      sload\n      swap1\n      0x0100\n      exp\n      swap1\n      div\n      0xffffffffffffffffffffffffffffffffffffffff\n      and\n        /* \"contracts/game.sol\":2339:2357  token.transferFrom */\n      0xffffffffffffffffffffffffffffffffffffffff\n      and\n      0x23b872dd\n        /* \"contracts/game.sol\":2358:2366  dungeons */\n      0x00\n        /* \"contracts/game.sol\":2367:2377  _dungeonId */\n      dup5\n        /* \"contracts/game.sol\":2358:2378  dungeons[_dungeonId] */\n      dup2\n      sload\n      dup2\n      lt\n      tag_63\n      jumpi\n      tag_64\n      tag_49\n      jump\t// in\n    tag_64:\n    tag_63:\n      swap1\n      0x00\n      mstore\n      keccak256(0x00, 0x20)\n      swap1\n      0x06\n      mul\n      add\n        /* \"contracts/game.sol\":2358:2384  dungeons[_dungeonId].owner */\n      0x05\n      add\n      0x00\n      swap1\n      sload\n      swap1\n      0x0100\n      exp\n      swap1\n      div\n      0xffffffffffffffffffffffffffffffffffffffff\n      and\n        /* \"contracts/game.sol\":2386:2396  msg.sender */\n      caller\n        /* \"contracts/game.sol\":2398:2406  dungeons */\n      0x00\n        /* \"contracts/game.sol\":2407:2417  _dungeonId */\n      dup7\n        /* \"contracts/game.sol\":2398:2418  dungeons[_dungeonId] */\n      dup2\n      sload\n      dup2\n      lt\n      tag_66\n      jumpi\n      tag_67\n      tag_49\n      jump\t// in\n    tag_67:\n    tag_66:\n      swap1\n      0x00\n      mstore\n      keccak256(0x00, 0x20)\n      swap1\n      0x06\n      mul\n      add\n        /* \"contracts/game.sol\":2398:2425  dungeons[_dungeonId].reward */\n      0x01\n      add\n      sload\n        /* \"contracts/game.sol\":2339:2426  token.transferFrom(dungeons[_dungeonId].owner, msg.sender, dungeons[_dungeonId].reward) */\n      mload(0x40)\n      dup5\n      0xffffffff\n      and\n      0xe0\n      shl\n      dup2\n      mstore\n      0x04\n      add\n      tag_69\n      swap4\n      swap3\n      swap2\n      swap1\n      tag_70\n      jump\t// in\n    tag_69:\n      0x20\n      mload(0x40)\n      dup1\n      dup4\n      sub\n      dup2\n      0x00\n      dup8\n      gas\n      call\n      iszero\n      dup1\n      iszero\n      tag_72\n      jumpi\n      returndatasize\n      0x00\n      dup1\n      returndatacopy\n      revert(0x00, returndatasize)\n    tag_72:\n      pop\n      pop\n      pop\n      pop\n      mload(0x40)\n      returndatasize\n      not(0x1f)\n      0x1f\n      dup3\n      add\n      and\n      dup3\n      add\n      dup1\n      0x40\n      mstore\n      pop\n      dup2\n      add\n      swap1\n      tag_73\n      swap2\n      swap1\n      tag_74\n      jump\t// in\n    tag_73:\n      pop\n        /* \"contracts/game.sol\":2225:2438  if (dungeons[_dungeonId].key == _key) {... */\n    tag_62:\n        /* \"contracts/game.sol\":1874:2445  function finishDungeon(uint256 _dungeonId, uint256 _key) external {... */\n      pop\n      pop\n      jump\t// out\n        /* \"contracts/game.sol\":405:435  uint256 public dungeonEntryFee */\n    tag_16:\n      sload(0x01)\n      dup2\n      jump\t// out\n        /* \"contracts/game.sol\":373:398  Dungeon[] public dungeons */\n    tag_22:\n      0x00\n      dup2\n      dup2\n      sload\n      dup2\n      lt\n      tag_75\n      jumpi\n      0x00\n      dup1\n      revert\n    tag_75:\n      swap1\n      0x00\n      mstore\n      keccak256(0x00, 0x20)\n      swap1\n      0x06\n      mul\n      add\n      0x00\n      swap2\n      pop\n      swap1\n      pop\n      dup1\n      0x00\n      add\n      dup1\n      sload\n      tag_77\n      swap1\n      tag_78\n      jump\t// in\n    tag_77:\n      dup1\n      0x1f\n      add\n      0x20\n      dup1\n      swap2\n      div\n      mul\n      0x20\n      add\n      mload(0x40)\n      swap1\n      dup2\n      add\n      0x40\n      mstore\n      dup1\n      swap3\n      swap2\n      swap1\n      dup2\n      dup2\n      mstore\n      0x20\n      add\n      dup3\n      dup1\n      sload\n      tag_79\n      swap1\n      tag_78\n      jump\t// in\n    tag_79:\n      dup1\n      iszero\n      tag_80\n      jumpi\n      dup1\n      0x1f\n      lt\n      tag_81\n      jumpi\n      0x0100\n      dup1\n      dup4\n      sload\n      div\n      mul\n      dup4\n      mstore\n      swap2\n      0x20\n      add\n      swap2\n      jump(tag_80)\n    tag_81:\n      dup3\n      add\n      swap2\n      swap1\n      0x00\n      mstore\n      keccak256(0x00, 0x20)\n      swap1\n    tag_82:\n      dup2\n      sload\n      dup2\n      mstore\n      swap1\n      0x01\n      add\n      swap1\n      0x20\n      add\n      dup1\n      dup4\n      gt\n      tag_82\n      jumpi\n      dup3\n      swap1\n      sub\n      0x1f\n      and\n      dup3\n      add\n      swap2\n    tag_80:\n      pop\n      pop\n      pop\n      pop\n      pop\n      swap1\n      dup1\n      0x01\n      add\n      sload\n      swap1\n      dup1\n      0x02\n      add\n      sload\n      swap1\n      dup1\n      0x03\n      add\n      0x00\n      swap1\n      sload\n      swap1\n      0x0100\n      exp\n      swap1\n      div\n      0xff\n      and\n      swap1\n      dup1\n      0x04\n      add\n      sload\n      swap1\n      dup1\n      0x05\n      add\n      0x00\n      swap1\n      sload\n      swap1\n      0x0100\n      exp\n      swap1\n      div\n      0xffffffffffffffffffffffffffffffffffffffff\n      and\n      swap1\n      pop\n      dup7\n      jump\t// out\n        /* \"contracts/game.sol\":890:1407  function createDungeon(string memory _name, uint256 _reward, uint256 _key) external {... */\n    tag_28:\n        /* \"contracts/game.sol\":1003:1004  0 */\n      0x00\n        /* \"contracts/game.sol\":993:1000  _reward */\n      dup3\n        /* \"contracts/game.sol\":993:1004  _reward > 0 */\n      gt\n        /* \"contracts/game.sol\":985:1038  require(_reward > 0, \"Reward must be greater than 0\") */\n      tag_84\n      jumpi\n      mload(0x40)\n      0x08c379a000000000000000000000000000000000000000000000000000000000\n      dup2\n      mstore\n      0x04\n      add\n      tag_85\n      swap1\n      tag_86\n      jump\t// in\n    tag_85:\n      mload(0x40)\n      dup1\n      swap2\n      sub\n      swap1\n      revert\n    tag_84:\n        /* \"contracts/game.sol\":1088:1095  _reward */\n      dup2\n        /* \"contracts/game.sol\":1057:1062  token */\n      0x02\n      0x00\n      swap1\n      sload\n      swap1\n      0x0100\n      exp\n      swap1\n      div\n      0xffffffffffffffffffffffffffffffffffffffff\n      and\n        /* \"contracts/game.sol\":1057:1072  token.balanceOf */\n      0xffffffffffffffffffffffffffffffffffffffff\n      and\n      0x70a08231\n        /* \"contracts/game.sol\":1073:1083  msg.sender */\n      caller\n        /* \"contracts/game.sol\":1057:1084  token.balanceOf(msg.sender) */\n      mload(0x40)\n      dup3\n      0xffffffff\n      and\n      0xe0\n      shl\n      dup2\n      mstore\n      0x04\n      add\n      tag_87\n      swap2\n      swap1\n      tag_88\n      jump\t// in\n    tag_87:\n      0x20\n      mload(0x40)\n      dup1\n      dup4\n      sub\n      dup2\n      dup7\n      gas\n      staticcall\n      iszero\n      dup1\n      iszero\n      tag_90\n      jumpi\n      returndatasize\n      0x00\n      dup1\n      returndatacopy\n      revert(0x00, returndatasize)\n    tag_90:\n      pop\n      pop\n      pop\n      pop\n      mload(0x40)\n      returndatasize\n      not(0x1f)\n      0x1f\n      dup3\n      add\n      and\n      dup3\n      add\n      dup1\n      0x40\n      mstore\n      pop\n      dup2\n      add\n      swap1\n      tag_91\n      swap2\n      swap1\n      tag_92\n      jump\t// in\n    tag_91:\n        /* \"contracts/game.sol\":1057:1095  token.balanceOf(msg.sender) >= _reward */\n      lt\n      iszero\n        /* \"contracts/game.sol\":1049:1126  require(token.balanceOf(msg.sender) >= _reward, \"Insufficient token balance\") */\n      tag_93\n      jumpi\n      mload(0x40)\n      0x08c379a000000000000000000000000000000000000000000000000000000000\n      dup2\n      mstore\n      0x04\n      add\n      tag_94\n      swap1\n      tag_95\n      jump\t// in\n    tag_94:\n      mload(0x40)\n      dup1\n      swap2\n      sub\n      swap1\n      revert\n    tag_93:\n        /* \"contracts/game.sol\":1139:1156  uint256 dungeonId */\n      0x00\n        /* \"contracts/game.sol\":1159:1167  dungeons */\n      dup1\n        /* \"contracts/game.sol\":1159:1174  dungeons.length */\n      dup1\n      sload\n      swap1\n      pop\n        /* \"contracts/game.sol\":1139:1174  uint256 dungeonId = dungeons.length */\n      swap1\n      pop\n        /* \"contracts/game.sol\":1185:1193  dungeons */\n      0x00\n        /* \"contracts/game.sol\":1199:1277  Dungeon(_name, _reward, dungeonId, DungeonStatus.InComplete, _key, msg.sender) */\n      mload(0x40)\n      dup1\n      0xc0\n      add\n      0x40\n      mstore\n      dup1\n        /* \"contracts/game.sol\":1207:1212  _name */\n      dup7\n        /* \"contracts/game.sol\":1199:1277  Dungeon(_name, _reward, dungeonId, DungeonStatus.InComplete, _key, msg.sender) */\n      dup2\n      mstore\n      0x20\n      add\n        /* \"contracts/game.sol\":1214:1221  _reward */\n      dup6\n        /* \"contracts/game.sol\":1199:1277  Dungeon(_name, _reward, dungeonId, DungeonStatus.InComplete, _key, msg.sender) */\n      dup2\n      mstore\n      0x20\n      add\n        /* \"contracts/game.sol\":1223:1232  dungeonId */\n      dup4\n        /* \"contracts/game.sol\":1199:1277  Dungeon(_name, _reward, dungeonId, DungeonStatus.InComplete, _key, msg.sender) */\n      dup2\n      mstore\n      0x20\n      add\n        /* \"contracts/game.sol\":1234:1258  DungeonStatus.InComplete */\n      0x01\n        /* \"contracts/game.sol\":1199:1277  Dungeon(_name, _reward, dungeonId, DungeonStatus.InComplete, _key, msg.sender) */\n      dup1\n      dup2\n      gt\n      iszero\n      tag_96\n      jumpi\n      tag_97\n      tag_46\n      jump\t// in\n    tag_97:\n    tag_96:\n      dup2\n      mstore\n      0x20\n      add\n        /* \"contracts/game.sol\":1260:1264  _key */\n      dup5\n        /* \"contracts/game.sol\":1199:1277  Dungeon(_name, _reward, dungeonId, DungeonStatus.InComplete, _key, msg.sender) */\n      dup2\n      mstore\n      0x20\n      add\n        /* \"contracts/game.sol\":1266:1276  msg.sender */\n      caller\n        /* \"contracts/game.sol\":1199:1277  Dungeon(_name, _reward, dungeonId, DungeonStatus.InComplete, _key, msg.sender) */\n      0xffffffffffffffffffffffffffffffffffffffff\n      and\n      dup2\n      mstore\n      pop\n        /* \"contracts/game.sol\":1185:1278  dungeons.push(Dungeon(_name, _reward, dungeonId, DungeonStatus.InComplete, _key, msg.sender)) */\n      swap1\n      dup1\n      0x01\n      dup2\n      sload\n      add\n      dup1\n      dup3\n      sstore\n      dup1\n      swap2\n      pop\n      pop\n      0x01\n      swap1\n      sub\n      swap1\n      0x00\n      mstore\n      keccak256(0x00, 0x20)\n      swap1\n      0x06\n      mul\n      add\n      0x00\n      swap1\n      swap2\n      swap1\n      swap2\n      swap1\n      swap2\n      pop\n      0x00\n      dup3\n      add\n      mload\n      dup2\n      0x00\n      add\n      swap1\n      dup2\n      tag_99\n      swap2\n      swap1\n      tag_100\n      jump\t// in\n    tag_99:\n      pop\n      0x20\n      dup3\n      add\n      mload\n      dup2\n      0x01\n      add\n      sstore\n      0x40\n      dup3\n      add\n      mload\n      dup2\n      0x02\n      add\n      sstore\n      0x60\n      dup3\n      add\n      mload\n      dup2\n      0x03\n      add\n      exp(0x0100, 0x00)\n      dup2\n      sload\n      dup2\n      0xff\n      mul\n      not\n      and\n      swap1\n      dup4\n      0x01\n      dup2\n      gt\n      iszero\n      tag_101\n      jumpi\n      tag_102\n      tag_46\n      jump\t// in\n    tag_102:\n    tag_101:\n      mul\n      or\n      swap1\n      sstore\n      pop\n      0x80\n      dup3\n      add\n      mload\n      dup2\n      0x04\n      add\n      sstore\n      0xa0\n      dup3\n      add\n      mload\n      dup2\n      0x05\n      add\n      exp(0x0100, 0x00)\n      dup2\n      sload\n      dup2\n      0xffffffffffffffffffffffffffffffffffffffff\n      mul\n      not\n      and\n      swap1\n      dup4\n      0xffffffffffffffffffffffffffffffffffffffff\n      and\n      mul\n      or\n      swap1\n      sstore\n      pop\n      pop\n      pop\n        /* \"contracts/game.sol\":1362:1367  token */\n      0x02\n      0x00\n      swap1\n      sload\n      swap1\n      0x0100\n      exp\n      swap1\n      div\n      0xffffffffffffffffffffffffffffffffffffffff\n      and\n        /* \"contracts/game.sol\":1362:1375  token.approve */\n      0xffffffffffffffffffffffffffffffffffffffff\n      and\n      0x095ea7b3\n        /* \"contracts/game.sol\":1384:1388  this */\n      address\n        /* \"contracts/game.sol\":1391:1398  _reward */\n      dup6\n        /* \"contracts/game.sol\":1362:1399  token.approve(address(this), _reward) */\n      mload(0x40)\n      dup4\n      0xffffffff\n      and\n      0xe0\n      shl\n      dup2\n      mstore\n      0x04\n      add\n      tag_103\n      swap3\n      swap2\n      swap1\n      tag_104\n      jump\t// in\n    tag_103:\n      0x20\n      mload(0x40)\n      dup1\n      dup4\n      sub\n      dup2\n      0x00\n      dup8\n      gas\n      call\n      iszero\n      dup1\n      iszero\n      tag_106\n      jumpi\n      returndatasize\n      0x00\n      dup1\n      returndatacopy\n      revert(0x00, returndatasize)\n    tag_106:\n      pop\n      pop\n      pop\n      pop\n      mload(0x40)\n      returndatasize\n      not(0x1f)\n      0x1f\n      dup3\n      add\n      and\n      dup3\n      add\n      dup1\n      0x40\n      mstore\n      pop\n      dup2\n      add\n      swap1\n      tag_107\n      swap2\n      swap1\n      tag_74\n      jump\t// in\n    tag_107:\n      pop\n        /* \"contracts/game.sol\":974:1407  {... */\n      pop\n        /* \"contracts/game.sol\":890:1407  function createDungeon(string memory _name, uint256 _reward, uint256 _key) external {... */\n      pop\n      pop\n      pop\n      jump\t// out\n        /* \"contracts/game.sol\":1415:1866  function attemptDungeon(uint256 _dungeonId) external ActiveDungeonOnly(_dungeonId) {... */\n    tag_31:\n        /* \"contracts/game.sol\":1486:1496  _dungeonId */\n      dup1\n        /* \"contracts/game.sol\":629:652  DungeonStatus.Completed */\n      0x00\n        /* \"contracts/game.sol\":605:652  dungeons[_id].status != DungeonStatus.Completed */\n      0x01\n      dup2\n      gt\n      iszero\n      tag_109\n      jumpi\n      tag_110\n      tag_46\n      jump\t// in\n    tag_110:\n    tag_109:\n        /* \"contracts/game.sol\":605:613  dungeons */\n      0x00\n        /* \"contracts/game.sol\":614:617  _id */\n      dup3\n        /* \"contracts/game.sol\":605:618  dungeons[_id] */\n      dup2\n      sload\n      dup2\n      lt\n      tag_111\n      jumpi\n      tag_112\n      tag_49\n      jump\t// in\n    tag_112:\n    tag_111:\n      swap1\n      0x00\n      mstore\n      keccak256(0x00, 0x20)\n      swap1\n      0x06\n      mul\n      add\n        /* \"contracts/game.sol\":605:625  dungeons[_id].status */\n      0x03\n      add\n      0x00\n      swap1\n      sload\n      swap1\n      0x0100\n      exp\n      swap1\n      div\n      0xff\n      and\n        /* \"contracts/game.sol\":605:652  dungeons[_id].status != DungeonStatus.Completed */\n      0x01\n      dup2\n      gt\n      iszero\n      tag_114\n      jumpi\n      tag_115\n      tag_46\n      jump\t// in\n    tag_115:\n    tag_114:\n      sub\n        /* \"contracts/game.sol\":597:685  require(dungeons[_id].status != DungeonStatus.Completed, \"Dungeon is already completed\") */\n      tag_116\n      jumpi\n      mload(0x40)\n      0x08c379a000000000000000000000000000000000000000000000000000000000\n      dup2\n      mstore\n      0x04\n      add\n      tag_117\n      swap1\n      tag_118\n      jump\t// in\n    tag_117:\n      mload(0x40)\n      dup1\n      swap2\n      sub\n      swap1\n      revert\n    tag_116:\n        /* \"contracts/game.sol\":1530:1538  dungeons */\n      0x00\n        /* \"contracts/game.sol\":1530:1545  dungeons.length */\n      dup1\n      sload\n      swap1\n      pop\n        /* \"contracts/game.sol\":1517:1527  _dungeonId */\n      dup3\n        /* \"contracts/game.sol\":1517:1545  _dungeonId < dungeons.length */\n      lt\n        /* \"contracts/game.sol\":1509:1568  require(_dungeonId < dungeons.length, \"Invalid dungeon ID\") */\n      tag_120\n      jumpi\n      mload(0x40)\n      0x08c379a000000000000000000000000000000000000000000000000000000000\n      dup2\n      mstore\n      0x04\n      add\n      tag_121\n      swap1\n      tag_43\n      jump\t// in\n    tag_121:\n      mload(0x40)\n      dup1\n      swap2\n      sub\n      swap1\n      revert\n    tag_120:\n        /* \"contracts/game.sol\":1618:1633  dungeonEntryFee */\n      sload(0x01)\n        /* \"contracts/game.sol\":1587:1592  token */\n      0x02\n      0x00\n      swap1\n      sload\n      swap1\n      0x0100\n      exp\n      swap1\n      div\n      0xffffffffffffffffffffffffffffffffffffffff\n      and\n        /* \"contracts/game.sol\":1587:1602  token.balanceOf */\n      0xffffffffffffffffffffffffffffffffffffffff\n      and\n      0x70a08231\n        /* \"contracts/game.sol\":1603:1613  msg.sender */\n      caller\n        /* \"contracts/game.sol\":1587:1614  token.balanceOf(msg.sender) */\n      mload(0x40)\n      dup3\n      0xffffffff\n      and\n      0xe0\n      shl\n      dup2\n      mstore\n      0x04\n      add\n      tag_122\n      swap2\n      swap1\n      tag_88\n      jump\t// in\n    tag_122:\n      0x20\n      mload(0x40)\n      dup1\n      dup4\n      sub\n      dup2\n      dup7\n      gas\n      staticcall\n      iszero\n      dup1\n      iszero\n      tag_124\n      jumpi\n      returndatasize\n      0x00\n      dup1\n      returndatacopy\n      revert(0x00, returndatasize)\n    tag_124:\n      pop\n      pop\n      pop\n      pop\n      mload(0x40)\n      returndatasize\n      not(0x1f)\n      0x1f\n      dup3\n      add\n      and\n      dup3\n      add\n      dup1\n      0x40\n      mstore\n      pop\n      dup2\n      add\n      swap1\n      tag_125\n      swap2\n      swap1\n      tag_92\n      jump\t// in\n    tag_125:\n        /* \"contracts/game.sol\":1587:1633  token.balanceOf(msg.sender) >= dungeonEntryFee */\n      lt\n      iszero\n        /* \"contracts/game.sol\":1579:1662  require(token.balanceOf(msg.sender) >= dungeonEntryFee, \"Insufficient attempt fee\") */\n      tag_126\n      jumpi\n      mload(0x40)\n      0x08c379a000000000000000000000000000000000000000000000000000000000\n      dup2\n      mstore\n      0x04\n      add\n      tag_127\n      swap1\n      tag_128\n      jump\t// in\n    tag_127:\n      mload(0x40)\n      dup1\n      swap2\n      sub\n      swap1\n      revert\n    tag_126:\n        /* \"contracts/game.sol\":1675:1680  token */\n      0x02\n      0x00\n      swap1\n      sload\n      swap1\n      0x0100\n      exp\n      swap1\n      div\n      0xffffffffffffffffffffffffffffffffffffffff\n      and\n        /* \"contracts/game.sol\":1675:1688  token.approve */\n      0xffffffffffffffffffffffffffffffffffffffff\n      and\n      0x095ea7b3\n        /* \"contracts/game.sol\":1697:1701  this */\n      address\n        /* \"contracts/game.sol\":1704:1719  dungeonEntryFee */\n      sload(0x01)\n        /* \"contracts/game.sol\":1675:1720  token.approve(address(this), dungeonEntryFee) */\n      mload(0x40)\n      dup4\n      0xffffffff\n      and\n      0xe0\n      shl\n      dup2\n      mstore\n      0x04\n      add\n      tag_129\n      swap3\n      swap2\n      swap1\n      tag_104\n      jump\t// in\n    tag_129:\n      0x20\n      mload(0x40)\n      dup1\n      dup4\n      sub\n      dup2\n      0x00\n      dup8\n      gas\n      call\n      iszero\n      dup1\n      iszero\n      tag_131\n      jumpi\n      returndatasize\n      0x00\n      dup1\n      returndatacopy\n      revert(0x00, returndatasize)\n    tag_131:\n      pop\n      pop\n      pop\n      pop\n      mload(0x40)\n      returndatasize\n      not(0x1f)\n      0x1f\n      dup3\n      add\n      and\n      dup3\n      add\n      dup1\n      0x40\n      mstore\n      pop\n      dup2\n      add\n      swap1\n      tag_132\n      swap2\n      swap1\n      tag_74\n      jump\t// in\n    tag_132:\n      pop\n        /* \"contracts/game.sol\":1731:1736  token */\n      0x02\n      0x00\n      swap1\n      sload\n      swap1\n      0x0100\n      exp\n      swap1\n      div\n      0xffffffffffffffffffffffffffffffffffffffff\n      and\n        /* \"contracts/game.sol\":1731:1749  token.transferFrom */\n      0xffffffffffffffffffffffffffffffffffffffff\n      and\n      0x23b872dd\n        /* \"contracts/game.sol\":1750:1760  msg.sender */\n      caller\n        /* \"contracts/game.sol\":1762:1770  dungeons */\n      0x00\n        /* \"contracts/game.sol\":1771:1781  _dungeonId */\n      dup6\n        /* \"contracts/game.sol\":1762:1782  dungeons[_dungeonId] */\n      dup2\n      sload\n      dup2\n      lt\n      tag_133\n      jumpi\n      tag_134\n      tag_49\n      jump\t// in\n    tag_134:\n    tag_133:\n      swap1\n      0x00\n      mstore\n      keccak256(0x00, 0x20)\n      swap1\n      0x06\n      mul\n      add\n        /* \"contracts/game.sol\":1762:1788  dungeons[_dungeonId].owner */\n      0x05\n      add\n      0x00\n      swap1\n      sload\n      swap1\n      0x0100\n      exp\n      swap1\n      div\n      0xffffffffffffffffffffffffffffffffffffffff\n      and\n        /* \"contracts/game.sol\":1790:1805  dungeonEntryFee */\n      sload(0x01)\n        /* \"contracts/game.sol\":1731:1806  token.transferFrom(msg.sender, dungeons[_dungeonId].owner, dungeonEntryFee) */\n      mload(0x40)\n      dup5\n      0xffffffff\n      and\n      0xe0\n      shl\n      dup2\n      mstore\n      0x04\n      add\n      tag_136\n      swap4\n      swap3\n      swap2\n      swap1\n      tag_70\n      jump\t// in\n    tag_136:\n      0x20\n      mload(0x40)\n      dup1\n      dup4\n      sub\n      dup2\n      0x00\n      dup8\n      gas\n      call\n      iszero\n      dup1\n      iszero\n      tag_138\n      jumpi\n      returndatasize\n      0x00\n      dup1\n      returndatacopy\n      revert(0x00, returndatasize)\n    tag_138:\n      pop\n      pop\n      pop\n      pop\n      mload(0x40)\n      returndatasize\n      not(0x1f)\n      0x1f\n      dup3\n      add\n      and\n      dup3\n      add\n      dup1\n      0x40\n      mstore\n      pop\n      dup2\n      add\n      swap1\n      tag_139\n      swap2\n      swap1\n      tag_74\n      jump\t// in\n    tag_139:\n      pop\n        /* \"contracts/game.sol\":1848:1858  _dungeonId */\n      dup2\n        /* \"contracts/game.sol\":1817:1833  attemptedDungeon */\n      0x04\n        /* \"contracts/game.sol\":1817:1845  attemptedDungeon[msg.sender] */\n      0x00\n        /* \"contracts/game.sol\":1834:1844  msg.sender */\n      caller\n        /* \"contracts/game.sol\":1817:1845  attemptedDungeon[msg.sender] */\n      0xffffffffffffffffffffffffffffffffffffffff\n      and\n      0xffffffffffffffffffffffffffffffffffffffff\n      and\n      dup2\n      mstore\n      0x20\n      add\n      swap1\n      dup2\n      mstore\n      0x20\n      add\n      0x00\n      keccak256\n        /* \"contracts/game.sol\":1817:1858  attemptedDungeon[msg.sender] = _dungeonId */\n      dup2\n      swap1\n      sstore\n      pop\n        /* \"contracts/game.sol\":1415:1866  function attemptDungeon(uint256 _dungeonId) external ActiveDungeonOnly(_dungeonId) {... */\n      pop\n      pop\n      jump\t// out\n        /* \"contracts/game.sol\":467:485  Vault public vault */\n    tag_33:\n      0x03\n      0x00\n      swap1\n      sload\n      swap1\n      0x0100\n      exp\n      swap1\n      div\n      0xffffffffffffffffffffffffffffffffffffffff\n      and\n      dup2\n      jump\t// out\n        /* \"contracts/game.sol\":442:460  ERC20 public token */\n    tag_37:\n      0x02\n      0x00\n      swap1\n      sload\n      swap1\n      0x0100\n      exp\n      swap1\n      div\n      0xffffffffffffffffffffffffffffffffffffffff\n      and\n      dup2\n      jump\t// out\n        /* \"#utility.yul\":7:82   */\n    tag_140:\n        /* \"#utility.yul\":40:46   */\n      0x00\n        /* \"#utility.yul\":73:75   */\n      0x40\n        /* \"#utility.yul\":67:76   */\n      mload\n        /* \"#utility.yul\":57:76   */\n      swap1\n      pop\n        /* \"#utility.yul\":7:82   */\n      swap1\n      jump\t// out\n        /* \"#utility.yul\":88:205   */\n    tag_141:\n        /* \"#utility.yul\":197:198   */\n      0x00\n        /* \"#utility.yul\":194:195   */\n      dup1\n        /* \"#utility.yul\":187:199   */\n      revert\n        /* \"#utility.yul\":211:328   */\n    tag_142:\n        /* \"#utility.yul\":320:321   */\n      0x00\n        /* \"#utility.yul\":317:318   */\n      dup1\n        /* \"#utility.yul\":310:322   */\n      revert\n        /* \"#utility.yul\":334:411   */\n    tag_143:\n        /* \"#utility.yul\":371:378   */\n      0x00\n        /* \"#utility.yul\":400:405   */\n      dup2\n        /* \"#utility.yul\":389:405   */\n      swap1\n      pop\n        /* \"#utility.yul\":334:411   */\n      swap2\n      swap1\n      pop\n      jump\t// out\n        /* \"#utility.yul\":417:539   */\n    tag_144:\n        /* \"#utility.yul\":490:514   */\n      tag_214\n        /* \"#utility.yul\":508:513   */\n      dup2\n        /* \"#utility.yul\":490:514   */\n      tag_143\n      jump\t// in\n    tag_214:\n        /* \"#utility.yul\":483:488   */\n      dup2\n        /* \"#utility.yul\":480:515   */\n      eq\n        /* \"#utility.yul\":470:533   */\n      tag_215\n      jumpi\n        /* \"#utility.yul\":529:530   */\n      0x00\n        /* \"#utility.yul\":526:527   */\n      dup1\n        /* \"#utility.yul\":519:531   */\n      revert\n        /* \"#utility.yul\":470:533   */\n    tag_215:\n        /* \"#utility.yul\":417:539   */\n      pop\n      jump\t// out\n        /* \"#utility.yul\":545:684   */\n    tag_145:\n        /* \"#utility.yul\":591:596   */\n      0x00\n        /* \"#utility.yul\":629:635   */\n      dup2\n        /* \"#utility.yul\":616:636   */\n      calldataload\n        /* \"#utility.yul\":607:636   */\n      swap1\n      pop\n        /* \"#utility.yul\":645:678   */\n      tag_217\n        /* \"#utility.yul\":672:677   */\n      dup2\n        /* \"#utility.yul\":645:678   */\n      tag_144\n      jump\t// in\n    tag_217:\n        /* \"#utility.yul\":545:684   */\n      swap3\n      swap2\n      pop\n      pop\n      jump\t// out\n        /* \"#utility.yul\":690:1164   */\n    tag_13:\n        /* \"#utility.yul\":758:764   */\n      0x00\n        /* \"#utility.yul\":766:772   */\n      dup1\n        /* \"#utility.yul\":815:817   */\n      0x40\n        /* \"#utility.yul\":803:812   */\n      dup4\n        /* \"#utility.yul\":794:801   */\n      dup6\n        /* \"#utility.yul\":790:813   */\n      sub\n        /* \"#utility.yul\":786:818   */\n      slt\n        /* \"#utility.yul\":783:902   */\n      iszero\n      tag_219\n      jumpi\n        /* \"#utility.yul\":821:900   */\n      tag_220\n      tag_141\n      jump\t// in\n    tag_220:\n        /* \"#utility.yul\":783:902   */\n    tag_219:\n        /* \"#utility.yul\":941:942   */\n      0x00\n        /* \"#utility.yul\":966:1019   */\n      tag_221\n        /* \"#utility.yul\":1011:1018   */\n      dup6\n        /* \"#utility.yul\":1002:1008   */\n      dup3\n        /* \"#utility.yul\":991:1000   */\n      dup7\n        /* \"#utility.yul\":987:1009   */\n      add\n        /* \"#utility.yul\":966:1019   */\n      tag_145\n      jump\t// in\n    tag_221:\n        /* \"#utility.yul\":956:1019   */\n      swap3\n      pop\n        /* \"#utility.yul\":912:1029   */\n      pop\n        /* \"#utility.yul\":1068:1070   */\n      0x20\n        /* \"#utility.yul\":1094:1147   */\n      tag_222\n        /* \"#utility.yul\":1139:1146   */\n      dup6\n        /* \"#utility.yul\":1130:1136   */\n      dup3\n        /* \"#utility.yul\":1119:1128   */\n      dup7\n        /* \"#utility.yul\":1115:1137   */\n      add\n        /* \"#utility.yul\":1094:1147   */\n      tag_145\n      jump\t// in\n    tag_222:\n        /* \"#utility.yul\":1084:1147   */\n      swap2\n      pop\n        /* \"#utility.yul\":1039:1157   */\n      pop\n        /* \"#utility.yul\":690:1164   */\n      swap3\n      pop\n      swap3\n      swap1\n      pop\n      jump\t// out\n        /* \"#utility.yul\":1170:1288   */\n    tag_146:\n        /* \"#utility.yul\":1257:1281   */\n      tag_224\n        /* \"#utility.yul\":1275:1280   */\n      dup2\n        /* \"#utility.yul\":1257:1281   */\n      tag_143\n      jump\t// in\n    tag_224:\n        /* \"#utility.yul\":1252:1255   */\n      dup3\n        /* \"#utility.yul\":1245:1282   */\n      mstore\n        /* \"#utility.yul\":1170:1288   */\n      pop\n      pop\n      jump\t// out\n        /* \"#utility.yul\":1294:1516   */\n    tag_18:\n        /* \"#utility.yul\":1387:1391   */\n      0x00\n        /* \"#utility.yul\":1425:1427   */\n      0x20\n        /* \"#utility.yul\":1414:1423   */\n      dup3\n        /* \"#utility.yul\":1410:1428   */\n      add\n        /* \"#utility.yul\":1402:1428   */\n      swap1\n      pop\n        /* \"#utility.yul\":1438:1509   */\n      tag_226\n        /* \"#utility.yul\":1506:1507   */\n      0x00\n        /* \"#utility.yul\":1495:1504   */\n      dup4\n        /* \"#utility.yul\":1491:1508   */\n      add\n        /* \"#utility.yul\":1482:1488   */\n      dup5\n        /* \"#utility.yul\":1438:1509   */\n      tag_146\n      jump\t// in\n    tag_226:\n        /* \"#utility.yul\":1294:1516   */\n      swap3\n      swap2\n      pop\n      pop\n      jump\t// out\n        /* \"#utility.yul\":1522:1851   */\n    tag_21:\n        /* \"#utility.yul\":1581:1587   */\n      0x00\n        /* \"#utility.yul\":1630:1632   */\n      0x20\n        /* \"#utility.yul\":1618:1627   */\n      dup3\n        /* \"#utility.yul\":1609:1616   */\n      dup5\n        /* \"#utility.yul\":1605:1628   */\n      sub\n        /* \"#utility.yul\":1601:1633   */\n      slt\n        /* \"#utility.yul\":1598:1717   */\n      iszero\n      tag_228\n      jumpi\n        /* \"#utility.yul\":1636:1715   */\n      tag_229\n      tag_141\n      jump\t// in\n    tag_229:\n        /* \"#utility.yul\":1598:1717   */\n    tag_228:\n        /* \"#utility.yul\":1756:1757   */\n      0x00\n        /* \"#utility.yul\":1781:1834   */\n      tag_230\n        /* \"#utility.yul\":1826:1833   */\n      dup5\n        /* \"#utility.yul\":1817:1823   */\n      dup3\n        /* \"#utility.yul\":1806:1815   */\n      dup6\n        /* \"#utility.yul\":1802:1824   */\n      add\n        /* \"#utility.yul\":1781:1834   */\n      tag_145\n      jump\t// in\n    tag_230:\n        /* \"#utility.yul\":1771:1834   */\n      swap2\n      pop\n        /* \"#utility.yul\":1727:1844   */\n      pop\n        /* \"#utility.yul\":1522:1851   */\n      swap3\n      swap2\n      pop\n      pop\n      jump\t// out\n        /* \"#utility.yul\":1857:1956   */\n    tag_147:\n        /* \"#utility.yul\":1909:1915   */\n      0x00\n        /* \"#utility.yul\":1943:1948   */\n      dup2\n        /* \"#utility.yul\":1937:1949   */\n      mload\n        /* \"#utility.yul\":1927:1949   */\n      swap1\n      pop\n        /* \"#utility.yul\":1857:1956   */\n      swap2\n      swap1\n      pop\n      jump\t// out\n        /* \"#utility.yul\":1962:2131   */\n    tag_148:\n        /* \"#utility.yul\":2046:2057   */\n      0x00\n        /* \"#utility.yul\":2080:2086   */\n      dup3\n        /* \"#utility.yul\":2075:2078   */\n      dup3\n        /* \"#utility.yul\":2068:2087   */\n      mstore\n        /* \"#utility.yul\":2120:2124   */\n      0x20\n        /* \"#utility.yul\":2115:2118   */\n      dup3\n        /* \"#utility.yul\":2111:2125   */\n      add\n        /* \"#utility.yul\":2096:2125   */\n      swap1\n      pop\n        /* \"#utility.yul\":1962:2131   */\n      swap3\n      swap2\n      pop\n      pop\n      jump\t// out\n        /* \"#utility.yul\":2137:2276   */\n    tag_149:\n        /* \"#utility.yul\":2226:2232   */\n      dup3\n        /* \"#utility.yul\":2221:2224   */\n      dup2\n        /* \"#utility.yul\":2216:2219   */\n      dup4\n        /* \"#utility.yul\":2210:2233   */\n      mcopy\n        /* \"#utility.yul\":2267:2268   */\n      0x00\n        /* \"#utility.yul\":2258:2264   */\n      dup4\n        /* \"#utility.yul\":2253:2256   */\n      dup4\n        /* \"#utility.yul\":2249:2265   */\n      add\n        /* \"#utility.yul\":2242:2269   */\n      mstore\n        /* \"#utility.yul\":2137:2276   */\n      pop\n      pop\n      pop\n      jump\t// out\n        /* \"#utility.yul\":2282:2384   */\n    tag_150:\n        /* \"#utility.yul\":2323:2329   */\n      0x00\n        /* \"#utility.yul\":2374:2376   */\n      0x1f\n        /* \"#utility.yul\":2370:2377   */\n      not\n        /* \"#utility.yul\":2365:2367   */\n      0x1f\n        /* \"#utility.yul\":2358:2363   */\n      dup4\n        /* \"#utility.yul\":2354:2368   */\n      add\n        /* \"#utility.yul\":2350:2378   */\n      and\n        /* \"#utility.yul\":2340:2378   */\n      swap1\n      pop\n        /* \"#utility.yul\":2282:2384   */\n      swap2\n      swap1\n      pop\n      jump\t// out\n        /* \"#utility.yul\":2390:2767   */\n    tag_151:\n        /* \"#utility.yul\":2478:2481   */\n      0x00\n        /* \"#utility.yul\":2506:2545   */\n      tag_236\n        /* \"#utility.yul\":2539:2544   */\n      dup3\n        /* \"#utility.yul\":2506:2545   */\n      tag_147\n      jump\t// in\n    tag_236:\n        /* \"#utility.yul\":2561:2632   */\n      tag_237\n        /* \"#utility.yul\":2625:2631   */\n      dup2\n        /* \"#utility.yul\":2620:2623   */\n      dup6\n        /* \"#utility.yul\":2561:2632   */\n      tag_148\n      jump\t// in\n    tag_237:\n        /* \"#utility.yul\":2554:2632   */\n      swap4\n      pop\n        /* \"#utility.yul\":2641:2706   */\n      tag_238\n        /* \"#utility.yul\":2699:2705   */\n      dup2\n        /* \"#utility.yul\":2694:2697   */\n      dup6\n        /* \"#utility.yul\":2687:2691   */\n      0x20\n        /* \"#utility.yul\":2680:2685   */\n      dup7\n        /* \"#utility.yul\":2676:2692   */\n      add\n        /* \"#utility.yul\":2641:2706   */\n      tag_149\n      jump\t// in\n    tag_238:\n        /* \"#utility.yul\":2731:2760   */\n      tag_239\n        /* \"#utility.yul\":2753:2759   */\n      dup2\n        /* \"#utility.yul\":2731:2760   */\n      tag_150\n      jump\t// in\n    tag_239:\n        /* \"#utility.yul\":2726:2729   */\n      dup5\n        /* \"#utility.yul\":2722:2761   */\n      add\n        /* \"#utility.yul\":2715:2761   */\n      swap2\n      pop\n        /* \"#utility.yul\":2482:2767   */\n      pop\n        /* \"#utility.yul\":2390:2767   */\n      swap3\n      swap2\n      pop\n      pop\n      jump\t// out\n        /* \"#utility.yul\":2773:2953   */\n    tag_46:\n        /* \"#utility.yul\":2821:2898   */\n      0x4e487b7100000000000000000000000000000000000000000000000000000000\n        /* \"#utility.yul\":2818:2819   */\n      0x00\n        /* \"#utility.yul\":2811:2899   */\n      mstore\n        /* \"#utility.yul\":2918:2922   */\n      0x21\n        /* \"#utility.yul\":2915:2916   */\n      0x04\n        /* \"#utility.yul\":2908:2923   */\n      mstore\n        /* \"#utility.yul\":2942:2946   */\n      0x24\n        /* \"#utility.yul\":2939:2940   */\n      0x00\n        /* \"#utility.yul\":2932:2947   */\n      revert\n        /* \"#utility.yul\":2959:3081   */\n    tag_152:\n        /* \"#utility.yul\":3049:3050   */\n      0x02\n        /* \"#utility.yul\":3042:3047   */\n      dup2\n        /* \"#utility.yul\":3039:3051   */\n      lt\n        /* \"#utility.yul\":3029:3075   */\n      tag_242\n      jumpi\n        /* \"#utility.yul\":3055:3073   */\n      tag_243\n      tag_46\n      jump\t// in\n    tag_243:\n        /* \"#utility.yul\":3029:3075   */\n    tag_242:\n        /* \"#utility.yul\":2959:3081   */\n      pop\n      jump\t// out\n        /* \"#utility.yul\":3087:3232   */\n    tag_153:\n        /* \"#utility.yul\":3141:3148   */\n      0x00\n        /* \"#utility.yul\":3170:3175   */\n      dup2\n        /* \"#utility.yul\":3159:3175   */\n      swap1\n      pop\n        /* \"#utility.yul\":3176:3226   */\n      tag_245\n        /* \"#utility.yul\":3220:3225   */\n      dup3\n        /* \"#utility.yul\":3176:3226   */\n      tag_152\n      jump\t// in\n    tag_245:\n        /* \"#utility.yul\":3087:3232   */\n      swap2\n      swap1\n      pop\n      jump\t// out\n        /* \"#utility.yul\":3238:3383   */\n    tag_154:\n        /* \"#utility.yul\":3303:3312   */\n      0x00\n        /* \"#utility.yul\":3336:3377   */\n      tag_247\n        /* \"#utility.yul\":3371:3376   */\n      dup3\n        /* \"#utility.yul\":3336:3377   */\n      tag_153\n      jump\t// in\n    tag_247:\n        /* \"#utility.yul\":3323:3377   */\n      swap1\n      pop\n        /* \"#utility.yul\":3238:3383   */\n      swap2\n      swap1\n      pop\n      jump\t// out\n        /* \"#utility.yul\":3389:3550   */\n    tag_155:\n        /* \"#utility.yul\":3491:3543   */\n      tag_249\n        /* \"#utility.yul\":3537:3542   */\n      dup2\n        /* \"#utility.yul\":3491:3543   */\n      tag_154\n      jump\t// in\n    tag_249:\n        /* \"#utility.yul\":3486:3489   */\n      dup3\n        /* \"#utility.yul\":3479:3544   */\n      mstore\n        /* \"#utility.yul\":3389:3550   */\n      pop\n      pop\n      jump\t// out\n        /* \"#utility.yul\":3556:3682   */\n    tag_156:\n        /* \"#utility.yul\":3593:3600   */\n      0x00\n        /* \"#utility.yul\":3633:3675   */\n      0xffffffffffffffffffffffffffffffffffffffff\n        /* \"#utility.yul\":3626:3631   */\n      dup3\n        /* \"#utility.yul\":3622:3676   */\n      and\n        /* \"#utility.yul\":3611:3676   */\n      swap1\n      pop\n        /* \"#utility.yul\":3556:3682   */\n      swap2\n      swap1\n      pop\n      jump\t// out\n        /* \"#utility.yul\":3688:3784   */\n    tag_157:\n        /* \"#utility.yul\":3725:3732   */\n      0x00\n        /* \"#utility.yul\":3754:3778   */\n      tag_252\n        /* \"#utility.yul\":3772:3777   */\n      dup3\n        /* \"#utility.yul\":3754:3778   */\n      tag_156\n      jump\t// in\n    tag_252:\n        /* \"#utility.yul\":3743:3778   */\n      swap1\n      pop\n        /* \"#utility.yul\":3688:3784   */\n      swap2\n      swap1\n      pop\n      jump\t// out\n        /* \"#utility.yul\":3790:3908   */\n    tag_158:\n        /* \"#utility.yul\":3877:3901   */\n      tag_254\n        /* \"#utility.yul\":3895:3900   */\n      dup2\n        /* \"#utility.yul\":3877:3901   */\n      tag_157\n      jump\t// in\n    tag_254:\n        /* \"#utility.yul\":3872:3875   */\n      dup3\n        /* \"#utility.yul\":3865:3902   */\n      mstore\n        /* \"#utility.yul\":3790:3908   */\n      pop\n      pop\n      jump\t// out\n        /* \"#utility.yul\":3914:4810   */\n    tag_24:\n        /* \"#utility.yul\":4182:4186   */\n      0x00\n        /* \"#utility.yul\":4220:4223   */\n      0xc0\n        /* \"#utility.yul\":4209:4218   */\n      dup3\n        /* \"#utility.yul\":4205:4224   */\n      add\n        /* \"#utility.yul\":4197:4224   */\n      swap1\n      pop\n        /* \"#utility.yul\":4270:4279   */\n      dup2\n        /* \"#utility.yul\":4264:4268   */\n      dup2\n        /* \"#utility.yul\":4260:4280   */\n      sub\n        /* \"#utility.yul\":4256:4257   */\n      0x00\n        /* \"#utility.yul\":4245:4254   */\n      dup4\n        /* \"#utility.yul\":4241:4258   */\n      add\n        /* \"#utility.yul\":4234:4281   */\n      mstore\n        /* \"#utility.yul\":4298:4376   */\n      tag_256\n        /* \"#utility.yul\":4371:4375   */\n      dup2\n        /* \"#utility.yul\":4362:4368   */\n      dup10\n        /* \"#utility.yul\":4298:4376   */\n      tag_151\n      jump\t// in\n    tag_256:\n        /* \"#utility.yul\":4290:4376   */\n      swap1\n      pop\n        /* \"#utility.yul\":4386:4458   */\n      tag_257\n        /* \"#utility.yul\":4454:4456   */\n      0x20\n        /* \"#utility.yul\":4443:4452   */\n      dup4\n        /* \"#utility.yul\":4439:4457   */\n      add\n        /* \"#utility.yul\":4430:4436   */\n      dup9\n        /* \"#utility.yul\":4386:4458   */\n      tag_146\n      jump\t// in\n    tag_257:\n        /* \"#utility.yul\":4468:4540   */\n      tag_258\n        /* \"#utility.yul\":4536:4538   */\n      0x40\n        /* \"#utility.yul\":4525:4534   */\n      dup4\n        /* \"#utility.yul\":4521:4539   */\n      add\n        /* \"#utility.yul\":4512:4518   */\n      dup8\n        /* \"#utility.yul\":4468:4540   */\n      tag_146\n      jump\t// in\n    tag_258:\n        /* \"#utility.yul\":4550:4637   */\n      tag_259\n        /* \"#utility.yul\":4633:4635   */\n      0x60\n        /* \"#utility.yul\":4622:4631   */\n      dup4\n        /* \"#utility.yul\":4618:4636   */\n      add\n        /* \"#utility.yul\":4609:4615   */\n      dup7\n        /* \"#utility.yul\":4550:4637   */\n      tag_155\n      jump\t// in\n    tag_259:\n        /* \"#utility.yul\":4647:4720   */\n      tag_260\n        /* \"#utility.yul\":4715:4718   */\n      0x80\n        /* \"#utility.yul\":4704:4713   */\n      dup4\n        /* \"#utility.yul\":4700:4719   */\n      add\n        /* \"#utility.yul\":4691:4697   */\n      dup6\n        /* \"#utility.yul\":4647:4720   */\n      tag_146\n      jump\t// in\n    tag_260:\n        /* \"#utility.yul\":4730:4803   */\n      tag_261\n        /* \"#utility.yul\":4798:4801   */\n      0xa0\n        /* \"#utility.yul\":4787:4796   */\n      dup4\n        /* \"#utility.yul\":4783:4802   */\n      add\n        /* \"#utility.yul\":4774:4780   */\n      dup5\n        /* \"#utility.yul\":4730:4803   */\n      tag_158\n      jump\t// in\n    tag_261:\n        /* \"#utility.yul\":3914:4810   */\n      swap8\n      swap7\n      pop\n      pop\n      pop\n      pop\n      pop\n      pop\n      pop\n      jump\t// out\n        /* \"#utility.yul\":4816:4933   */\n    tag_159:\n        /* \"#utility.yul\":4925:4926   */\n      0x00\n        /* \"#utility.yul\":4922:4923   */\n      dup1\n        /* \"#utility.yul\":4915:4927   */\n      revert\n        /* \"#utility.yul\":4939:5056   */\n    tag_160:\n        /* \"#utility.yul\":5048:5049   */\n      0x00\n        /* \"#utility.yul\":5045:5046   */\n      dup1\n        /* \"#utility.yul\":5038:5050   */\n      revert\n        /* \"#utility.yul\":5062:5242   */\n    tag_161:\n        /* \"#utility.yul\":5110:5187   */\n      0x4e487b7100000000000000000000000000000000000000000000000000000000\n        /* \"#utility.yul\":5107:5108   */\n      0x00\n        /* \"#utility.yul\":5100:5188   */\n      mstore\n        /* \"#utility.yul\":5207:5211   */\n      0x41\n        /* \"#utility.yul\":5204:5205   */\n      0x04\n        /* \"#utility.yul\":5197:5212   */\n      mstore\n        /* \"#utility.yul\":5231:5235   */\n      0x24\n        /* \"#utility.yul\":5228:5229   */\n      0x00\n        /* \"#utility.yul\":5221:5236   */\n      revert\n        /* \"#utility.yul\":5248:5529   */\n    tag_162:\n        /* \"#utility.yul\":5331:5358   */\n      tag_266\n        /* \"#utility.yul\":5353:5357   */\n      dup3\n        /* \"#utility.yul\":5331:5358   */\n      tag_150\n      jump\t// in\n    tag_266:\n        /* \"#utility.yul\":5323:5329   */\n      dup2\n        /* \"#utility.yul\":5319:5359   */\n      add\n        /* \"#utility.yul\":5461:5467   */\n      dup2\n        /* \"#utility.yul\":5449:5459   */\n      dup2\n        /* \"#utility.yul\":5446:5468   */\n      lt\n        /* \"#utility.yul\":5425:5443   */\n      0xffffffffffffffff\n        /* \"#utility.yul\":5413:5423   */\n      dup3\n        /* \"#utility.yul\":5410:5444   */\n      gt\n        /* \"#utility.yul\":5407:5469   */\n      or\n        /* \"#utility.yul\":5404:5492   */\n      iszero\n      tag_267\n      jumpi\n        /* \"#utility.yul\":5472:5490   */\n      tag_268\n      tag_161\n      jump\t// in\n    tag_268:\n        /* \"#utility.yul\":5404:5492   */\n    tag_267:\n        /* \"#utility.yul\":5512:5522   */\n      dup1\n        /* \"#utility.yul\":5508:5510   */\n      0x40\n        /* \"#utility.yul\":5501:5523   */\n      mstore\n        /* \"#utility.yul\":5291:5529   */\n      pop\n        /* \"#utility.yul\":5248:5529   */\n      pop\n      pop\n      jump\t// out\n        /* \"#utility.yul\":5535:5664   */\n    tag_163:\n        /* \"#utility.yul\":5569:5575   */\n      0x00\n        /* \"#utility.yul\":5596:5616   */\n      tag_270\n      tag_140\n      jump\t// in\n    tag_270:\n        /* \"#utility.yul\":5586:5616   */\n      swap1\n      pop\n        /* \"#utility.yul\":5625:5658   */\n      tag_271\n        /* \"#utility.yul\":5653:5657   */\n      dup3\n        /* \"#utility.yul\":5645:5651   */\n      dup3\n        /* \"#utility.yul\":5625:5658   */\n      tag_162\n      jump\t// in\n    tag_271:\n        /* \"#utility.yul\":5535:5664   */\n      swap2\n      swap1\n      pop\n      jump\t// out\n        /* \"#utility.yul\":5670:5978   */\n    tag_164:\n        /* \"#utility.yul\":5732:5736   */\n      0x00\n        /* \"#utility.yul\":5822:5840   */\n      0xffffffffffffffff\n        /* \"#utility.yul\":5814:5820   */\n      dup3\n        /* \"#utility.yul\":5811:5841   */\n      gt\n        /* \"#utility.yul\":5808:5864   */\n      iszero\n      tag_273\n      jumpi\n        /* \"#utility.yul\":5844:5862   */\n      tag_274\n      tag_161\n      jump\t// in\n    tag_274:\n        /* \"#utility.yul\":5808:5864   */\n    tag_273:\n        /* \"#utility.yul\":5882:5911   */\n      tag_275\n        /* \"#utility.yul\":5904:5910   */\n      dup3\n        /* \"#utility.yul\":5882:5911   */\n      tag_150\n      jump\t// in\n    tag_275:\n        /* \"#utility.yul\":5874:5911   */\n      swap1\n      pop\n        /* \"#utility.yul\":5966:5970   */\n      0x20\n        /* \"#utility.yul\":5960:5964   */\n      dup2\n        /* \"#utility.yul\":5956:5971   */\n      add\n        /* \"#utility.yul\":5948:5971   */\n      swap1\n      pop\n        /* \"#utility.yul\":5670:5978   */\n      swap2\n      swap1\n      pop\n      jump\t// out\n        /* \"#utility.yul\":5984:6132   */\n    tag_165:\n        /* \"#utility.yul\":6082:6088   */\n      dup3\n        /* \"#utility.yul\":6077:6080   */\n      dup2\n        /* \"#utility.yul\":6072:6075   */\n      dup4\n        /* \"#utility.yul\":6059:6089   */\n      calldatacopy\n        /* \"#utility.yul\":6123:6124   */\n      0x00\n        /* \"#utility.yul\":6114:6120   */\n      dup4\n        /* \"#utility.yul\":6109:6112   */\n      dup4\n        /* \"#utility.yul\":6105:6121   */\n      add\n        /* \"#utility.yul\":6098:6125   */\n      mstore\n        /* \"#utility.yul\":5984:6132   */\n      pop\n      pop\n      pop\n      jump\t// out\n        /* \"#utility.yul\":6138:6563   */\n    tag_166:\n        /* \"#utility.yul\":6216:6221   */\n      0x00\n        /* \"#utility.yul\":6241:6307   */\n      tag_278\n        /* \"#utility.yul\":6257:6306   */\n      tag_279\n        /* \"#utility.yul\":6299:6305   */\n      dup5\n        /* \"#utility.yul\":6257:6306   */\n      tag_164\n      jump\t// in\n    tag_279:\n        /* \"#utility.yul\":6241:6307   */\n      tag_163\n      jump\t// in\n    tag_278:\n        /* \"#utility.yul\":6232:6307   */\n      swap1\n      pop\n        /* \"#utility.yul\":6330:6336   */\n      dup3\n        /* \"#utility.yul\":6323:6328   */\n      dup2\n        /* \"#utility.yul\":6316:6337   */\n      mstore\n        /* \"#utility.yul\":6368:6372   */\n      0x20\n        /* \"#utility.yul\":6361:6366   */\n      dup2\n        /* \"#utility.yul\":6357:6373   */\n      add\n        /* \"#utility.yul\":6406:6409   */\n      dup5\n        /* \"#utility.yul\":6397:6403   */\n      dup5\n        /* \"#utility.yul\":6392:6395   */\n      dup5\n        /* \"#utility.yul\":6388:6404   */\n      add\n        /* \"#utility.yul\":6385:6410   */\n      gt\n        /* \"#utility.yul\":6382:6494   */\n      iszero\n      tag_280\n      jumpi\n        /* \"#utility.yul\":6413:6492   */\n      tag_281\n      tag_160\n      jump\t// in\n    tag_281:\n        /* \"#utility.yul\":6382:6494   */\n    tag_280:\n        /* \"#utility.yul\":6503:6557   */\n      tag_282\n        /* \"#utility.yul\":6550:6556   */\n      dup5\n        /* \"#utility.yul\":6545:6548   */\n      dup3\n        /* \"#utility.yul\":6540:6543   */\n      dup6\n        /* \"#utility.yul\":6503:6557   */\n      tag_165\n      jump\t// in\n    tag_282:\n        /* \"#utility.yul\":6222:6563   */\n      pop\n        /* \"#utility.yul\":6138:6563   */\n      swap4\n      swap3\n      pop\n      pop\n      pop\n      jump\t// out\n        /* \"#utility.yul\":6583:6923   */\n    tag_167:\n        /* \"#utility.yul\":6639:6644   */\n      0x00\n        /* \"#utility.yul\":6688:6691   */\n      dup3\n        /* \"#utility.yul\":6681:6685   */\n      0x1f\n        /* \"#utility.yul\":6673:6679   */\n      dup4\n        /* \"#utility.yul\":6669:6686   */\n      add\n        /* \"#utility.yul\":6665:6692   */\n      slt\n        /* \"#utility.yul\":6655:6777   */\n      tag_284\n      jumpi\n        /* \"#utility.yul\":6696:6775   */\n      tag_285\n      tag_159\n      jump\t// in\n    tag_285:\n        /* \"#utility.yul\":6655:6777   */\n    tag_284:\n        /* \"#utility.yul\":6813:6819   */\n      dup2\n        /* \"#utility.yul\":6800:6820   */\n      calldataload\n        /* \"#utility.yul\":6838:6917   */\n      tag_286\n        /* \"#utility.yul\":6913:6916   */\n      dup5\n        /* \"#utility.yul\":6905:6911   */\n      dup3\n        /* \"#utility.yul\":6898:6902   */\n      0x20\n        /* \"#utility.yul\":6890:6896   */\n      dup7\n        /* \"#utility.yul\":6886:6903   */\n      add\n        /* \"#utility.yul\":6838:6917   */\n      tag_166\n      jump\t// in\n    tag_286:\n        /* \"#utility.yul\":6829:6917   */\n      swap2\n      pop\n        /* \"#utility.yul\":6645:6923   */\n      pop\n        /* \"#utility.yul\":6583:6923   */\n      swap3\n      swap2\n      pop\n      pop\n      jump\t// out\n        /* \"#utility.yul\":6929:7728   */\n    tag_27:\n        /* \"#utility.yul\":7016:7022   */\n      0x00\n        /* \"#utility.yul\":7024:7030   */\n      dup1\n        /* \"#utility.yul\":7032:7038   */\n      0x00\n        /* \"#utility.yul\":7081:7083   */\n      0x60\n        /* \"#utility.yul\":7069:7078   */\n      dup5\n        /* \"#utility.yul\":7060:7067   */\n      dup7\n        /* \"#utility.yul\":7056:7079   */\n      sub\n        /* \"#utility.yul\":7052:7084   */\n      slt\n        /* \"#utility.yul\":7049:7168   */\n      iszero\n      tag_288\n      jumpi\n        /* \"#utility.yul\":7087:7166   */\n      tag_289\n      tag_141\n      jump\t// in\n    tag_289:\n        /* \"#utility.yul\":7049:7168   */\n    tag_288:\n        /* \"#utility.yul\":7235:7236   */\n      0x00\n        /* \"#utility.yul\":7224:7233   */\n      dup5\n        /* \"#utility.yul\":7220:7237   */\n      add\n        /* \"#utility.yul\":7207:7238   */\n      calldataload\n        /* \"#utility.yul\":7265:7283   */\n      0xffffffffffffffff\n        /* \"#utility.yul\":7257:7263   */\n      dup2\n        /* \"#utility.yul\":7254:7284   */\n      gt\n        /* \"#utility.yul\":7251:7368   */\n      iszero\n      tag_290\n      jumpi\n        /* \"#utility.yul\":7287:7366   */\n      tag_291\n      tag_142\n      jump\t// in\n    tag_291:\n        /* \"#utility.yul\":7251:7368   */\n    tag_290:\n        /* \"#utility.yul\":7392:7455   */\n      tag_292\n        /* \"#utility.yul\":7447:7454   */\n      dup7\n        /* \"#utility.yul\":7438:7444   */\n      dup3\n        /* \"#utility.yul\":7427:7436   */\n      dup8\n        /* \"#utility.yul\":7423:7445   */\n      add\n        /* \"#utility.yul\":7392:7455   */\n      tag_167\n      jump\t// in\n    tag_292:\n        /* \"#utility.yul\":7382:7455   */\n      swap4\n      pop\n        /* \"#utility.yul\":7178:7465   */\n      pop\n        /* \"#utility.yul\":7504:7506   */\n      0x20\n        /* \"#utility.yul\":7530:7583   */\n      tag_293\n        /* \"#utility.yul\":7575:7582   */\n      dup7\n        /* \"#utility.yul\":7566:7572   */\n      dup3\n        /* \"#utility.yul\":7555:7564   */\n      dup8\n        /* \"#utility.yul\":7551:7573   */\n      add\n        /* \"#utility.yul\":7530:7583   */\n      tag_145\n      jump\t// in\n    tag_293:\n        /* \"#utility.yul\":7520:7583   */\n      swap3\n      pop\n        /* \"#utility.yul\":7475:7593   */\n      pop\n        /* \"#utility.yul\":7632:7634   */\n      0x40\n        /* \"#utility.yul\":7658:7711   */\n      tag_294\n        /* \"#utility.yul\":7703:7710   */\n      dup7\n        /* \"#utility.yul\":7694:7700   */\n      dup3\n        /* \"#utility.yul\":7683:7692   */\n      dup8\n        /* \"#utility.yul\":7679:7701   */\n      add\n        /* \"#utility.yul\":7658:7711   */\n      tag_145\n      jump\t// in\n    tag_294:\n        /* \"#utility.yul\":7648:7711   */\n      swap2\n      pop\n        /* \"#utility.yul\":7603:7721   */\n      pop\n        /* \"#utility.yul\":6929:7728   */\n      swap3\n      pop\n      swap3\n      pop\n      swap3\n      jump\t// out\n        /* \"#utility.yul\":7734:7794   */\n    tag_168:\n        /* \"#utility.yul\":7762:7765   */\n      0x00\n        /* \"#utility.yul\":7783:7788   */\n      dup2\n        /* \"#utility.yul\":7776:7788   */\n      swap1\n      pop\n        /* \"#utility.yul\":7734:7794   */\n      swap2\n      swap1\n      pop\n      jump\t// out\n        /* \"#utility.yul\":7800:7942   */\n    tag_169:\n        /* \"#utility.yul\":7850:7859   */\n      0x00\n        /* \"#utility.yul\":7883:7936   */\n      tag_297\n        /* \"#utility.yul\":7901:7935   */\n      tag_298\n        /* \"#utility.yul\":7910:7934   */\n      tag_299\n        /* \"#utility.yul\":7928:7933   */\n      dup5\n        /* \"#utility.yul\":7910:7934   */\n      tag_156\n      jump\t// in\n    tag_299:\n        /* \"#utility.yul\":7901:7935   */\n      tag_168\n      jump\t// in\n    tag_298:\n        /* \"#utility.yul\":7883:7936   */\n      tag_156\n      jump\t// in\n    tag_297:\n        /* \"#utility.yul\":7870:7936   */\n      swap1\n      pop\n        /* \"#utility.yul\":7800:7942   */\n      swap2\n      swap1\n      pop\n      jump\t// out\n        /* \"#utility.yul\":7948:8074   */\n    tag_170:\n        /* \"#utility.yul\":7998:8007   */\n      0x00\n        /* \"#utility.yul\":8031:8068   */\n      tag_301\n        /* \"#utility.yul\":8062:8067   */\n      dup3\n        /* \"#utility.yul\":8031:8068   */\n      tag_169\n      jump\t// in\n    tag_301:\n        /* \"#utility.yul\":8018:8068   */\n      swap1\n      pop\n        /* \"#utility.yul\":7948:8074   */\n      swap2\n      swap1\n      pop\n      jump\t// out\n        /* \"#utility.yul\":8080:8219   */\n    tag_171:\n        /* \"#utility.yul\":8143:8152   */\n      0x00\n        /* \"#utility.yul\":8176:8213   */\n      tag_303\n        /* \"#utility.yul\":8207:8212   */\n      dup3\n        /* \"#utility.yul\":8176:8213   */\n      tag_170\n      jump\t// in\n    tag_303:\n        /* \"#utility.yul\":8163:8213   */\n      swap1\n      pop\n        /* \"#utility.yul\":8080:8219   */\n      swap2\n      swap1\n      pop\n      jump\t// out\n        /* \"#utility.yul\":8225:8382   */\n    tag_172:\n        /* \"#utility.yul\":8325:8375   */\n      tag_305\n        /* \"#utility.yul\":8369:8374   */\n      dup2\n        /* \"#utility.yul\":8325:8375   */\n      tag_171\n      jump\t// in\n    tag_305:\n        /* \"#utility.yul\":8320:8323   */\n      dup3\n        /* \"#utility.yul\":8313:8376   */\n      mstore\n        /* \"#utility.yul\":8225:8382   */\n      pop\n      pop\n      jump\t// out\n        /* \"#utility.yul\":8388:8636   */\n    tag_35:\n        /* \"#utility.yul\":8494:8498   */\n      0x00\n        /* \"#utility.yul\":8532:8534   */\n      0x20\n        /* \"#utility.yul\":8521:8530   */\n      dup3\n        /* \"#utility.yul\":8517:8535   */\n      add\n        /* \"#utility.yul\":8509:8535   */\n      swap1\n      pop\n        /* \"#utility.yul\":8545:8629   */\n      tag_307\n        /* \"#utility.yul\":8626:8627   */\n      0x00\n        /* \"#utility.yul\":8615:8624   */\n      dup4\n        /* \"#utility.yul\":8611:8628   */\n      add\n        /* \"#utility.yul\":8602:8608   */\n      dup5\n        /* \"#utility.yul\":8545:8629   */\n      tag_172\n      jump\t// in\n    tag_307:\n        /* \"#utility.yul\":8388:8636   */\n      swap3\n      swap2\n      pop\n      pop\n      jump\t// out\n        /* \"#utility.yul\":8642:8781   */\n    tag_173:\n        /* \"#utility.yul\":8705:8714   */\n      0x00\n        /* \"#utility.yul\":8738:8775   */\n      tag_309\n        /* \"#utility.yul\":8769:8774   */\n      dup3\n        /* \"#utility.yul\":8738:8775   */\n      tag_170\n      jump\t// in\n    tag_309:\n        /* \"#utility.yul\":8725:8775   */\n      swap1\n      pop\n        /* \"#utility.yul\":8642:8781   */\n      swap2\n      swap1\n      pop\n      jump\t// out\n        /* \"#utility.yul\":8787:8944   */\n    tag_174:\n        /* \"#utility.yul\":8887:8937   */\n      tag_311\n        /* \"#utility.yul\":8931:8936   */\n      dup2\n        /* \"#utility.yul\":8887:8937   */\n      tag_173\n      jump\t// in\n    tag_311:\n        /* \"#utility.yul\":8882:8885   */\n      dup3\n        /* \"#utility.yul\":8875:8938   */\n      mstore\n        /* \"#utility.yul\":8787:8944   */\n      pop\n      pop\n      jump\t// out\n        /* \"#utility.yul\":8950:9198   */\n    tag_39:\n        /* \"#utility.yul\":9056:9060   */\n      0x00\n        /* \"#utility.yul\":9094:9096   */\n      0x20\n        /* \"#utility.yul\":9083:9092   */\n      dup3\n        /* \"#utility.yul\":9079:9097   */\n      add\n        /* \"#utility.yul\":9071:9097   */\n      swap1\n      pop\n        /* \"#utility.yul\":9107:9191   */\n      tag_313\n        /* \"#utility.yul\":9188:9189   */\n      0x00\n        /* \"#utility.yul\":9177:9186   */\n      dup4\n        /* \"#utility.yul\":9173:9190   */\n      add\n        /* \"#utility.yul\":9164:9170   */\n      dup5\n        /* \"#utility.yul\":9107:9191   */\n      tag_174\n      jump\t// in\n    tag_313:\n        /* \"#utility.yul\":8950:9198   */\n      swap3\n      swap2\n      pop\n      pop\n      jump\t// out\n        /* \"#utility.yul\":9204:9372   */\n    tag_175:\n        /* \"#utility.yul\":9344:9364   */\n      0x496e76616c69642064756e67656f6e2049440000000000000000000000000000\n        /* \"#utility.yul\":9340:9341   */\n      0x00\n        /* \"#utility.yul\":9332:9338   */\n      dup3\n        /* \"#utility.yul\":9328:9342   */\n      add\n        /* \"#utility.yul\":9321:9365   */\n      mstore\n        /* \"#utility.yul\":9204:9372   */\n      pop\n      jump\t// out\n        /* \"#utility.yul\":9378:9744   */\n    tag_176:\n        /* \"#utility.yul\":9520:9523   */\n      0x00\n        /* \"#utility.yul\":9541:9608   */\n      tag_316\n        /* \"#utility.yul\":9605:9607   */\n      0x12\n        /* \"#utility.yul\":9600:9603   */\n      dup4\n        /* \"#utility.yul\":9541:9608   */\n      tag_148\n      jump\t// in\n    tag_316:\n        /* \"#utility.yul\":9534:9608   */\n      swap2\n      pop\n        /* \"#utility.yul\":9617:9710   */\n      tag_317\n        /* \"#utility.yul\":9706:9709   */\n      dup3\n        /* \"#utility.yul\":9617:9710   */\n      tag_175\n      jump\t// in\n    tag_317:\n        /* \"#utility.yul\":9735:9737   */\n      0x20\n        /* \"#utility.yul\":9730:9733   */\n      dup3\n        /* \"#utility.yul\":9726:9738   */\n      add\n        /* \"#utility.yul\":9719:9738   */\n      swap1\n      pop\n        /* \"#utility.yul\":9378:9744   */\n      swap2\n      swap1\n      pop\n      jump\t// out\n        /* \"#utility.yul\":9750:10169   */\n    tag_43:\n        /* \"#utility.yul\":9916:9920   */\n      0x00\n        /* \"#utility.yul\":9954:9956   */\n      0x20\n        /* \"#utility.yul\":9943:9952   */\n      dup3\n        /* \"#utility.yul\":9939:9957   */\n      add\n        /* \"#utility.yul\":9931:9957   */\n      swap1\n      pop\n        /* \"#utility.yul\":10003:10012   */\n      dup2\n        /* \"#utility.yul\":9997:10001   */\n      dup2\n        /* \"#utility.yul\":9993:10013   */\n      sub\n        /* \"#utility.yul\":9989:9990   */\n      0x00\n        /* \"#utility.yul\":9978:9987   */\n      dup4\n        /* \"#utility.yul\":9974:9991   */\n      add\n        /* \"#utility.yul\":9967:10014   */\n      mstore\n        /* \"#utility.yul\":10031:10162   */\n      tag_319\n        /* \"#utility.yul\":10157:10161   */\n      dup2\n        /* \"#utility.yul\":10031:10162   */\n      tag_176\n      jump\t// in\n    tag_319:\n        /* \"#utility.yul\":10023:10162   */\n      swap1\n      pop\n        /* \"#utility.yul\":9750:10169   */\n      swap2\n      swap1\n      pop\n      jump\t// out\n        /* \"#utility.yul\":10175:10355   */\n    tag_49:\n        /* \"#utility.yul\":10223:10300   */\n      0x4e487b7100000000000000000000000000000000000000000000000000000000\n        /* \"#utility.yul\":10220:10221   */\n      0x00\n        /* \"#utility.yul\":10213:10301   */\n      mstore\n        /* \"#utility.yul\":10320:10324   */\n      0x32\n        /* \"#utility.yul\":10317:10318   */\n      0x04\n        /* \"#utility.yul\":10310:10325   */\n      mstore\n        /* \"#utility.yul\":10344:10348   */\n      0x24\n        /* \"#utility.yul\":10341:10342   */\n      0x00\n        /* \"#utility.yul\":10334:10349   */\n      revert\n        /* \"#utility.yul\":10361:10535   */\n    tag_177:\n        /* \"#utility.yul\":10501:10527   */\n      0x44756e67656f6e206973206e6f7420636f6d706c657465640000000000000000\n        /* \"#utility.yul\":10497:10498   */\n      0x00\n        /* \"#utility.yul\":10489:10495   */\n      dup3\n        /* \"#utility.yul\":10485:10499   */\n      add\n        /* \"#utility.yul\":10478:10528   */\n      mstore\n        /* \"#utility.yul\":10361:10535   */\n      pop\n      jump\t// out\n        /* \"#utility.yul\":10541:10907   */\n    tag_178:\n        /* \"#utility.yul\":10683:10686   */\n      0x00\n        /* \"#utility.yul\":10704:10771   */\n      tag_323\n        /* \"#utility.yul\":10768:10770   */\n      0x18\n        /* \"#utility.yul\":10763:10766   */\n      dup4\n        /* \"#utility.yul\":10704:10771   */\n      tag_148\n      jump\t// in\n    tag_323:\n        /* \"#utility.yul\":10697:10771   */\n      swap2\n      pop\n        /* \"#utility.yul\":10780:10873   */\n      tag_324\n        /* \"#utility.yul\":10869:10872   */\n      dup3\n        /* \"#utility.yul\":10780:10873   */\n      tag_177\n      jump\t// in\n    tag_324:\n        /* \"#utility.yul\":10898:10900   */\n      0x20\n        /* \"#utility.yul\":10893:10896   */\n      dup3\n        /* \"#utility.yul\":10889:10901   */\n      add\n        /* \"#utility.yul\":10882:10901   */\n      swap1\n      pop\n        /* \"#utility.yul\":10541:10907   */\n      swap2\n      swap1\n      pop\n      jump\t// out\n        /* \"#utility.yul\":10913:11332   */\n    tag_55:\n        /* \"#utility.yul\":11079:11083   */\n      0x00\n        /* \"#utility.yul\":11117:11119   */\n      0x20\n        /* \"#utility.yul\":11106:11115   */\n      dup3\n        /* \"#utility.yul\":11102:11120   */\n      add\n        /* \"#utility.yul\":11094:11120   */\n      swap1\n      pop\n        /* \"#utility.yul\":11166:11175   */\n      dup2\n        /* \"#utility.yul\":11160:11164   */\n      dup2\n        /* \"#utility.yul\":11156:11176   */\n      sub\n        /* \"#utility.yul\":11152:11153   */\n      0x00\n        /* \"#utility.yul\":11141:11150   */\n      dup4\n        /* \"#utility.yul\":11137:11154   */\n      add\n        /* \"#utility.yul\":11130:11177   */\n      mstore\n        /* \"#utility.yul\":11194:11325   */\n      tag_326\n        /* \"#utility.yul\":11320:11324   */\n      dup2\n        /* \"#utility.yul\":11194:11325   */\n      tag_178\n      jump\t// in\n    tag_326:\n        /* \"#utility.yul\":11186:11325   */\n      swap1\n      pop\n        /* \"#utility.yul\":10913:11332   */\n      swap2\n      swap1\n      pop\n      jump\t// out\n        /* \"#utility.yul\":11338:11559   */\n    tag_179:\n        /* \"#utility.yul\":11478:11512   */\n      0x796f7520686176656e277420617474656d7074656420746869732064756e6765\n        /* \"#utility.yul\":11474:11475   */\n      0x00\n        /* \"#utility.yul\":11466:11472   */\n      dup3\n        /* \"#utility.yul\":11462:11476   */\n      add\n        /* \"#utility.yul\":11455:11513   */\n      mstore\n        /* \"#utility.yul\":11547:11551   */\n      0x6f6e000000000000000000000000000000000000000000000000000000000000\n        /* \"#utility.yul\":11542:11544   */\n      0x20\n        /* \"#utility.yul\":11534:11540   */\n      dup3\n        /* \"#utility.yul\":11530:11545   */\n      add\n        /* \"#utility.yul\":11523:11552   */\n      mstore\n        /* \"#utility.yul\":11338:11559   */\n      pop\n      jump\t// out\n        /* \"#utility.yul\":11565:11931   */\n    tag_180:\n        /* \"#utility.yul\":11707:11710   */\n      0x00\n        /* \"#utility.yul\":11728:11795   */\n      tag_329\n        /* \"#utility.yul\":11792:11794   */\n      0x22\n        /* \"#utility.yul\":11787:11790   */\n      dup4\n        /* \"#utility.yul\":11728:11795   */\n      tag_148\n      jump\t// in\n    tag_329:\n        /* \"#utility.yul\":11721:11795   */\n      swap2\n      pop\n        /* \"#utility.yul\":11804:11897   */\n      tag_330\n        /* \"#utility.yul\":11893:11896   */\n      dup3\n        /* \"#utility.yul\":11804:11897   */\n      tag_179\n      jump\t// in\n    tag_330:\n        /* \"#utility.yul\":11922:11924   */\n      0x40\n        /* \"#utility.yul\":11917:11920   */\n      dup3\n        /* \"#utility.yul\":11913:11925   */\n      add\n        /* \"#utility.yul\":11906:11925   */\n      swap1\n      pop\n        /* \"#utility.yul\":11565:11931   */\n      swap2\n      swap1\n      pop\n      jump\t// out\n        /* \"#utility.yul\":11937:12356   */\n    tag_58:\n        /* \"#utility.yul\":12103:12107   */\n      0x00\n        /* \"#utility.yul\":12141:12143   */\n      0x20\n        /* \"#utility.yul\":12130:12139   */\n      dup3\n        /* \"#utility.yul\":12126:12144   */\n      add\n        /* \"#utility.yul\":12118:12144   */\n      swap1\n      pop\n        /* \"#utility.yul\":12190:12199   */\n      dup2\n        /* \"#utility.yul\":12184:12188   */\n      dup2\n        /* \"#utility.yul\":12180:12200   */\n      sub\n        /* \"#utility.yul\":12176:12177   */\n      0x00\n        /* \"#utility.yul\":12165:12174   */\n      dup4\n        /* \"#utility.yul\":12161:12178   */\n      add\n        /* \"#utility.yul\":12154:12201   */\n      mstore\n        /* \"#utility.yul\":12218:12349   */\n      tag_332\n        /* \"#utility.yul\":12344:12348   */\n      dup2\n        /* \"#utility.yul\":12218:12349   */\n      tag_180\n      jump\t// in\n    tag_332:\n        /* \"#utility.yul\":12210:12349   */\n      swap1\n      pop\n        /* \"#utility.yul\":11937:12356   */\n      swap2\n      swap1\n      pop\n      jump\t// out\n        /* \"#utility.yul\":12362:12804   */\n    tag_70:\n        /* \"#utility.yul\":12511:12515   */\n      0x00\n        /* \"#utility.yul\":12549:12551   */\n      0x60\n        /* \"#utility.yul\":12538:12547   */\n      dup3\n        /* \"#utility.yul\":12534:12552   */\n      add\n        /* \"#utility.yul\":12526:12552   */\n      swap1\n      pop\n        /* \"#utility.yul\":12562:12633   */\n      tag_334\n        /* \"#utility.yul\":12630:12631   */\n      0x00\n        /* \"#utility.yul\":12619:12628   */\n      dup4\n        /* \"#utility.yul\":12615:12632   */\n      add\n        /* \"#utility.yul\":12606:12612   */\n      dup7\n        /* \"#utility.yul\":12562:12633   */\n      tag_158\n      jump\t// in\n    tag_334:\n        /* \"#utility.yul\":12643:12715   */\n      tag_335\n        /* \"#utility.yul\":12711:12713   */\n      0x20\n        /* \"#utility.yul\":12700:12709   */\n      dup4\n        /* \"#utility.yul\":12696:12714   */\n      add\n        /* \"#utility.yul\":12687:12693   */\n      dup6\n        /* \"#utility.yul\":12643:12715   */\n      tag_158\n      jump\t// in\n    tag_335:\n        /* \"#utility.yul\":12725:12797   */\n      tag_336\n        /* \"#utility.yul\":12793:12795   */\n      0x40\n        /* \"#utility.yul\":12782:12791   */\n      dup4\n        /* \"#utility.yul\":12778:12796   */\n      add\n        /* \"#utility.yul\":12769:12775   */\n      dup5\n        /* \"#utility.yul\":12725:12797   */\n      tag_146\n      jump\t// in\n    tag_336:\n        /* \"#utility.yul\":12362:12804   */\n      swap5\n      swap4\n      pop\n      pop\n      pop\n      pop\n      jump\t// out\n        /* \"#utility.yul\":12810:12900   */\n    tag_181:\n        /* \"#utility.yul\":12844:12851   */\n      0x00\n        /* \"#utility.yul\":12887:12892   */\n      dup2\n        /* \"#utility.yul\":12880:12893   */\n      iszero\n        /* \"#utility.yul\":12873:12894   */\n      iszero\n        /* \"#utility.yul\":12862:12894   */\n      swap1\n      pop\n        /* \"#utility.yul\":12810:12900   */\n      swap2\n      swap1\n      pop\n      jump\t// out\n        /* \"#utility.yul\":12906:13022   */\n    tag_182:\n        /* \"#utility.yul\":12976:12997   */\n      tag_339\n        /* \"#utility.yul\":12991:12996   */\n      dup2\n        /* \"#utility.yul\":12976:12997   */\n      tag_181\n      jump\t// in\n    tag_339:\n        /* \"#utility.yul\":12969:12974   */\n      dup2\n        /* \"#utility.yul\":12966:12998   */\n      eq\n        /* \"#utility.yul\":12956:13016   */\n      tag_340\n      jumpi\n        /* \"#utility.yul\":13012:13013   */\n      0x00\n        /* \"#utility.yul\":13009:13010   */\n      dup1\n        /* \"#utility.yul\":13002:13014   */\n      revert\n        /* \"#utility.yul\":12956:13016   */\n    tag_340:\n        /* \"#utility.yul\":12906:13022   */\n      pop\n      jump\t// out\n        /* \"#utility.yul\":13028:13165   */\n    tag_183:\n        /* \"#utility.yul\":13082:13087   */\n      0x00\n        /* \"#utility.yul\":13113:13119   */\n      dup2\n        /* \"#utility.yul\":13107:13120   */\n      mload\n        /* \"#utility.yul\":13098:13120   */\n      swap1\n      pop\n        /* \"#utility.yul\":13129:13159   */\n      tag_342\n        /* \"#utility.yul\":13153:13158   */\n      dup2\n        /* \"#utility.yul\":13129:13159   */\n      tag_182\n      jump\t// in\n    tag_342:\n        /* \"#utility.yul\":13028:13165   */\n      swap3\n      swap2\n      pop\n      pop\n      jump\t// out\n        /* \"#utility.yul\":13171:13516   */\n    tag_74:\n        /* \"#utility.yul\":13238:13244   */\n      0x00\n        /* \"#utility.yul\":13287:13289   */\n      0x20\n        /* \"#utility.yul\":13275:13284   */\n      dup3\n        /* \"#utility.yul\":13266:13273   */\n      dup5\n        /* \"#utility.yul\":13262:13285   */\n      sub\n        /* \"#utility.yul\":13258:13290   */\n      slt\n        /* \"#utility.yul\":13255:13374   */\n      iszero\n      tag_344\n      jumpi\n        /* \"#utility.yul\":13293:13372   */\n      tag_345\n      tag_141\n      jump\t// in\n    tag_345:\n        /* \"#utility.yul\":13255:13374   */\n    tag_344:\n        /* \"#utility.yul\":13413:13414   */\n      0x00\n        /* \"#utility.yul\":13438:13499   */\n      tag_346\n        /* \"#utility.yul\":13491:13498   */\n      dup5\n        /* \"#utility.yul\":13482:13488   */\n      dup3\n        /* \"#utility.yul\":13471:13480   */\n      dup6\n        /* \"#utility.yul\":13467:13489   */\n      add\n        /* \"#utility.yul\":13438:13499   */\n      tag_183\n      jump\t// in\n    tag_346:\n        /* \"#utility.yul\":13428:13499   */\n      swap2\n      pop\n        /* \"#utility.yul\":13384:13509   */\n      pop\n        /* \"#utility.yul\":13171:13516   */\n      swap3\n      swap2\n      pop\n      pop\n      jump\t// out\n        /* \"#utility.yul\":13522:13702   */\n    tag_184:\n        /* \"#utility.yul\":13570:13647   */\n      0x4e487b7100000000000000000000000000000000000000000000000000000000\n        /* \"#utility.yul\":13567:13568   */\n      0x00\n        /* \"#utility.yul\":13560:13648   */\n      mstore\n        /* \"#utility.yul\":13667:13671   */\n      0x22\n        /* \"#utility.yul\":13664:13665   */\n      0x04\n        /* \"#utility.yul\":13657:13672   */\n      mstore\n        /* \"#utility.yul\":13691:13695   */\n      0x24\n        /* \"#utility.yul\":13688:13689   */\n      0x00\n        /* \"#utility.yul\":13681:13696   */\n      revert\n        /* \"#utility.yul\":13708:14028   */\n    tag_78:\n        /* \"#utility.yul\":13752:13758   */\n      0x00\n        /* \"#utility.yul\":13789:13790   */\n      0x02\n        /* \"#utility.yul\":13783:13787   */\n      dup3\n        /* \"#utility.yul\":13779:13791   */\n      div\n        /* \"#utility.yul\":13769:13791   */\n      swap1\n      pop\n        /* \"#utility.yul\":13836:13837   */\n      0x01\n        /* \"#utility.yul\":13830:13834   */\n      dup3\n        /* \"#utility.yul\":13826:13838   */\n      and\n        /* \"#utility.yul\":13857:13875   */\n      dup1\n        /* \"#utility.yul\":13847:13928   */\n      tag_349\n      jumpi\n        /* \"#utility.yul\":13913:13917   */\n      0x7f\n        /* \"#utility.yul\":13905:13911   */\n      dup3\n        /* \"#utility.yul\":13901:13918   */\n      and\n        /* \"#utility.yul\":13891:13918   */\n      swap2\n      pop\n        /* \"#utility.yul\":13847:13928   */\n    tag_349:\n        /* \"#utility.yul\":13975:13977   */\n      0x20\n        /* \"#utility.yul\":13967:13973   */\n      dup3\n        /* \"#utility.yul\":13964:13978   */\n      lt\n        /* \"#utility.yul\":13944:13962   */\n      dup2\n        /* \"#utility.yul\":13941:13979   */\n      sub\n        /* \"#utility.yul\":13938:14022   */\n      tag_350\n      jumpi\n        /* \"#utility.yul\":13994:14012   */\n      tag_351\n      tag_184\n      jump\t// in\n    tag_351:\n        /* \"#utility.yul\":13938:14022   */\n    tag_350:\n        /* \"#utility.yul\":13759:14028   */\n      pop\n        /* \"#utility.yul\":13708:14028   */\n      swap2\n      swap1\n      pop\n      jump\t// out\n        /* \"#utility.yul\":14034:14213   */\n    tag_185:\n        /* \"#utility.yul\":14174:14205   */\n      0x526577617264206d7573742062652067726561746572207468616e2030000000\n        /* \"#utility.yul\":14170:14171   */\n      0x00\n        /* \"#utility.yul\":14162:14168   */\n      dup3\n        /* \"#utility.yul\":14158:14172   */\n      add\n        /* \"#utility.yul\":14151:14206   */\n      mstore\n        /* \"#utility.yul\":14034:14213   */\n      pop\n      jump\t// out\n        /* \"#utility.yul\":14219:14585   */\n    tag_186:\n        /* \"#utility.yul\":14361:14364   */\n      0x00\n        /* \"#utility.yul\":14382:14449   */\n      tag_354\n        /* \"#utility.yul\":14446:14448   */\n      0x1d\n        /* \"#utility.yul\":14441:14444   */\n      dup4\n        /* \"#utility.yul\":14382:14449   */\n      tag_148\n      jump\t// in\n    tag_354:\n        /* \"#utility.yul\":14375:14449   */\n      swap2\n      pop\n        /* \"#utility.yul\":14458:14551   */\n      tag_355\n        /* \"#utility.yul\":14547:14550   */\n      dup3\n        /* \"#utility.yul\":14458:14551   */\n      tag_185\n      jump\t// in\n    tag_355:\n        /* \"#utility.yul\":14576:14578   */\n      0x20\n        /* \"#utility.yul\":14571:14574   */\n      dup3\n        /* \"#utility.yul\":14567:14579   */\n      add\n        /* \"#utility.yul\":14560:14579   */\n      swap1\n      pop\n        /* \"#utility.yul\":14219:14585   */\n      swap2\n      swap1\n      pop\n      jump\t// out\n        /* \"#utility.yul\":14591:15010   */\n    tag_86:\n        /* \"#utility.yul\":14757:14761   */\n      0x00\n        /* \"#utility.yul\":14795:14797   */\n      0x20\n        /* \"#utility.yul\":14784:14793   */\n      dup3\n        /* \"#utility.yul\":14780:14798   */\n      add\n        /* \"#utility.yul\":14772:14798   */\n      swap1\n      pop\n        /* \"#utility.yul\":14844:14853   */\n      dup2\n        /* \"#utility.yul\":14838:14842   */\n      dup2\n        /* \"#utility.yul\":14834:14854   */\n      sub\n        /* \"#utility.yul\":14830:14831   */\n      0x00\n        /* \"#utility.yul\":14819:14828   */\n      dup4\n        /* \"#utility.yul\":14815:14832   */\n      add\n        /* \"#utility.yul\":14808:14855   */\n      mstore\n        /* \"#utility.yul\":14872:15003   */\n      tag_357\n        /* \"#utility.yul\":14998:15002   */\n      dup2\n        /* \"#utility.yul\":14872:15003   */\n      tag_186\n      jump\t// in\n    tag_357:\n        /* \"#utility.yul\":14864:15003   */\n      swap1\n      pop\n        /* \"#utility.yul\":14591:15010   */\n      swap2\n      swap1\n      pop\n      jump\t// out\n        /* \"#utility.yul\":15016:15238   */\n    tag_88:\n        /* \"#utility.yul\":15109:15113   */\n      0x00\n        /* \"#utility.yul\":15147:15149   */\n      0x20\n        /* \"#utility.yul\":15136:15145   */\n      dup3\n        /* \"#utility.yul\":15132:15150   */\n      add\n        /* \"#utility.yul\":15124:15150   */\n      swap1\n      pop\n        /* \"#utility.yul\":15160:15231   */\n      tag_359\n        /* \"#utility.yul\":15228:15229   */\n      0x00\n        /* \"#utility.yul\":15217:15226   */\n      dup4\n        /* \"#utility.yul\":15213:15230   */\n      add\n        /* \"#utility.yul\":15204:15210   */\n      dup5\n        /* \"#utility.yul\":15160:15231   */\n      tag_158\n      jump\t// in\n    tag_359:\n        /* \"#utility.yul\":15016:15238   */\n      swap3\n      swap2\n      pop\n      pop\n      jump\t// out\n        /* \"#utility.yul\":15244:15387   */\n    tag_187:\n        /* \"#utility.yul\":15301:15306   */\n      0x00\n        /* \"#utility.yul\":15332:15338   */\n      dup2\n        /* \"#utility.yul\":15326:15339   */\n      mload\n        /* \"#utility.yul\":15317:15339   */\n      swap1\n      pop\n        /* \"#utility.yul\":15348:15381   */\n      tag_361\n        /* \"#utility.yul\":15375:15380   */\n      dup2\n        /* \"#utility.yul\":15348:15381   */\n      tag_144\n      jump\t// in\n    tag_361:\n        /* \"#utility.yul\":15244:15387   */\n      swap3\n      swap2\n      pop\n      pop\n      jump\t// out\n        /* \"#utility.yul\":15393:15744   */\n    tag_92:\n        /* \"#utility.yul\":15463:15469   */\n      0x00\n        /* \"#utility.yul\":15512:15514   */\n      0x20\n        /* \"#utility.yul\":15500:15509   */\n      dup3\n        /* \"#utility.yul\":15491:15498   */\n      dup5\n        /* \"#utility.yul\":15487:15510   */\n      sub\n        /* \"#utility.yul\":15483:15515   */\n      slt\n        /* \"#utility.yul\":15480:15599   */\n      iszero\n      tag_363\n      jumpi\n        /* \"#utility.yul\":15518:15597   */\n      tag_364\n      tag_141\n      jump\t// in\n    tag_364:\n        /* \"#utility.yul\":15480:15599   */\n    tag_363:\n        /* \"#utility.yul\":15638:15639   */\n      0x00\n        /* \"#utility.yul\":15663:15727   */\n      tag_365\n        /* \"#utility.yul\":15719:15726   */\n      dup5\n        /* \"#utility.yul\":15710:15716   */\n      dup3\n        /* \"#utility.yul\":15699:15708   */\n      dup6\n        /* \"#utility.yul\":15695:15717   */\n      add\n        /* \"#utility.yul\":15663:15727   */\n      tag_187\n      jump\t// in\n    tag_365:\n        /* \"#utility.yul\":15653:15727   */\n      swap2\n      pop\n        /* \"#utility.yul\":15609:15737   */\n      pop\n        /* \"#utility.yul\":15393:15744   */\n      swap3\n      swap2\n      pop\n      pop\n      jump\t// out\n        /* \"#utility.yul\":15750:15926   */\n    tag_188:\n        /* \"#utility.yul\":15890:15918   */\n      0x496e73756666696369656e7420746f6b656e2062616c616e6365000000000000\n        /* \"#utility.yul\":15886:15887   */\n      0x00\n        /* \"#utility.yul\":15878:15884   */\n      dup3\n        /* \"#utility.yul\":15874:15888   */\n      add\n        /* \"#utility.yul\":15867:15919   */\n      mstore\n        /* \"#utility.yul\":15750:15926   */\n      pop\n      jump\t// out\n        /* \"#utility.yul\":15932:16298   */\n    tag_189:\n        /* \"#utility.yul\":16074:16077   */\n      0x00\n        /* \"#utility.yul\":16095:16162   */\n      tag_368\n        /* \"#utility.yul\":16159:16161   */\n      0x1a\n        /* \"#utility.yul\":16154:16157   */\n      dup4\n        /* \"#utility.yul\":16095:16162   */\n      tag_148\n      jump\t// in\n    tag_368:\n        /* \"#utility.yul\":16088:16162   */\n      swap2\n      pop\n        /* \"#utility.yul\":16171:16264   */\n      tag_369\n        /* \"#utility.yul\":16260:16263   */\n      dup3\n        /* \"#utility.yul\":16171:16264   */\n      tag_188\n      jump\t// in\n    tag_369:\n        /* \"#utility.yul\":16289:16291   */\n      0x20\n        /* \"#utility.yul\":16284:16287   */\n      dup3\n        /* \"#utility.yul\":16280:16292   */\n      add\n        /* \"#utility.yul\":16273:16292   */\n      swap1\n      pop\n        /* \"#utility.yul\":15932:16298   */\n      swap2\n      swap1\n      pop\n      jump\t// out\n        /* \"#utility.yul\":16304:16723   */\n    tag_95:\n        /* \"#utility.yul\":16470:16474   */\n      0x00\n        /* \"#utility.yul\":16508:16510   */\n      0x20\n        /* \"#utility.yul\":16497:16506   */\n      dup3\n        /* \"#utility.yul\":16493:16511   */\n      add\n        /* \"#utility.yul\":16485:16511   */\n      swap1\n      pop\n        /* \"#utility.yul\":16557:16566   */\n      dup2\n        /* \"#utility.yul\":16551:16555   */\n      dup2\n        /* \"#utility.yul\":16547:16567   */\n      sub\n        /* \"#utility.yul\":16543:16544   */\n      0x00\n        /* \"#utility.yul\":16532:16541   */\n      dup4\n        /* \"#utility.yul\":16528:16545   */\n      add\n        /* \"#utility.yul\":16521:16568   */\n      mstore\n        /* \"#utility.yul\":16585:16716   */\n      tag_371\n        /* \"#utility.yul\":16711:16715   */\n      dup2\n        /* \"#utility.yul\":16585:16716   */\n      tag_189\n      jump\t// in\n    tag_371:\n        /* \"#utility.yul\":16577:16716   */\n      swap1\n      pop\n        /* \"#utility.yul\":16304:16723   */\n      swap2\n      swap1\n      pop\n      jump\t// out\n        /* \"#utility.yul\":16729:16870   */\n    tag_190:\n        /* \"#utility.yul\":16778:16782   */\n      0x00\n        /* \"#utility.yul\":16801:16804   */\n      dup2\n        /* \"#utility.yul\":16793:16804   */\n      swap1\n      pop\n        /* \"#utility.yul\":16824:16827   */\n      dup2\n        /* \"#utility.yul\":16821:16822   */\n      0x00\n        /* \"#utility.yul\":16814:16828   */\n      mstore\n        /* \"#utility.yul\":16858:16862   */\n      0x20\n        /* \"#utility.yul\":16855:16856   */\n      0x00\n        /* \"#utility.yul\":16845:16863   */\n      keccak256\n        /* \"#utility.yul\":16837:16863   */\n      swap1\n      pop\n        /* \"#utility.yul\":16729:16870   */\n      swap2\n      swap1\n      pop\n      jump\t// out\n        /* \"#utility.yul\":16876:16969   */\n    tag_191:\n        /* \"#utility.yul\":16913:16919   */\n      0x00\n        /* \"#utility.yul\":16960:16962   */\n      0x20\n        /* \"#utility.yul\":16955:16957   */\n      0x1f\n        /* \"#utility.yul\":16948:16953   */\n      dup4\n        /* \"#utility.yul\":16944:16958   */\n      add\n        /* \"#utility.yul\":16940:16963   */\n      div\n        /* \"#utility.yul\":16930:16963   */\n      swap1\n      pop\n        /* \"#utility.yul\":16876:16969   */\n      swap2\n      swap1\n      pop\n      jump\t// out\n        /* \"#utility.yul\":16975:17082   */\n    tag_192:\n        /* \"#utility.yul\":17019:17027   */\n      0x00\n        /* \"#utility.yul\":17069:17074   */\n      dup3\n        /* \"#utility.yul\":17063:17067   */\n      dup3\n        /* \"#utility.yul\":17059:17075   */\n      shl\n        /* \"#utility.yul\":17038:17075   */\n      swap1\n      pop\n        /* \"#utility.yul\":16975:17082   */\n      swap3\n      swap2\n      pop\n      pop\n      jump\t// out\n        /* \"#utility.yul\":17088:17481   */\n    tag_193:\n        /* \"#utility.yul\":17157:17163   */\n      0x00\n        /* \"#utility.yul\":17207:17208   */\n      0x08\n        /* \"#utility.yul\":17195:17205   */\n      dup4\n        /* \"#utility.yul\":17191:17209   */\n      mul\n        /* \"#utility.yul\":17230:17327   */\n      tag_376\n        /* \"#utility.yul\":17260:17326   */\n      0xffffffffffffffffffffffffffffffffffffffffffffffffffffffffffffffff\n        /* \"#utility.yul\":17249:17258   */\n      dup3\n        /* \"#utility.yul\":17230:17327   */\n      tag_192\n      jump\t// in\n    tag_376:\n        /* \"#utility.yul\":17348:17387   */\n      tag_377\n        /* \"#utility.yul\":17378:17386   */\n      dup7\n        /* \"#utility.yul\":17367:17376   */\n      dup4\n        /* \"#utility.yul\":17348:17387   */\n      tag_192\n      jump\t// in\n    tag_377:\n        /* \"#utility.yul\":17336:17387   */\n      swap6\n      pop\n        /* \"#utility.yul\":17420:17424   */\n      dup1\n        /* \"#utility.yul\":17416:17425   */\n      not\n        /* \"#utility.yul\":17409:17414   */\n      dup5\n        /* \"#utility.yul\":17405:17426   */\n      and\n        /* \"#utility.yul\":17396:17426   */\n      swap4\n      pop\n        /* \"#utility.yul\":17469:17473   */\n      dup1\n        /* \"#utility.yul\":17459:17467   */\n      dup7\n        /* \"#utility.yul\":17455:17474   */\n      and\n        /* \"#utility.yul\":17448:17453   */\n      dup5\n        /* \"#utility.yul\":17445:17475   */\n      or\n        /* \"#utility.yul\":17435:17475   */\n      swap3\n      pop\n        /* \"#utility.yul\":17164:17481   */\n      pop\n      pop\n        /* \"#utility.yul\":17088:17481   */\n      swap4\n      swap3\n      pop\n      pop\n      pop\n      jump\t// out\n        /* \"#utility.yul\":17487:17629   */\n    tag_194:\n        /* \"#utility.yul\":17537:17546   */\n      0x00\n        /* \"#utility.yul\":17570:17623   */\n      tag_379\n        /* \"#utility.yul\":17588:17622   */\n      tag_380\n        /* \"#utility.yul\":17597:17621   */\n      tag_381\n        /* \"#utility.yul\":17615:17620   */\n      dup5\n        /* \"#utility.yul\":17597:17621   */\n      tag_143\n      jump\t// in\n    tag_381:\n        /* \"#utility.yul\":17588:17622   */\n      tag_168\n      jump\t// in\n    tag_380:\n        /* \"#utility.yul\":17570:17623   */\n      tag_143\n      jump\t// in\n    tag_379:\n        /* \"#utility.yul\":17557:17623   */\n      swap1\n      pop\n        /* \"#utility.yul\":17487:17629   */\n      swap2\n      swap1\n      pop\n      jump\t// out\n        /* \"#utility.yul\":17635:17710   */\n    tag_195:\n        /* \"#utility.yul\":17678:17681   */\n      0x00\n        /* \"#utility.yul\":17699:17704   */\n      dup2\n        /* \"#utility.yul\":17692:17704   */\n      swap1\n      pop\n        /* \"#utility.yul\":17635:17710   */\n      swap2\n      swap1\n      pop\n      jump\t// out\n        /* \"#utility.yul\":17716:17985   */\n    tag_196:\n        /* \"#utility.yul\":17826:17865   */\n      tag_384\n        /* \"#utility.yul\":17857:17864   */\n      dup4\n        /* \"#utility.yul\":17826:17865   */\n      tag_194\n      jump\t// in\n    tag_384:\n        /* \"#utility.yul\":17887:17978   */\n      tag_385\n        /* \"#utility.yul\":17936:17977   */\n      tag_386\n        /* \"#utility.yul\":17960:17976   */\n      dup3\n        /* \"#utility.yul\":17936:17977   */\n      tag_195\n      jump\t// in\n    tag_386:\n        /* \"#utility.yul\":17928:17934   */\n      dup5\n        /* \"#utility.yul\":17921:17925   */\n      dup5\n        /* \"#utility.yul\":17915:17926   */\n      sload\n        /* \"#utility.yul\":17887:17978   */\n      tag_193\n      jump\t// in\n    tag_385:\n        /* \"#utility.yul\":17881:17885   */\n      dup3\n        /* \"#utility.yul\":17874:17979   */\n      sstore\n        /* \"#utility.yul\":17792:17985   */\n      pop\n        /* \"#utility.yul\":17716:17985   */\n      pop\n      pop\n      pop\n      jump\t// out\n        /* \"#utility.yul\":17991:18064   */\n    tag_197:\n        /* \"#utility.yul\":18036:18039   */\n      0x00\n        /* \"#utility.yul\":17991:18064   */\n      swap1\n      jump\t// out\n        /* \"#utility.yul\":18070:18259   */\n    tag_198:\n        /* \"#utility.yul\":18147:18179   */\n      tag_389\n      tag_197\n      jump\t// in\n    tag_389:\n        /* \"#utility.yul\":18188:18253   */\n      tag_390\n        /* \"#utility.yul\":18246:18252   */\n      dup2\n        /* \"#utility.yul\":18238:18244   */\n      dup5\n        /* \"#utility.yul\":18232:18236   */\n      dup5\n        /* \"#utility.yul\":18188:18253   */\n      tag_196\n      jump\t// in\n    tag_390:\n        /* \"#utility.yul\":18123:18259   */\n      pop\n        /* \"#utility.yul\":18070:18259   */\n      pop\n      pop\n      jump\t// out\n        /* \"#utility.yul\":18265:18451   */\n    tag_199:\n        /* \"#utility.yul\":18325:18445   */\n    tag_392:\n        /* \"#utility.yul\":18342:18345   */\n      dup2\n        /* \"#utility.yul\":18335:18340   */\n      dup2\n        /* \"#utility.yul\":18332:18346   */\n      lt\n        /* \"#utility.yul\":18325:18445   */\n      iszero\n      tag_394\n      jumpi\n        /* \"#utility.yul\":18396:18435   */\n      tag_395\n        /* \"#utility.yul\":18433:18434   */\n      0x00\n        /* \"#utility.yul\":18426:18431   */\n      dup3\n        /* \"#utility.yul\":18396:18435   */\n      tag_198\n      jump\t// in\n    tag_395:\n        /* \"#utility.yul\":18369:18370   */\n      0x01\n        /* \"#utility.yul\":18362:18367   */\n      dup2\n        /* \"#utility.yul\":18358:18371   */\n      add\n        /* \"#utility.yul\":18349:18371   */\n      swap1\n      pop\n        /* \"#utility.yul\":18325:18445   */\n      jump(tag_392)\n    tag_394:\n        /* \"#utility.yul\":18265:18451   */\n      pop\n      pop\n      jump\t// out\n        /* \"#utility.yul\":18457:19000   */\n    tag_200:\n        /* \"#utility.yul\":18558:18560   */\n      0x1f\n        /* \"#utility.yul\":18553:18556   */\n      dup3\n        /* \"#utility.yul\":18550:18561   */\n      gt\n        /* \"#utility.yul\":18547:18993   */\n      iszero\n      tag_397\n      jumpi\n        /* \"#utility.yul\":18592:18630   */\n      tag_398\n        /* \"#utility.yul\":18624:18629   */\n      dup2\n        /* \"#utility.yul\":18592:18630   */\n      tag_190\n      jump\t// in\n    tag_398:\n        /* \"#utility.yul\":18676:18705   */\n      tag_399\n        /* \"#utility.yul\":18694:18704   */\n      dup5\n        /* \"#utility.yul\":18676:18705   */\n      tag_191\n      jump\t// in\n    tag_399:\n        /* \"#utility.yul\":18666:18674   */\n      dup2\n        /* \"#utility.yul\":18662:18706   */\n      add\n        /* \"#utility.yul\":18859:18861   */\n      0x20\n        /* \"#utility.yul\":18847:18857   */\n      dup6\n        /* \"#utility.yul\":18844:18862   */\n      lt\n        /* \"#utility.yul\":18841:18890   */\n      iszero\n      tag_400\n      jumpi\n        /* \"#utility.yul\":18880:18888   */\n      dup2\n        /* \"#utility.yul\":18865:18888   */\n      swap1\n      pop\n        /* \"#utility.yul\":18841:18890   */\n    tag_400:\n        /* \"#utility.yul\":18903:18983   */\n      tag_401\n        /* \"#utility.yul\":18959:18981   */\n      tag_402\n        /* \"#utility.yul\":18977:18980   */\n      dup6\n        /* \"#utility.yul\":18959:18981   */\n      tag_191\n      jump\t// in\n    tag_402:\n        /* \"#utility.yul\":18949:18957   */\n      dup4\n        /* \"#utility.yul\":18945:18982   */\n      add\n        /* \"#utility.yul\":18932:18943   */\n      dup3\n        /* \"#utility.yul\":18903:18983   */\n      tag_199\n      jump\t// in\n    tag_401:\n        /* \"#utility.yul\":18562:18993   */\n      pop\n      pop\n        /* \"#utility.yul\":18547:18993   */\n    tag_397:\n        /* \"#utility.yul\":18457:19000   */\n      pop\n      pop\n      pop\n      jump\t// out\n        /* \"#utility.yul\":19006:19123   */\n    tag_201:\n        /* \"#utility.yul\":19060:19068   */\n      0x00\n        /* \"#utility.yul\":19110:19115   */\n      dup3\n        /* \"#utility.yul\":19104:19108   */\n      dup3\n        /* \"#utility.yul\":19100:19116   */\n      shr\n        /* \"#utility.yul\":19079:19116   */\n      swap1\n      pop\n        /* \"#utility.yul\":19006:19123   */\n      swap3\n      swap2\n      pop\n      pop\n      jump\t// out\n        /* \"#utility.yul\":19129:19298   */\n    tag_202:\n        /* \"#utility.yul\":19173:19179   */\n      0x00\n        /* \"#utility.yul\":19206:19257   */\n      tag_405\n        /* \"#utility.yul\":19254:19255   */\n      0x00\n        /* \"#utility.yul\":19250:19256   */\n      not\n        /* \"#utility.yul\":19242:19247   */\n      dup5\n        /* \"#utility.yul\":19239:19240   */\n      0x08\n        /* \"#utility.yul\":19235:19248   */\n      mul\n        /* \"#utility.yul\":19206:19257   */\n      tag_201\n      jump\t// in\n    tag_405:\n        /* \"#utility.yul\":19202:19258   */\n      not\n        /* \"#utility.yul\":19287:19291   */\n      dup1\n        /* \"#utility.yul\":19281:19285   */\n      dup4\n        /* \"#utility.yul\":19277:19292   */\n      and\n        /* \"#utility.yul\":19267:19292   */\n      swap2\n      pop\n        /* \"#utility.yul\":19180:19298   */\n      pop\n        /* \"#utility.yul\":19129:19298   */\n      swap3\n      swap2\n      pop\n      pop\n      jump\t// out\n        /* \"#utility.yul\":19303:19598   */\n    tag_203:\n        /* \"#utility.yul\":19379:19383   */\n      0x00\n        /* \"#utility.yul\":19525:19554   */\n      tag_407\n        /* \"#utility.yul\":19550:19553   */\n      dup4\n        /* \"#utility.yul\":19544:19548   */\n      dup4\n        /* \"#utility.yul\":19525:19554   */\n      tag_202\n      jump\t// in\n    tag_407:\n        /* \"#utility.yul\":19517:19554   */\n      swap2\n      pop\n        /* \"#utility.yul\":19587:19590   */\n      dup3\n        /* \"#utility.yul\":19584:19585   */\n      0x02\n        /* \"#utility.yul\":19580:19591   */\n      mul\n        /* \"#utility.yul\":19574:19578   */\n      dup3\n        /* \"#utility.yul\":19571:19592   */\n      or\n        /* \"#utility.yul\":19563:19592   */\n      swap1\n      pop\n        /* \"#utility.yul\":19303:19598   */\n      swap3\n      swap2\n      pop\n      pop\n      jump\t// out\n        /* \"#utility.yul\":19603:20998   */\n    tag_100:\n        /* \"#utility.yul\":19720:19757   */\n      tag_409\n        /* \"#utility.yul\":19753:19756   */\n      dup3\n        /* \"#utility.yul\":19720:19757   */\n      tag_147\n      jump\t// in\n    tag_409:\n        /* \"#utility.yul\":19822:19840   */\n      0xffffffffffffffff\n        /* \"#utility.yul\":19814:19820   */\n      dup2\n        /* \"#utility.yul\":19811:19841   */\n      gt\n        /* \"#utility.yul\":19808:19864   */\n      iszero\n      tag_410\n      jumpi\n        /* \"#utility.yul\":19844:19862   */\n      tag_411\n      tag_161\n      jump\t// in\n    tag_411:\n        /* \"#utility.yul\":19808:19864   */\n    tag_410:\n        /* \"#utility.yul\":19888:19926   */\n      tag_412\n        /* \"#utility.yul\":19920:19924   */\n      dup3\n        /* \"#utility.yul\":19914:19925   */\n      sload\n        /* \"#utility.yul\":19888:19926   */\n      tag_78\n      jump\t// in\n    tag_412:\n        /* \"#utility.yul\":19973:20040   */\n      tag_413\n        /* \"#utility.yul\":20033:20039   */\n      dup3\n        /* \"#utility.yul\":20025:20031   */\n      dup3\n        /* \"#utility.yul\":20019:20023   */\n      dup6\n        /* \"#utility.yul\":19973:20040   */\n      tag_200\n      jump\t// in\n    tag_413:\n        /* \"#utility.yul\":20067:20068   */\n      0x00\n        /* \"#utility.yul\":20091:20095   */\n      0x20\n        /* \"#utility.yul\":20078:20095   */\n      swap1\n      pop\n        /* \"#utility.yul\":20123:20125   */\n      0x1f\n        /* \"#utility.yul\":20115:20121   */\n      dup4\n        /* \"#utility.yul\":20112:20126   */\n      gt\n        /* \"#utility.yul\":20140:20141   */\n      0x01\n        /* \"#utility.yul\":20135:20753   */\n      dup2\n      eq\n      tag_415\n      jumpi\n        /* \"#utility.yul\":20797:20798   */\n      0x00\n        /* \"#utility.yul\":20814:20820   */\n      dup5\n        /* \"#utility.yul\":20811:20888   */\n      iszero\n      tag_416\n      jumpi\n        /* \"#utility.yul\":20863:20872   */\n      dup3\n        /* \"#utility.yul\":20858:20861   */\n      dup8\n        /* \"#utility.yul\":20854:20873   */\n      add\n        /* \"#utility.yul\":20848:20874   */\n      mload\n        /* \"#utility.yul\":20839:20874   */\n      swap1\n      pop\n        /* \"#utility.yul\":20811:20888   */\n    tag_416:\n        /* \"#utility.yul\":20914:20981   */\n      tag_417\n        /* \"#utility.yul\":20974:20980   */\n      dup6\n        /* \"#utility.yul\":20967:20972   */\n      dup3\n        /* \"#utility.yul\":20914:20981   */\n      tag_203\n      jump\t// in\n    tag_417:\n        /* \"#utility.yul\":20908:20912   */\n      dup7\n        /* \"#utility.yul\":20901:20982   */\n      sstore\n        /* \"#utility.yul\":20770:20992   */\n      pop\n        /* \"#utility.yul\":20105:20992   */\n      jump(tag_414)\n        /* \"#utility.yul\":20135:20753   */\n    tag_415:\n        /* \"#utility.yul\":20187:20191   */\n      0x1f\n        /* \"#utility.yul\":20183:20192   */\n      not\n        /* \"#utility.yul\":20175:20181   */\n      dup5\n        /* \"#utility.yul\":20171:20193   */\n      and\n        /* \"#utility.yul\":20221:20258   */\n      tag_418\n        /* \"#utility.yul\":20253:20257   */\n      dup7\n        /* \"#utility.yul\":20221:20258   */\n      tag_190\n      jump\t// in\n    tag_418:\n        /* \"#utility.yul\":20280:20281   */\n      0x00\n        /* \"#utility.yul\":20294:20502   */\n    tag_419:\n        /* \"#utility.yul\":20308:20315   */\n      dup3\n        /* \"#utility.yul\":20305:20306   */\n      dup2\n        /* \"#utility.yul\":20302:20316   */\n      lt\n        /* \"#utility.yul\":20294:20502   */\n      iszero\n      tag_421\n      jumpi\n        /* \"#utility.yul\":20387:20396   */\n      dup5\n        /* \"#utility.yul\":20382:20385   */\n      dup10\n        /* \"#utility.yul\":20378:20397   */\n      add\n        /* \"#utility.yul\":20372:20398   */\n      mload\n        /* \"#utility.yul\":20364:20370   */\n      dup3\n        /* \"#utility.yul\":20357:20399   */\n      sstore\n        /* \"#utility.yul\":20438:20439   */\n      0x01\n        /* \"#utility.yul\":20430:20436   */\n      dup3\n        /* \"#utility.yul\":20426:20440   */\n      add\n        /* \"#utility.yul\":20416:20440   */\n      swap2\n      pop\n        /* \"#utility.yul\":20485:20487   */\n      0x20\n        /* \"#utility.yul\":20474:20483   */\n      dup6\n        /* \"#utility.yul\":20470:20488   */\n      add\n        /* \"#utility.yul\":20457:20488   */\n      swap5\n      pop\n        /* \"#utility.yul\":20331:20335   */\n      0x20\n        /* \"#utility.yul\":20328:20329   */\n      dup2\n        /* \"#utility.yul\":20324:20336   */\n      add\n        /* \"#utility.yul\":20319:20336   */\n      swap1\n      pop\n        /* \"#utility.yul\":20294:20502   */\n      jump(tag_419)\n    tag_421:\n        /* \"#utility.yul\":20530:20536   */\n      dup7\n        /* \"#utility.yul\":20521:20528   */\n      dup4\n        /* \"#utility.yul\":20518:20537   */\n      lt\n        /* \"#utility.yul\":20515:20694   */\n      iszero\n      tag_422\n      jumpi\n        /* \"#utility.yul\":20588:20597   */\n      dup5\n        /* \"#utility.yul\":20583:20586   */\n      dup10\n        /* \"#utility.yul\":20579:20598   */\n      add\n        /* \"#utility.yul\":20573:20599   */\n      mload\n        /* \"#utility.yul\":20631:20679   */\n      tag_423\n        /* \"#utility.yul\":20673:20677   */\n      0x1f\n        /* \"#utility.yul\":20665:20671   */\n      dup10\n        /* \"#utility.yul\":20661:20678   */\n      and\n        /* \"#utility.yul\":20650:20659   */\n      dup3\n        /* \"#utility.yul\":20631:20679   */\n      tag_202\n      jump\t// in\n    tag_423:\n        /* \"#utility.yul\":20623:20629   */\n      dup4\n        /* \"#utility.yul\":20616:20680   */\n      sstore\n        /* \"#utility.yul\":20538:20694   */\n      pop\n        /* \"#utility.yul\":20515:20694   */\n    tag_422:\n        /* \"#utility.yul\":20740:20741   */\n      0x01\n        /* \"#utility.yul\":20736:20737   */\n      0x02\n        /* \"#utility.yul\":20728:20734   */\n      dup9\n        /* \"#utility.yul\":20724:20738   */\n      mul\n        /* \"#utility.yul\":20720:20742   */\n      add\n        /* \"#utility.yul\":20714:20718   */\n      dup9\n        /* \"#utility.yul\":20707:20743   */\n      sstore\n        /* \"#utility.yul\":20142:20753   */\n      pop\n      pop\n      pop\n        /* \"#utility.yul\":20105:20992   */\n    tag_414:\n      pop\n        /* \"#utility.yul\":19695:20998   */\n      pop\n      pop\n      pop\n        /* \"#utility.yul\":19603:20998   */\n      pop\n      pop\n      jump\t// out\n        /* \"#utility.yul\":21004:21336   */\n    tag_104:\n        /* \"#utility.yul\":21125:21129   */\n      0x00\n        /* \"#utility.yul\":21163:21165   */\n      0x40\n        /* \"#utility.yul\":21152:21161   */\n      dup3\n        /* \"#utility.yul\":21148:21166   */\n      add\n        /* \"#utility.yul\":21140:21166   */\n      swap1\n      pop\n        /* \"#utility.yul\":21176:21247   */\n      tag_425\n        /* \"#utility.yul\":21244:21245   */\n      0x00\n        /* \"#utility.yul\":21233:21242   */\n      dup4\n        /* \"#utility.yul\":21229:21246   */\n      add\n        /* \"#utility.yul\":21220:21226   */\n      dup6\n        /* \"#utility.yul\":21176:21247   */\n      tag_158\n      jump\t// in\n    tag_425:\n        /* \"#utility.yul\":21257:21329   */\n      tag_426\n        /* \"#utility.yul\":21325:21327   */\n      0x20\n        /* \"#utility.yul\":21314:21323   */\n      dup4\n        /* \"#utility.yul\":21310:21328   */\n      add\n        /* \"#utility.yul\":21301:21307   */\n      dup5\n        /* \"#utility.yul\":21257:21329   */\n      tag_146\n      jump\t// in\n    tag_426:\n        /* \"#utility.yul\":21004:21336   */\n      swap4\n      swap3\n      pop\n      pop\n      pop\n      jump\t// out\n        /* \"#utility.yul\":21342:21520   */\n    tag_204:\n        /* \"#utility.yul\":21482:21512   */\n      0x44756e67656f6e20697320616c726561647920636f6d706c6574656400000000\n        /* \"#utility.yul\":21478:21479   */\n      0x00\n        /* \"#utility.yul\":21470:21476   */\n      dup3\n        /* \"#utility.yul\":21466:21480   */\n      add\n        /* \"#utility.yul\":21459:21513   */\n      mstore\n        /* \"#utility.yul\":21342:21520   */\n      pop\n      jump\t// out\n        /* \"#utility.yul\":21526:21892   */\n    tag_205:\n        /* \"#utility.yul\":21668:21671   */\n      0x00\n        /* \"#utility.yul\":21689:21756   */\n      tag_429\n        /* \"#utility.yul\":21753:21755   */\n      0x1c\n        /* \"#utility.yul\":21748:21751   */\n      dup4\n        /* \"#utility.yul\":21689:21756   */\n      tag_148\n      jump\t// in\n    tag_429:\n        /* \"#utility.yul\":21682:21756   */\n      swap2\n      pop\n        /* \"#utility.yul\":21765:21858   */\n      tag_430\n        /* \"#utility.yul\":21854:21857   */\n      dup3\n        /* \"#utility.yul\":21765:21858   */\n      tag_204\n      jump\t// in\n    tag_430:\n        /* \"#utility.yul\":21883:21885   */\n      0x20\n        /* \"#utility.yul\":21878:21881   */\n      dup3\n        /* \"#utility.yul\":21874:21886   */\n      add\n        /* \"#utility.yul\":21867:21886   */\n      swap1\n      pop\n        /* \"#utility.yul\":21526:21892   */\n      swap2\n      swap1\n      pop\n      jump\t// out\n        /* \"#utility.yul\":21898:22317   */\n    tag_118:\n        /* \"#utility.yul\":22064:22068   */\n      0x00\n        /* \"#utility.yul\":22102:22104   */\n      0x20\n        /* \"#utility.yul\":22091:22100   */\n      dup3\n        /* \"#utility.yul\":22087:22105   */\n      add\n        /* \"#utility.yul\":22079:22105   */\n      swap1\n      pop\n        /* \"#utility.yul\":22151:22160   */\n      dup2\n        /* \"#utility.yul\":22145:22149   */\n      dup2\n        /* \"#utility.yul\":22141:22161   */\n      sub\n        /* \"#utility.yul\":22137:22138   */\n      0x00\n        /* \"#utility.yul\":22126:22135   */\n      dup4\n        /* \"#utility.yul\":22122:22139   */\n      add\n        /* \"#utility.yul\":22115:22162   */\n      mstore\n        /* \"#utility.yul\":22179:22310   */\n      tag_432\n        /* \"#utility.yul\":22305:22309   */\n      dup2\n        /* \"#utility.yul\":22179:22310   */\n      tag_205\n      jump\t// in\n    tag_432:\n        /* \"#utility.yul\":22171:22310   */\n      swap1\n      pop\n        /* \"#utility.yul\":21898:22317   */\n      swap2\n      swap1\n      pop\n      jump\t// out\n        /* \"#utility.yul\":22323:22497   */\n    tag_206:\n        /* \"#utility.yul\":22463:22489   */\n      0x496e73756666696369656e7420617474656d7074206665650000000000000000\n        /* \"#utility.yul\":22459:22460   */\n      0x00\n        /* \"#utility.yul\":22451:22457   */\n      dup3\n        /* \"#utility.yul\":22447:22461   */\n      add\n        /* \"#utility.yul\":22440:22490   */\n      mstore\n        /* \"#utility.yul\":22323:22497   */\n      pop\n      jump\t// out\n        /* \"#utility.yul\":22503:22869   */\n    tag_207:\n        /* \"#utility.yul\":22645:22648   */\n      0x00\n        /* \"#utility.yul\":22666:22733   */\n      tag_435\n        /* \"#utility.yul\":22730:22732   */\n      0x18\n        /* \"#utility.yul\":22725:22728   */\n      dup4\n        /* \"#utility.yul\":22666:22733   */\n      tag_148\n      jump\t// in\n    tag_435:\n        /* \"#utility.yul\":22659:22733   */\n      swap2\n      pop\n        /* \"#utility.yul\":22742:22835   */\n      tag_436\n        /* \"#utility.yul\":22831:22834   */\n      dup3\n        /* \"#utility.yul\":22742:22835   */\n      tag_206\n      jump\t// in\n    tag_436:\n        /* \"#utility.yul\":22860:22862   */\n      0x20\n        /* \"#utility.yul\":22855:22858   */\n      dup3\n        /* \"#utility.yul\":22851:22863   */\n      add\n        /* \"#utility.yul\":22844:22863   */\n      swap1\n      pop\n        /* \"#utility.yul\":22503:22869   */\n      swap2\n      swap1\n      pop\n      jump\t// out\n        /* \"#utility.yul\":22875:23294   */\n    tag_128:\n        /* \"#utility.yul\":23041:23045   */\n      0x00\n        /* \"#utility.yul\":23079:23081   */\n      0x20\n        /* \"#utility.yul\":23068:23077   */\n      dup3\n        /* \"#utility.yul\":23064:23082   */\n      add\n        /* \"#utility.yul\":23056:23082   */\n      swap1\n      pop\n        /* \"#utility.yul\":23128:23137   */\n      dup2\n        /* \"#utility.yul\":23122:23126   */\n      dup2\n        /* \"#utility.yul\":23118:23138   */\n      sub\n        /* \"#utility.yul\":23114:23115   */\n      0x00\n        /* \"#utility.yul\":23103:23112   */\n      dup4\n        /* \"#utility.yul\":23099:23116   */\n      add\n        /* \"#utility.yul\":23092:23139   */\n      mstore\n        /* \"#utility.yul\":23156:23287   */\n      tag_438\n        /* \"#utility.yul\":23282:23286   */\n      dup2\n        /* \"#utility.yul\":23156:23287   */\n      tag_207\n      jump\t// in\n    tag_438:\n        /* \"#utility.yul\":23148:23287   */\n      swap1\n      pop\n        /* \"#utility.yul\":22875:23294   */\n      swap2\n      swap1\n      pop\n      jump\t// out\n\n    auxdata: 0xa2646970667358221220d4f2c643bbee59d6d088c56168b8ff700d27c9092831a83ec3a1481398d07a9d64736f6c63430008190033\n}\n",
				"bytecode": {
					"linkReferences": {},
					"object": "608060405234801561000f575f80fd5b5060405161196f38038061196f8339818101604052810190610031919061019d565b8260025f6101000a81548173ffffffffffffffffffffffffffffffffffffffff021916908373ffffffffffffffffffffffffffffffffffffffff1602179055508160035f6101000a81548173ffffffffffffffffffffffffffffffffffffffff021916908373ffffffffffffffffffffffffffffffffffffffff160217905550806001819055505050506101ed565b5f80fd5b5f73ffffffffffffffffffffffffffffffffffffffff82169050919050565b5f6100ed826100c4565b9050919050565b5f6100fe826100e3565b9050919050565b61010e816100f4565b8114610118575f80fd5b50565b5f8151905061012981610105565b92915050565b5f610139826100e3565b9050919050565b6101498161012f565b8114610153575f80fd5b50565b5f8151905061016481610140565b92915050565b5f819050919050565b61017c8161016a565b8114610186575f80fd5b50565b5f8151905061019781610173565b92915050565b5f805f606084860312156101b4576101b36100c0565b5b5f6101c18682870161011b565b93505060206101d286828701610156565b92505060406101e386828701610189565b9150509250925092565b611775806101fa5f395ff3fe608060405234801561000f575f80fd5b506004361061007b575f3560e01c8063cecb260111610059578063cecb2601146100ee578063fa7ddb451461010a578063fbfa77cf14610126578063fc0c546a146101445761007b565b80630c0c89581461007f57806346859c3f1461009b578063956e958a146100b9575b5f80fd5b61009960048036038101906100949190610be2565b610162565b005b6100a36103eb565b6040516100b09190610c2f565b60405180910390f35b6100d360048036038101906100ce9190610c48565b6103f1565b6040516100e596959493929190610d95565b60405180910390f35b61010860048036038101906101039190610f27565b6104e8565b005b610124600480360381019061011f9190610c48565b6107d5565b005b61012e610b54565b60405161013b9190610fee565b60405180910390f35b61014c610b79565b6040516101599190611027565b60405180910390f35b5f8054905082106101a8576040517f08c379a000000000000000000000000000000000000000000000000000000000815260040161019f9061108a565b60405180910390fd5b5f60018111156101bb576101ba610ce3565b5b5f83815481106101ce576101cd6110a8565b5b905f5260205f2090600602016003015f9054906101000a900460ff1660018111156101fc576101fb610ce3565b5b0361023c576040517f08c379a00000000000000000000000000000000000000000000000000000000081526004016102339061111f565b60405180910390fd5b60045f3373ffffffffffffffffffffffffffffffffffffffff1673ffffffffffffffffffffffffffffffffffffffff1681526020019081526020015f205482146102bb576040517f08c379a00000000000000000000000000000000000000000000000000000000081526004016102b2906111ad565b60405180910390fd5b805f83815481106102cf576102ce6110a8565b5b905f5260205f20906006020160040154036103e75760025f9054906101000a900473ffffffffffffffffffffffffffffffffffffffff1673ffffffffffffffffffffffffffffffffffffffff166323b872dd5f8481548110610334576103336110a8565b5b905f5260205f2090600602016005015f9054906101000a900473ffffffffffffffffffffffffffffffffffffffff16335f8681548110610377576103766110a8565b5b905f5260205f209060060201600101546040518463ffffffff1660e01b81526004016103a5939291906111cb565b6020604051808303815f875af11580156103c1573d5f803e3d5ffd5b505050506040513d601f19601f820116820180604052508101906103e59190611235565b505b5050565b60015481565b5f81815481106103ff575f80fd5b905f5260205f2090600602015f91509050805f01805461041e9061128d565b80601f016020809104026020016040519081016040528092919081815260200182805461044a9061128d565b80156104955780601f1061046c57610100808354040283529160200191610495565b820191905f5260205f20905b81548152906001019060200180831161047857829003601f168201915b505050505090806001015490806002015490806003015f9054906101000a900460ff1690806004015490806005015f9054906101000a900473ffffffffffffffffffffffffffffffffffffffff16905086565b5f821161052a576040517f08c379a000000000000000000000000000000000000000000000000000000000815260040161052190611307565b60405180910390fd5b8160025f9054906101000a900473ffffffffffffffffffffffffffffffffffffffff1673ffffffffffffffffffffffffffffffffffffffff166370a08231336040518263ffffffff1660e01b81526004016105859190611325565b602060405180830381865afa1580156105a0573d5f803e3d5ffd5b505050506040513d601f19601f820116820180604052508101906105c49190611352565b1015610605576040517f08c379a00000000000000000000000000000000000000000000000000000000081526004016105fc906113c7565b60405180910390fd5b5f808054905090505f6040518060c0016040528086815260200185815260200183815260200160018081111561063e5761063d610ce3565b5b81526020018481526020013373ffffffffffffffffffffffffffffffffffffffff16815250908060018154018082558091505060019003905f5260205f2090600602015f909190919091505f820151815f01908161069c9190611579565b5060208201518160010155604082015181600201556060820151816003015f6101000a81548160ff021916908360018111156106db576106da610ce3565b5b02179055506080820151816004015560a0820151816005015f6101000a81548173ffffffffffffffffffffffffffffffffffffffff021916908373ffffffffffffffffffffffffffffffffffffffff160217905550505060025f9054906101000a900473ffffffffffffffffffffffffffffffffffffffff1673ffffffffffffffffffffffffffffffffffffffff1663095ea7b330856040518363ffffffff1660e01b815260040161078e929190611648565b6020604051808303815f875af11580156107aa573d5f803e3d5ffd5b505050506040513d601f19601f820116820180604052508101906107ce9190611235565b5050505050565b805f60018111156107e9576107e8610ce3565b5b5f82815481106107fc576107fb6110a8565b5b905f5260205f2090600602016003015f9054906101000a900460ff16600181111561082a57610829610ce3565b5b0361086a576040517f08c379a0000000000000000000000000000000000000000000000000000000008152600401610861906116b9565b60405180910390fd5b5f8054905082106108b0576040517f08c379a00000000000000000000000000000000000000000000000000000000081526004016108a79061108a565b60405180910390fd5b60015460025f9054906101000a900473ffffffffffffffffffffffffffffffffffffffff1673ffffffffffffffffffffffffffffffffffffffff166370a08231336040518263ffffffff1660e01b815260040161090d9190611325565b602060405180830381865afa158015610928573d5f803e3d5ffd5b505050506040513d601f19601f8201168201806040525081019061094c9190611352565b101561098d576040517f08c379a000000000000000000000000000000000000000000000000000000000815260040161098490611721565b60405180910390fd5b60025f9054906101000a900473ffffffffffffffffffffffffffffffffffffffff1673ffffffffffffffffffffffffffffffffffffffff1663095ea7b3306001546040518363ffffffff1660e01b81526004016109eb929190611648565b6020604051808303815f875af1158015610a07573d5f803e3d5ffd5b505050506040513d601f19601f82011682018060405250810190610a2b9190611235565b5060025f9054906101000a900473ffffffffffffffffffffffffffffffffffffffff1673ffffffffffffffffffffffffffffffffffffffff166323b872dd335f8581548110610a7d57610a7c6110a8565b5b905f5260205f2090600602016005015f9054906101000a900473ffffffffffffffffffffffffffffffffffffffff166001546040518463ffffffff1660e01b8152600401610acd939291906111cb565b6020604051808303815f875af1158015610ae9573d5f803e3d5ffd5b505050506040513d601f19601f82011682018060405250810190610b0d9190611235565b508160045f3373ffffffffffffffffffffffffffffffffffffffff1673ffffffffffffffffffffffffffffffffffffffff1681526020019081526020015f20819055505050565b60035f9054906101000a900473ffffffffffffffffffffffffffffffffffffffff1681565b60025f9054906101000a900473ffffffffffffffffffffffffffffffffffffffff1681565b5f604051905090565b5f80fd5b5f80fd5b5f819050919050565b610bc181610baf565b8114610bcb575f80fd5b50565b5f81359050610bdc81610bb8565b92915050565b5f8060408385031215610bf857610bf7610ba7565b5b5f610c0585828601610bce565b9250506020610c1685828601610bce565b9150509250929050565b610c2981610baf565b82525050565b5f602082019050610c425f830184610c20565b92915050565b5f60208284031215610c5d57610c5c610ba7565b5b5f610c6a84828501610bce565b91505092915050565b5f81519050919050565b5f82825260208201905092915050565b8281835e5f83830152505050565b5f601f19601f8301169050919050565b5f610cb582610c73565b610cbf8185610c7d565b9350610ccf818560208601610c8d565b610cd881610c9b565b840191505092915050565b7f4e487b71000000000000000000000000000000000000000000000000000000005f52602160045260245ffd5b60028110610d2157610d20610ce3565b5b50565b5f819050610d3182610d10565b919050565b5f610d4082610d24565b9050919050565b610d5081610d36565b82525050565b5f73ffffffffffffffffffffffffffffffffffffffff82169050919050565b5f610d7f82610d56565b9050919050565b610d8f81610d75565b82525050565b5f60c0820190508181035f830152610dad8189610cab565b9050610dbc6020830188610c20565b610dc96040830187610c20565b610dd66060830186610d47565b610de36080830185610c20565b610df060a0830184610d86565b979650505050505050565b5f80fd5b5f80fd5b7f4e487b71000000000000000000000000000000000000000000000000000000005f52604160045260245ffd5b610e3982610c9b565b810181811067ffffffffffffffff82111715610e5857610e57610e03565b5b80604052505050565b5f610e6a610b9e565b9050610e768282610e30565b919050565b5f67ffffffffffffffff821115610e9557610e94610e03565b5b610e9e82610c9b565b9050602081019050919050565b828183375f83830152505050565b5f610ecb610ec684610e7b565b610e61565b905082815260208101848484011115610ee757610ee6610dff565b5b610ef2848285610eab565b509392505050565b5f82601f830112610f0e57610f0d610dfb565b5b8135610f1e848260208601610eb9565b91505092915050565b5f805f60608486031215610f3e57610f3d610ba7565b5b5f84013567ffffffffffffffff811115610f5b57610f5a610bab565b5b610f6786828701610efa565b9350506020610f7886828701610bce565b9250506040610f8986828701610bce565b9150509250925092565b5f819050919050565b5f610fb6610fb1610fac84610d56565b610f93565b610d56565b9050919050565b5f610fc782610f9c565b9050919050565b5f610fd882610fbd565b9050919050565b610fe881610fce565b82525050565b5f6020820190506110015f830184610fdf565b92915050565b5f61101182610fbd565b9050919050565b61102181611007565b82525050565b5f60208201905061103a5f830184611018565b92915050565b7f496e76616c69642064756e67656f6e20494400000000000000000000000000005f82015250565b5f611074601283610c7d565b915061107f82611040565b602082019050919050565b5f6020820190508181035f8301526110a181611068565b9050919050565b7f4e487b71000000000000000000000000000000000000000000000000000000005f52603260045260245ffd5b7f44756e67656f6e206973206e6f7420636f6d706c6574656400000000000000005f82015250565b5f611109601883610c7d565b9150611114826110d5565b602082019050919050565b5f6020820190508181035f830152611136816110fd565b9050919050565b7f796f7520686176656e277420617474656d7074656420746869732064756e67655f8201527f6f6e000000000000000000000000000000000000000000000000000000000000602082015250565b5f611197602283610c7d565b91506111a28261113d565b604082019050919050565b5f6020820190508181035f8301526111c48161118b565b9050919050565b5f6060820190506111de5f830186610d86565b6111eb6020830185610d86565b6111f86040830184610c20565b949350505050565b5f8115159050919050565b61121481611200565b811461121e575f80fd5b50565b5f8151905061122f8161120b565b92915050565b5f6020828403121561124a57611249610ba7565b5b5f61125784828501611221565b91505092915050565b7f4e487b71000000000000000000000000000000000000000000000000000000005f52602260045260245ffd5b5f60028204905060018216806112a457607f821691505b6020821081036112b7576112b6611260565b5b50919050565b7f526577617264206d7573742062652067726561746572207468616e20300000005f82015250565b5f6112f1601d83610c7d565b91506112fc826112bd565b602082019050919050565b5f6020820190508181035f83015261131e816112e5565b9050919050565b5f6020820190506113385f830184610d86565b92915050565b5f8151905061134c81610bb8565b92915050565b5f6020828403121561136757611366610ba7565b5b5f6113748482850161133e565b91505092915050565b7f496e73756666696369656e7420746f6b656e2062616c616e63650000000000005f82015250565b5f6113b1601a83610c7d565b91506113bc8261137d565b602082019050919050565b5f6020820190508181035f8301526113de816113a5565b9050919050565b5f819050815f5260205f209050919050565b5f6020601f8301049050919050565b5f82821b905092915050565b5f600883026114417fffffffffffffffffffffffffffffffffffffffffffffffffffffffffffffffff82611406565b61144b8683611406565b95508019841693508086168417925050509392505050565b5f61147d61147861147384610baf565b610f93565b610baf565b9050919050565b5f819050919050565b61149683611463565b6114aa6114a282611484565b848454611412565b825550505050565b5f90565b6114be6114b2565b6114c981848461148d565b505050565b5b818110156114ec576114e15f826114b6565b6001810190506114cf565b5050565b601f82111561153157611502816113e5565b61150b846113f7565b8101602085101561151a578190505b61152e611526856113f7565b8301826114ce565b50505b505050565b5f82821c905092915050565b5f6115515f1984600802611536565b1980831691505092915050565b5f6115698383611542565b9150826002028217905092915050565b61158282610c73565b67ffffffffffffffff81111561159b5761159a610e03565b5b6115a5825461128d565b6115b08282856114f0565b5f60209050601f8311600181146115e1575f84156115cf578287015190505b6115d9858261155e565b865550611640565b601f1984166115ef866113e5565b5f5b82811015611616578489015182556001820191506020850194506020810190506115f1565b86831015611633578489015161162f601f891682611542565b8355505b6001600288020188555050505b505050505050565b5f60408201905061165b5f830185610d86565b6116686020830184610c20565b9392505050565b7f44756e67656f6e20697320616c726561647920636f6d706c65746564000000005f82015250565b5f6116a3601c83610c7d565b91506116ae8261166f565b602082019050919050565b5f6020820190508181035f8301526116d081611697565b9050919050565b7f496e73756666696369656e7420617474656d70742066656500000000000000005f82015250565b5f61170b601883610c7d565b9150611716826116d7565b602082019050919050565b5f6020820190508181035f830152611738816116ff565b905091905056fea2646970667358221220d4f2c643bbee59d6d088c56168b8ff700d27c9092831a83ec3a1481398d07a9d64736f6c63430008190033",
					"opcodes": "PUSH1 0x80 PUSH1 0x40 MSTORE CALLVALUE DUP1 ISZERO PUSH2 0xF JUMPI PUSH0 DUP1 REVERT JUMPDEST POP PUSH1 0x40 MLOAD PUSH2 0x196F CODESIZE SUB DUP1 PUSH2 0x196F DUP4 CODECOPY DUP2 DUP2 ADD PUSH1 0x40 MSTORE DUP2 ADD SWAP1 PUSH2 0x31 SWAP2 SWAP1 PUSH2 0x19D JUMP JUMPDEST DUP3 PUSH1 0x2 PUSH0 PUSH2 0x100 EXP DUP2 SLOAD DUP2 PUSH20 0xFFFFFFFFFFFFFFFFFFFFFFFFFFFFFFFFFFFFFFFF MUL NOT AND SWAP1 DUP4 PUSH20 0xFFFFFFFFFFFFFFFFFFFFFFFFFFFFFFFFFFFFFFFF AND MUL OR SWAP1 SSTORE POP DUP2 PUSH1 0x3 PUSH0 PUSH2 0x100 EXP DUP2 SLOAD DUP2 PUSH20 0xFFFFFFFFFFFFFFFFFFFFFFFFFFFFFFFFFFFFFFFF MUL NOT AND SWAP1 DUP4 PUSH20 0xFFFFFFFFFFFFFFFFFFFFFFFFFFFFFFFFFFFFFFFF AND MUL OR SWAP1 SSTORE POP DUP1 PUSH1 0x1 DUP2 SWAP1 SSTORE POP POP POP POP PUSH2 0x1ED JUMP JUMPDEST PUSH0 DUP1 REVERT JUMPDEST PUSH0 PUSH20 0xFFFFFFFFFFFFFFFFFFFFFFFFFFFFFFFFFFFFFFFF DUP3 AND SWAP1 POP SWAP2 SWAP1 POP JUMP JUMPDEST PUSH0 PUSH2 0xED DUP3 PUSH2 0xC4 JUMP JUMPDEST SWAP1 POP SWAP2 SWAP1 POP JUMP JUMPDEST PUSH0 PUSH2 0xFE DUP3 PUSH2 0xE3 JUMP JUMPDEST SWAP1 POP SWAP2 SWAP1 POP JUMP JUMPDEST PUSH2 0x10E DUP2 PUSH2 0xF4 JUMP JUMPDEST DUP2 EQ PUSH2 0x118 JUMPI PUSH0 DUP1 REVERT JUMPDEST POP JUMP JUMPDEST PUSH0 DUP2 MLOAD SWAP1 POP PUSH2 0x129 DUP2 PUSH2 0x105 JUMP JUMPDEST SWAP3 SWAP2 POP POP JUMP JUMPDEST PUSH0 PUSH2 0x139 DUP3 PUSH2 0xE3 JUMP JUMPDEST SWAP1 POP SWAP2 SWAP1 POP JUMP JUMPDEST PUSH2 0x149 DUP2 PUSH2 0x12F JUMP JUMPDEST DUP2 EQ PUSH2 0x153 JUMPI PUSH0 DUP1 REVERT JUMPDEST POP JUMP JUMPDEST PUSH0 DUP2 MLOAD SWAP1 POP PUSH2 0x164 DUP2 PUSH2 0x140 JUMP JUMPDEST SWAP3 SWAP2 POP POP JUMP JUMPDEST PUSH0 DUP2 SWAP1 POP SWAP2 SWAP1 POP JUMP JUMPDEST PUSH2 0x17C DUP2 PUSH2 0x16A JUMP JUMPDEST DUP2 EQ PUSH2 0x186 JUMPI PUSH0 DUP1 REVERT JUMPDEST POP JUMP JUMPDEST PUSH0 DUP2 MLOAD SWAP1 POP PUSH2 0x197 DUP2 PUSH2 0x173 JUMP JUMPDEST SWAP3 SWAP2 POP POP JUMP JUMPDEST PUSH0 DUP1 PUSH0 PUSH1 0x60 DUP5 DUP7 SUB SLT ISZERO PUSH2 0x1B4 JUMPI PUSH2 0x1B3 PUSH2 0xC0 JUMP JUMPDEST JUMPDEST PUSH0 PUSH2 0x1C1 DUP7 DUP3 DUP8 ADD PUSH2 0x11B JUMP JUMPDEST SWAP4 POP POP PUSH1 0x20 PUSH2 0x1D2 DUP7 DUP3 DUP8 ADD PUSH2 0x156 JUMP JUMPDEST SWAP3 POP POP PUSH1 0x40 PUSH2 0x1E3 DUP7 DUP3 DUP8 ADD PUSH2 0x189 JUMP JUMPDEST SWAP2 POP POP SWAP3 POP SWAP3 POP SWAP3 JUMP JUMPDEST PUSH2 0x1775 DUP1 PUSH2 0x1FA PUSH0 CODECOPY PUSH0 RETURN INVALID PUSH1 0x80 PUSH1 0x40 MSTORE CALLVALUE DUP1 ISZERO PUSH2 0xF JUMPI PUSH0 DUP1 REVERT JUMPDEST POP PUSH1 0x4 CALLDATASIZE LT PUSH2 0x7B JUMPI PUSH0 CALLDATALOAD PUSH1 0xE0 SHR DUP1 PUSH4 0xCECB2601 GT PUSH2 0x59 JUMPI DUP1 PUSH4 0xCECB2601 EQ PUSH2 0xEE JUMPI DUP1 PUSH4 0xFA7DDB45 EQ PUSH2 0x10A JUMPI DUP1 PUSH4 0xFBFA77CF EQ PUSH2 0x126 JUMPI DUP1 PUSH4 0xFC0C546A EQ PUSH2 0x144 JUMPI PUSH2 0x7B JUMP JUMPDEST DUP1 PUSH4 0xC0C8958 EQ PUSH2 0x7F JUMPI DUP1 PUSH4 0x46859C3F EQ PUSH2 0x9B JUMPI DUP1 PUSH4 0x956E958A EQ PUSH2 0xB9 JUMPI JUMPDEST PUSH0 DUP1 REVERT JUMPDEST PUSH2 0x99 PUSH1 0x4 DUP1 CALLDATASIZE SUB DUP2 ADD SWAP1 PUSH2 0x94 SWAP2 SWAP1 PUSH2 0xBE2 JUMP JUMPDEST PUSH2 0x162 JUMP JUMPDEST STOP JUMPDEST PUSH2 0xA3 PUSH2 0x3EB JUMP JUMPDEST PUSH1 0x40 MLOAD PUSH2 0xB0 SWAP2 SWAP1 PUSH2 0xC2F JUMP JUMPDEST PUSH1 0x40 MLOAD DUP1 SWAP2 SUB SWAP1 RETURN JUMPDEST PUSH2 0xD3 PUSH1 0x4 DUP1 CALLDATASIZE SUB DUP2 ADD SWAP1 PUSH2 0xCE SWAP2 SWAP1 PUSH2 0xC48 JUMP JUMPDEST PUSH2 0x3F1 JUMP JUMPDEST PUSH1 0x40 MLOAD PUSH2 0xE5 SWAP7 SWAP6 SWAP5 SWAP4 SWAP3 SWAP2 SWAP1 PUSH2 0xD95 JUMP JUMPDEST PUSH1 0x40 MLOAD DUP1 SWAP2 SUB SWAP1 RETURN JUMPDEST PUSH2 0x108 PUSH1 0x4 DUP1 CALLDATASIZE SUB DUP2 ADD SWAP1 PUSH2 0x103 SWAP2 SWAP1 PUSH2 0xF27 JUMP JUMPDEST PUSH2 0x4E8 JUMP JUMPDEST STOP JUMPDEST PUSH2 0x124 PUSH1 0x4 DUP1 CALLDATASIZE SUB DUP2 ADD SWAP1 PUSH2 0x11F SWAP2 SWAP1 PUSH2 0xC48 JUMP JUMPDEST PUSH2 0x7D5 JUMP JUMPDEST STOP JUMPDEST PUSH2 0x12E PUSH2 0xB54 JUMP JUMPDEST PUSH1 0x40 MLOAD PUSH2 0x13B SWAP2 SWAP1 PUSH2 0xFEE JUMP JUMPDEST PUSH1 0x40 MLOAD DUP1 SWAP2 SUB SWAP1 RETURN JUMPDEST PUSH2 0x14C PUSH2 0xB79 JUMP JUMPDEST PUSH1 0x40 MLOAD PUSH2 0x159 SWAP2 SWAP1 PUSH2 0x1027 JUMP JUMPDEST PUSH1 0x40 MLOAD DUP1 SWAP2 SUB SWAP1 RETURN JUMPDEST PUSH0 DUP1 SLOAD SWAP1 POP DUP3 LT PUSH2 0x1A8 JUMPI PUSH1 0x40 MLOAD PUSH32 0x8C379A000000000000000000000000000000000000000000000000000000000 DUP2 MSTORE PUSH1 0x4 ADD PUSH2 0x19F SWAP1 PUSH2 0x108A JUMP JUMPDEST PUSH1 0x40 MLOAD DUP1 SWAP2 SUB SWAP1 REVERT JUMPDEST PUSH0 PUSH1 0x1 DUP2 GT ISZERO PUSH2 0x1BB JUMPI PUSH2 0x1BA PUSH2 0xCE3 JUMP JUMPDEST JUMPDEST PUSH0 DUP4 DUP2 SLOAD DUP2 LT PUSH2 0x1CE JUMPI PUSH2 0x1CD PUSH2 0x10A8 JUMP JUMPDEST JUMPDEST SWAP1 PUSH0 MSTORE PUSH1 0x20 PUSH0 KECCAK256 SWAP1 PUSH1 0x6 MUL ADD PUSH1 0x3 ADD PUSH0 SWAP1 SLOAD SWAP1 PUSH2 0x100 EXP SWAP1 DIV PUSH1 0xFF AND PUSH1 0x1 DUP2 GT ISZERO PUSH2 0x1FC JUMPI PUSH2 0x1FB PUSH2 0xCE3 JUMP JUMPDEST JUMPDEST SUB PUSH2 0x23C JUMPI PUSH1 0x40 MLOAD PUSH32 0x8C379A000000000000000000000000000000000000000000000000000000000 DUP2 MSTORE PUSH1 0x4 ADD PUSH2 0x233 SWAP1 PUSH2 0x111F JUMP JUMPDEST PUSH1 0x40 MLOAD DUP1 SWAP2 SUB SWAP1 REVERT JUMPDEST PUSH1 0x4 PUSH0 CALLER PUSH20 0xFFFFFFFFFFFFFFFFFFFFFFFFFFFFFFFFFFFFFFFF AND PUSH20 0xFFFFFFFFFFFFFFFFFFFFFFFFFFFFFFFFFFFFFFFF AND DUP2 MSTORE PUSH1 0x20 ADD SWAP1 DUP2 MSTORE PUSH1 0x20 ADD PUSH0 KECCAK256 SLOAD DUP3 EQ PUSH2 0x2BB JUMPI PUSH1 0x40 MLOAD PUSH32 0x8C379A000000000000000000000000000000000000000000000000000000000 DUP2 MSTORE PUSH1 0x4 ADD PUSH2 0x2B2 SWAP1 PUSH2 0x11AD JUMP JUMPDEST PUSH1 0x40 MLOAD DUP1 SWAP2 SUB SWAP1 REVERT JUMPDEST DUP1 PUSH0 DUP4 DUP2 SLOAD DUP2 LT PUSH2 0x2CF JUMPI PUSH2 0x2CE PUSH2 0x10A8 JUMP JUMPDEST JUMPDEST SWAP1 PUSH0 MSTORE PUSH1 0x20 PUSH0 KECCAK256 SWAP1 PUSH1 0x6 MUL ADD PUSH1 0x4 ADD SLOAD SUB PUSH2 0x3E7 JUMPI PUSH1 0x2 PUSH0 SWAP1 SLOAD SWAP1 PUSH2 0x100 EXP SWAP1 DIV PUSH20 0xFFFFFFFFFFFFFFFFFFFFFFFFFFFFFFFFFFFFFFFF AND PUSH20 0xFFFFFFFFFFFFFFFFFFFFFFFFFFFFFFFFFFFFFFFF AND PUSH4 0x23B872DD PUSH0 DUP5 DUP2 SLOAD DUP2 LT PUSH2 0x334 JUMPI PUSH2 0x333 PUSH2 0x10A8 JUMP JUMPDEST JUMPDEST SWAP1 PUSH0 MSTORE PUSH1 0x20 PUSH0 KECCAK256 SWAP1 PUSH1 0x6 MUL ADD PUSH1 0x5 ADD PUSH0 SWAP1 SLOAD SWAP1 PUSH2 0x100 EXP SWAP1 DIV PUSH20 0xFFFFFFFFFFFFFFFFFFFFFFFFFFFFFFFFFFFFFFFF AND CALLER PUSH0 DUP7 DUP2 SLOAD DUP2 LT PUSH2 0x377 JUMPI PUSH2 0x376 PUSH2 0x10A8 JUMP JUMPDEST JUMPDEST SWAP1 PUSH0 MSTORE PUSH1 0x20 PUSH0 KECCAK256 SWAP1 PUSH1 0x6 MUL ADD PUSH1 0x1 ADD SLOAD PUSH1 0x40 MLOAD DUP5 PUSH4 0xFFFFFFFF AND PUSH1 0xE0 SHL DUP2 MSTORE PUSH1 0x4 ADD PUSH2 0x3A5 SWAP4 SWAP3 SWAP2 SWAP1 PUSH2 0x11CB JUMP JUMPDEST PUSH1 0x20 PUSH1 0x40 MLOAD DUP1 DUP4 SUB DUP2 PUSH0 DUP8 GAS CALL ISZERO DUP1 ISZERO PUSH2 0x3C1 JUMPI RETURNDATASIZE PUSH0 DUP1 RETURNDATACOPY RETURNDATASIZE PUSH0 REVERT JUMPDEST POP POP POP POP PUSH1 0x40 MLOAD RETURNDATASIZE PUSH1 0x1F NOT PUSH1 0x1F DUP3 ADD AND DUP3 ADD DUP1 PUSH1 0x40 MSTORE POP DUP2 ADD SWAP1 PUSH2 0x3E5 SWAP2 SWAP1 PUSH2 0x1235 JUMP JUMPDEST POP JUMPDEST POP POP JUMP JUMPDEST PUSH1 0x1 SLOAD DUP2 JUMP JUMPDEST PUSH0 DUP2 DUP2 SLOAD DUP2 LT PUSH2 0x3FF JUMPI PUSH0 DUP1 REVERT JUMPDEST SWAP1 PUSH0 MSTORE PUSH1 0x20 PUSH0 KECCAK256 SWAP1 PUSH1 0x6 MUL ADD PUSH0 SWAP2 POP SWAP1 POP DUP1 PUSH0 ADD DUP1 SLOAD PUSH2 0x41E SWAP1 PUSH2 0x128D JUMP JUMPDEST DUP1 PUSH1 0x1F ADD PUSH1 0x20 DUP1 SWAP2 DIV MUL PUSH1 0x20 ADD PUSH1 0x40 MLOAD SWAP1 DUP2 ADD PUSH1 0x40 MSTORE DUP1 SWAP3 SWAP2 SWAP1 DUP2 DUP2 MSTORE PUSH1 0x20 ADD DUP3 DUP1 SLOAD PUSH2 0x44A SWAP1 PUSH2 0x128D JUMP JUMPDEST DUP1 ISZERO PUSH2 0x495 JUMPI DUP1 PUSH1 0x1F LT PUSH2 0x46C JUMPI PUSH2 0x100 DUP1 DUP4 SLOAD DIV MUL DUP4 MSTORE SWAP2 PUSH1 0x20 ADD SWAP2 PUSH2 0x495 JUMP JUMPDEST DUP3 ADD SWAP2 SWAP1 PUSH0 MSTORE PUSH1 0x20 PUSH0 KECCAK256 SWAP1 JUMPDEST DUP2 SLOAD DUP2 MSTORE SWAP1 PUSH1 0x1 ADD SWAP1 PUSH1 0x20 ADD DUP1 DUP4 GT PUSH2 0x478 JUMPI DUP3 SWAP1 SUB PUSH1 0x1F AND DUP3 ADD SWAP2 JUMPDEST POP POP POP POP POP SWAP1 DUP1 PUSH1 0x1 ADD SLOAD SWAP1 DUP1 PUSH1 0x2 ADD SLOAD SWAP1 DUP1 PUSH1 0x3 ADD PUSH0 SWAP1 SLOAD SWAP1 PUSH2 0x100 EXP SWAP1 DIV PUSH1 0xFF AND SWAP1 DUP1 PUSH1 0x4 ADD SLOAD SWAP1 DUP1 PUSH1 0x5 ADD PUSH0 SWAP1 SLOAD SWAP1 PUSH2 0x100 EXP SWAP1 DIV PUSH20 0xFFFFFFFFFFFFFFFFFFFFFFFFFFFFFFFFFFFFFFFF AND SWAP1 POP DUP7 JUMP JUMPDEST PUSH0 DUP3 GT PUSH2 0x52A JUMPI PUSH1 0x40 MLOAD PUSH32 0x8C379A000000000000000000000000000000000000000000000000000000000 DUP2 MSTORE PUSH1 0x4 ADD PUSH2 0x521 SWAP1 PUSH2 0x1307 JUMP JUMPDEST PUSH1 0x40 MLOAD DUP1 SWAP2 SUB SWAP1 REVERT JUMPDEST DUP2 PUSH1 0x2 PUSH0 SWAP1 SLOAD SWAP1 PUSH2 0x100 EXP SWAP1 DIV PUSH20 0xFFFFFFFFFFFFFFFFFFFFFFFFFFFFFFFFFFFFFFFF AND PUSH20 0xFFFFFFFFFFFFFFFFFFFFFFFFFFFFFFFFFFFFFFFF AND PUSH4 0x70A08231 CALLER PUSH1 0x40 MLOAD DUP3 PUSH4 0xFFFFFFFF AND PUSH1 0xE0 SHL DUP2 MSTORE PUSH1 0x4 ADD PUSH2 0x585 SWAP2 SWAP1 PUSH2 0x1325 JUMP JUMPDEST PUSH1 0x20 PUSH1 0x40 MLOAD DUP1 DUP4 SUB DUP2 DUP7 GAS STATICCALL ISZERO DUP1 ISZERO PUSH2 0x5A0 JUMPI RETURNDATASIZE PUSH0 DUP1 RETURNDATACOPY RETURNDATASIZE PUSH0 REVERT JUMPDEST POP POP POP POP PUSH1 0x40 MLOAD RETURNDATASIZE PUSH1 0x1F NOT PUSH1 0x1F DUP3 ADD AND DUP3 ADD DUP1 PUSH1 0x40 MSTORE POP DUP2 ADD SWAP1 PUSH2 0x5C4 SWAP2 SWAP1 PUSH2 0x1352 JUMP JUMPDEST LT ISZERO PUSH2 0x605 JUMPI PUSH1 0x40 MLOAD PUSH32 0x8C379A000000000000000000000000000000000000000000000000000000000 DUP2 MSTORE PUSH1 0x4 ADD PUSH2 0x5FC SWAP1 PUSH2 0x13C7 JUMP JUMPDEST PUSH1 0x40 MLOAD DUP1 SWAP2 SUB SWAP1 REVERT JUMPDEST PUSH0 DUP1 DUP1 SLOAD SWAP1 POP SWAP1 POP PUSH0 PUSH1 0x40 MLOAD DUP1 PUSH1 0xC0 ADD PUSH1 0x40 MSTORE DUP1 DUP7 DUP2 MSTORE PUSH1 0x20 ADD DUP6 DUP2 MSTORE PUSH1 0x20 ADD DUP4 DUP2 MSTORE PUSH1 0x20 ADD PUSH1 0x1 DUP1 DUP2 GT ISZERO PUSH2 0x63E JUMPI PUSH2 0x63D PUSH2 0xCE3 JUMP JUMPDEST JUMPDEST DUP2 MSTORE PUSH1 0x20 ADD DUP5 DUP2 MSTORE PUSH1 0x20 ADD CALLER PUSH20 0xFFFFFFFFFFFFFFFFFFFFFFFFFFFFFFFFFFFFFFFF AND DUP2 MSTORE POP SWAP1 DUP1 PUSH1 0x1 DUP2 SLOAD ADD DUP1 DUP3 SSTORE DUP1 SWAP2 POP POP PUSH1 0x1 SWAP1 SUB SWAP1 PUSH0 MSTORE PUSH1 0x20 PUSH0 KECCAK256 SWAP1 PUSH1 0x6 MUL ADD PUSH0 SWAP1 SWAP2 SWAP1 SWAP2 SWAP1 SWAP2 POP PUSH0 DUP3 ADD MLOAD DUP2 PUSH0 ADD SWAP1 DUP2 PUSH2 0x69C SWAP2 SWAP1 PUSH2 0x1579 JUMP JUMPDEST POP PUSH1 0x20 DUP3 ADD MLOAD DUP2 PUSH1 0x1 ADD SSTORE PUSH1 0x40 DUP3 ADD MLOAD DUP2 PUSH1 0x2 ADD SSTORE PUSH1 0x60 DUP3 ADD MLOAD DUP2 PUSH1 0x3 ADD PUSH0 PUSH2 0x100 EXP DUP2 SLOAD DUP2 PUSH1 0xFF MUL NOT AND SWAP1 DUP4 PUSH1 0x1 DUP2 GT ISZERO PUSH2 0x6DB JUMPI PUSH2 0x6DA PUSH2 0xCE3 JUMP JUMPDEST JUMPDEST MUL OR SWAP1 SSTORE POP PUSH1 0x80 DUP3 ADD MLOAD DUP2 PUSH1 0x4 ADD SSTORE PUSH1 0xA0 DUP3 ADD MLOAD DUP2 PUSH1 0x5 ADD PUSH0 PUSH2 0x100 EXP DUP2 SLOAD DUP2 PUSH20 0xFFFFFFFFFFFFFFFFFFFFFFFFFFFFFFFFFFFFFFFF MUL NOT AND SWAP1 DUP4 PUSH20 0xFFFFFFFFFFFFFFFFFFFFFFFFFFFFFFFFFFFFFFFF AND MUL OR SWAP1 SSTORE POP POP POP PUSH1 0x2 PUSH0 SWAP1 SLOAD SWAP1 PUSH2 0x100 EXP SWAP1 DIV PUSH20 0xFFFFFFFFFFFFFFFFFFFFFFFFFFFFFFFFFFFFFFFF AND PUSH20 0xFFFFFFFFFFFFFFFFFFFFFFFFFFFFFFFFFFFFFFFF AND PUSH4 0x95EA7B3 ADDRESS DUP6 PUSH1 0x40 MLOAD DUP4 PUSH4 0xFFFFFFFF AND PUSH1 0xE0 SHL DUP2 MSTORE PUSH1 0x4 ADD PUSH2 0x78E SWAP3 SWAP2 SWAP1 PUSH2 0x1648 JUMP JUMPDEST PUSH1 0x20 PUSH1 0x40 MLOAD DUP1 DUP4 SUB DUP2 PUSH0 DUP8 GAS CALL ISZERO DUP1 ISZERO PUSH2 0x7AA JUMPI RETURNDATASIZE PUSH0 DUP1 RETURNDATACOPY RETURNDATASIZE PUSH0 REVERT JUMPDEST POP POP POP POP PUSH1 0x40 MLOAD RETURNDATASIZE PUSH1 0x1F NOT PUSH1 0x1F DUP3 ADD AND DUP3 ADD DUP1 PUSH1 0x40 MSTORE POP DUP2 ADD SWAP1 PUSH2 0x7CE SWAP2 SWAP1 PUSH2 0x1235 JUMP JUMPDEST POP POP POP POP POP JUMP JUMPDEST DUP1 PUSH0 PUSH1 0x1 DUP2 GT ISZERO PUSH2 0x7E9 JUMPI PUSH2 0x7E8 PUSH2 0xCE3 JUMP JUMPDEST JUMPDEST PUSH0 DUP3 DUP2 SLOAD DUP2 LT PUSH2 0x7FC JUMPI PUSH2 0x7FB PUSH2 0x10A8 JUMP JUMPDEST JUMPDEST SWAP1 PUSH0 MSTORE PUSH1 0x20 PUSH0 KECCAK256 SWAP1 PUSH1 0x6 MUL ADD PUSH1 0x3 ADD PUSH0 SWAP1 SLOAD SWAP1 PUSH2 0x100 EXP SWAP1 DIV PUSH1 0xFF AND PUSH1 0x1 DUP2 GT ISZERO PUSH2 0x82A JUMPI PUSH2 0x829 PUSH2 0xCE3 JUMP JUMPDEST JUMPDEST SUB PUSH2 0x86A JUMPI PUSH1 0x40 MLOAD PUSH32 0x8C379A000000000000000000000000000000000000000000000000000000000 DUP2 MSTORE PUSH1 0x4 ADD PUSH2 0x861 SWAP1 PUSH2 0x16B9 JUMP JUMPDEST PUSH1 0x40 MLOAD DUP1 SWAP2 SUB SWAP1 REVERT JUMPDEST PUSH0 DUP1 SLOAD SWAP1 POP DUP3 LT PUSH2 0x8B0 JUMPI PUSH1 0x40 MLOAD PUSH32 0x8C379A000000000000000000000000000000000000000000000000000000000 DUP2 MSTORE PUSH1 0x4 ADD PUSH2 0x8A7 SWAP1 PUSH2 0x108A JUMP JUMPDEST PUSH1 0x40 MLOAD DUP1 SWAP2 SUB SWAP1 REVERT JUMPDEST PUSH1 0x1 SLOAD PUSH1 0x2 PUSH0 SWAP1 SLOAD SWAP1 PUSH2 0x100 EXP SWAP1 DIV PUSH20 0xFFFFFFFFFFFFFFFFFFFFFFFFFFFFFFFFFFFFFFFF AND PUSH20 0xFFFFFFFFFFFFFFFFFFFFFFFFFFFFFFFFFFFFFFFF AND PUSH4 0x70A08231 CALLER PUSH1 0x40 MLOAD DUP3 PUSH4 0xFFFFFFFF AND PUSH1 0xE0 SHL DUP2 MSTORE PUSH1 0x4 ADD PUSH2 0x90D SWAP2 SWAP1 PUSH2 0x1325 JUMP JUMPDEST PUSH1 0x20 PUSH1 0x40 MLOAD DUP1 DUP4 SUB DUP2 DUP7 GAS STATICCALL ISZERO DUP1 ISZERO PUSH2 0x928 JUMPI RETURNDATASIZE PUSH0 DUP1 RETURNDATACOPY RETURNDATASIZE PUSH0 REVERT JUMPDEST POP POP POP POP PUSH1 0x40 MLOAD RETURNDATASIZE PUSH1 0x1F NOT PUSH1 0x1F DUP3 ADD AND DUP3 ADD DUP1 PUSH1 0x40 MSTORE POP DUP2 ADD SWAP1 PUSH2 0x94C SWAP2 SWAP1 PUSH2 0x1352 JUMP JUMPDEST LT ISZERO PUSH2 0x98D JUMPI PUSH1 0x40 MLOAD PUSH32 0x8C379A000000000000000000000000000000000000000000000000000000000 DUP2 MSTORE PUSH1 0x4 ADD PUSH2 0x984 SWAP1 PUSH2 0x1721 JUMP JUMPDEST PUSH1 0x40 MLOAD DUP1 SWAP2 SUB SWAP1 REVERT JUMPDEST PUSH1 0x2 PUSH0 SWAP1 SLOAD SWAP1 PUSH2 0x100 EXP SWAP1 DIV PUSH20 0xFFFFFFFFFFFFFFFFFFFFFFFFFFFFFFFFFFFFFFFF AND PUSH20 0xFFFFFFFFFFFFFFFFFFFFFFFFFFFFFFFFFFFFFFFF AND PUSH4 0x95EA7B3 ADDRESS PUSH1 0x1 SLOAD PUSH1 0x40 MLOAD DUP4 PUSH4 0xFFFFFFFF AND PUSH1 0xE0 SHL DUP2 MSTORE PUSH1 0x4 ADD PUSH2 0x9EB SWAP3 SWAP2 SWAP1 PUSH2 0x1648 JUMP JUMPDEST PUSH1 0x20 PUSH1 0x40 MLOAD DUP1 DUP4 SUB DUP2 PUSH0 DUP8 GAS CALL ISZERO DUP1 ISZERO PUSH2 0xA07 JUMPI RETURNDATASIZE PUSH0 DUP1 RETURNDATACOPY RETURNDATASIZE PUSH0 REVERT JUMPDEST POP POP POP POP PUSH1 0x40 MLOAD RETURNDATASIZE PUSH1 0x1F NOT PUSH1 0x1F DUP3 ADD AND DUP3 ADD DUP1 PUSH1 0x40 MSTORE POP DUP2 ADD SWAP1 PUSH2 0xA2B SWAP2 SWAP1 PUSH2 0x1235 JUMP JUMPDEST POP PUSH1 0x2 PUSH0 SWAP1 SLOAD SWAP1 PUSH2 0x100 EXP SWAP1 DIV PUSH20 0xFFFFFFFFFFFFFFFFFFFFFFFFFFFFFFFFFFFFFFFF AND PUSH20 0xFFFFFFFFFFFFFFFFFFFFFFFFFFFFFFFFFFFFFFFF AND PUSH4 0x23B872DD CALLER PUSH0 DUP6 DUP2 SLOAD DUP2 LT PUSH2 0xA7D JUMPI PUSH2 0xA7C PUSH2 0x10A8 JUMP JUMPDEST JUMPDEST SWAP1 PUSH0 MSTORE PUSH1 0x20 PUSH0 KECCAK256 SWAP1 PUSH1 0x6 MUL ADD PUSH1 0x5 ADD PUSH0 SWAP1 SLOAD SWAP1 PUSH2 0x100 EXP SWAP1 DIV PUSH20 0xFFFFFFFFFFFFFFFFFFFFFFFFFFFFFFFFFFFFFFFF AND PUSH1 0x1 SLOAD PUSH1 0x40 MLOAD DUP5 PUSH4 0xFFFFFFFF AND PUSH1 0xE0 SHL DUP2 MSTORE PUSH1 0x4 ADD PUSH2 0xACD SWAP4 SWAP3 SWAP2 SWAP1 PUSH2 0x11CB JUMP JUMPDEST PUSH1 0x20 PUSH1 0x40 MLOAD DUP1 DUP4 SUB DUP2 PUSH0 DUP8 GAS CALL ISZERO DUP1 ISZERO PUSH2 0xAE9 JUMPI RETURNDATASIZE PUSH0 DUP1 RETURNDATACOPY RETURNDATASIZE PUSH0 REVERT JUMPDEST POP POP POP POP PUSH1 0x40 MLOAD RETURNDATASIZE PUSH1 0x1F NOT PUSH1 0x1F DUP3 ADD AND DUP3 ADD DUP1 PUSH1 0x40 MSTORE POP DUP2 ADD SWAP1 PUSH2 0xB0D SWAP2 SWAP1 PUSH2 0x1235 JUMP JUMPDEST POP DUP2 PUSH1 0x4 PUSH0 CALLER PUSH20 0xFFFFFFFFFFFFFFFFFFFFFFFFFFFFFFFFFFFFFFFF AND PUSH20 0xFFFFFFFFFFFFFFFFFFFFFFFFFFFFFFFFFFFFFFFF AND DUP2 MSTORE PUSH1 0x20 ADD SWAP1 DUP2 MSTORE PUSH1 0x20 ADD PUSH0 KECCAK256 DUP2 SWAP1 SSTORE POP POP POP JUMP JUMPDEST PUSH1 0x3 PUSH0 SWAP1 SLOAD SWAP1 PUSH2 0x100 EXP SWAP1 DIV PUSH20 0xFFFFFFFFFFFFFFFFFFFFFFFFFFFFFFFFFFFFFFFF AND DUP2 JUMP JUMPDEST PUSH1 0x2 PUSH0 SWAP1 SLOAD SWAP1 PUSH2 0x100 EXP SWAP1 DIV PUSH20 0xFFFFFFFFFFFFFFFFFFFFFFFFFFFFFFFFFFFFFFFF AND DUP2 JUMP JUMPDEST PUSH0 PUSH1 0x40 MLOAD SWAP1 POP SWAP1 JUMP JUMPDEST PUSH0 DUP1 REVERT JUMPDEST PUSH0 DUP1 REVERT JUMPDEST PUSH0 DUP2 SWAP1 POP SWAP2 SWAP1 POP JUMP JUMPDEST PUSH2 0xBC1 DUP2 PUSH2 0xBAF JUMP JUMPDEST DUP2 EQ PUSH2 0xBCB JUMPI PUSH0 DUP1 REVERT JUMPDEST POP JUMP JUMPDEST PUSH0 DUP2 CALLDATALOAD SWAP1 POP PUSH2 0xBDC DUP2 PUSH2 0xBB8 JUMP JUMPDEST SWAP3 SWAP2 POP POP JUMP JUMPDEST PUSH0 DUP1 PUSH1 0x40 DUP4 DUP6 SUB SLT ISZERO PUSH2 0xBF8 JUMPI PUSH2 0xBF7 PUSH2 0xBA7 JUMP JUMPDEST JUMPDEST PUSH0 PUSH2 0xC05 DUP6 DUP3 DUP7 ADD PUSH2 0xBCE JUMP JUMPDEST SWAP3 POP POP PUSH1 0x20 PUSH2 0xC16 DUP6 DUP3 DUP7 ADD PUSH2 0xBCE JUMP JUMPDEST SWAP2 POP POP SWAP3 POP SWAP3 SWAP1 POP JUMP JUMPDEST PUSH2 0xC29 DUP2 PUSH2 0xBAF JUMP JUMPDEST DUP3 MSTORE POP POP JUMP JUMPDEST PUSH0 PUSH1 0x20 DUP3 ADD SWAP1 POP PUSH2 0xC42 PUSH0 DUP4 ADD DUP5 PUSH2 0xC20 JUMP JUMPDEST SWAP3 SWAP2 POP POP JUMP JUMPDEST PUSH0 PUSH1 0x20 DUP3 DUP5 SUB SLT ISZERO PUSH2 0xC5D JUMPI PUSH2 0xC5C PUSH2 0xBA7 JUMP JUMPDEST JUMPDEST PUSH0 PUSH2 0xC6A DUP5 DUP3 DUP6 ADD PUSH2 0xBCE JUMP JUMPDEST SWAP2 POP POP SWAP3 SWAP2 POP POP JUMP JUMPDEST PUSH0 DUP2 MLOAD SWAP1 POP SWAP2 SWAP1 POP JUMP JUMPDEST PUSH0 DUP3 DUP3 MSTORE PUSH1 0x20 DUP3 ADD SWAP1 POP SWAP3 SWAP2 POP POP JUMP JUMPDEST DUP3 DUP2 DUP4 MCOPY PUSH0 DUP4 DUP4 ADD MSTORE POP POP POP JUMP JUMPDEST PUSH0 PUSH1 0x1F NOT PUSH1 0x1F DUP4 ADD AND SWAP1 POP SWAP2 SWAP1 POP JUMP JUMPDEST PUSH0 PUSH2 0xCB5 DUP3 PUSH2 0xC73 JUMP JUMPDEST PUSH2 0xCBF DUP2 DUP6 PUSH2 0xC7D JUMP JUMPDEST SWAP4 POP PUSH2 0xCCF DUP2 DUP6 PUSH1 0x20 DUP7 ADD PUSH2 0xC8D JUMP JUMPDEST PUSH2 0xCD8 DUP2 PUSH2 0xC9B JUMP JUMPDEST DUP5 ADD SWAP2 POP POP SWAP3 SWAP2 POP POP JUMP JUMPDEST PUSH32 0x4E487B7100000000000000000000000000000000000000000000000000000000 PUSH0 MSTORE PUSH1 0x21 PUSH1 0x4 MSTORE PUSH1 0x24 PUSH0 REVERT JUMPDEST PUSH1 0x2 DUP2 LT PUSH2 0xD21 JUMPI PUSH2 0xD20 PUSH2 0xCE3 JUMP JUMPDEST JUMPDEST POP JUMP JUMPDEST PUSH0 DUP2 SWAP1 POP PUSH2 0xD31 DUP3 PUSH2 0xD10 JUMP JUMPDEST SWAP2 SWAP1 POP JUMP JUMPDEST PUSH0 PUSH2 0xD40 DUP3 PUSH2 0xD24 JUMP JUMPDEST SWAP1 POP SWAP2 SWAP1 POP JUMP JUMPDEST PUSH2 0xD50 DUP2 PUSH2 0xD36 JUMP JUMPDEST DUP3 MSTORE POP POP JUMP JUMPDEST PUSH0 PUSH20 0xFFFFFFFFFFFFFFFFFFFFFFFFFFFFFFFFFFFFFFFF DUP3 AND SWAP1 POP SWAP2 SWAP1 POP JUMP JUMPDEST PUSH0 PUSH2 0xD7F DUP3 PUSH2 0xD56 JUMP JUMPDEST SWAP1 POP SWAP2 SWAP1 POP JUMP JUMPDEST PUSH2 0xD8F DUP2 PUSH2 0xD75 JUMP JUMPDEST DUP3 MSTORE POP POP JUMP JUMPDEST PUSH0 PUSH1 0xC0 DUP3 ADD SWAP1 POP DUP2 DUP2 SUB PUSH0 DUP4 ADD MSTORE PUSH2 0xDAD DUP2 DUP10 PUSH2 0xCAB JUMP JUMPDEST SWAP1 POP PUSH2 0xDBC PUSH1 0x20 DUP4 ADD DUP9 PUSH2 0xC20 JUMP JUMPDEST PUSH2 0xDC9 PUSH1 0x40 DUP4 ADD DUP8 PUSH2 0xC20 JUMP JUMPDEST PUSH2 0xDD6 PUSH1 0x60 DUP4 ADD DUP7 PUSH2 0xD47 JUMP JUMPDEST PUSH2 0xDE3 PUSH1 0x80 DUP4 ADD DUP6 PUSH2 0xC20 JUMP JUMPDEST PUSH2 0xDF0 PUSH1 0xA0 DUP4 ADD DUP5 PUSH2 0xD86 JUMP JUMPDEST SWAP8 SWAP7 POP POP POP POP POP POP POP JUMP JUMPDEST PUSH0 DUP1 REVERT JUMPDEST PUSH0 DUP1 REVERT JUMPDEST PUSH32 0x4E487B7100000000000000000000000000000000000000000000000000000000 PUSH0 MSTORE PUSH1 0x41 PUSH1 0x4 MSTORE PUSH1 0x24 PUSH0 REVERT JUMPDEST PUSH2 0xE39 DUP3 PUSH2 0xC9B JUMP JUMPDEST DUP2 ADD DUP2 DUP2 LT PUSH8 0xFFFFFFFFFFFFFFFF DUP3 GT OR ISZERO PUSH2 0xE58 JUMPI PUSH2 0xE57 PUSH2 0xE03 JUMP JUMPDEST JUMPDEST DUP1 PUSH1 0x40 MSTORE POP POP POP JUMP JUMPDEST PUSH0 PUSH2 0xE6A PUSH2 0xB9E JUMP JUMPDEST SWAP1 POP PUSH2 0xE76 DUP3 DUP3 PUSH2 0xE30 JUMP JUMPDEST SWAP2 SWAP1 POP JUMP JUMPDEST PUSH0 PUSH8 0xFFFFFFFFFFFFFFFF DUP3 GT ISZERO PUSH2 0xE95 JUMPI PUSH2 0xE94 PUSH2 0xE03 JUMP JUMPDEST JUMPDEST PUSH2 0xE9E DUP3 PUSH2 0xC9B JUMP JUMPDEST SWAP1 POP PUSH1 0x20 DUP2 ADD SWAP1 POP SWAP2 SWAP1 POP JUMP JUMPDEST DUP3 DUP2 DUP4 CALLDATACOPY PUSH0 DUP4 DUP4 ADD MSTORE POP POP POP JUMP JUMPDEST PUSH0 PUSH2 0xECB PUSH2 0xEC6 DUP5 PUSH2 0xE7B JUMP JUMPDEST PUSH2 0xE61 JUMP JUMPDEST SWAP1 POP DUP3 DUP2 MSTORE PUSH1 0x20 DUP2 ADD DUP5 DUP5 DUP5 ADD GT ISZERO PUSH2 0xEE7 JUMPI PUSH2 0xEE6 PUSH2 0xDFF JUMP JUMPDEST JUMPDEST PUSH2 0xEF2 DUP5 DUP3 DUP6 PUSH2 0xEAB JUMP JUMPDEST POP SWAP4 SWAP3 POP POP POP JUMP JUMPDEST PUSH0 DUP3 PUSH1 0x1F DUP4 ADD SLT PUSH2 0xF0E JUMPI PUSH2 0xF0D PUSH2 0xDFB JUMP JUMPDEST JUMPDEST DUP2 CALLDATALOAD PUSH2 0xF1E DUP5 DUP3 PUSH1 0x20 DUP7 ADD PUSH2 0xEB9 JUMP JUMPDEST SWAP2 POP POP SWAP3 SWAP2 POP POP JUMP JUMPDEST PUSH0 DUP1 PUSH0 PUSH1 0x60 DUP5 DUP7 SUB SLT ISZERO PUSH2 0xF3E JUMPI PUSH2 0xF3D PUSH2 0xBA7 JUMP JUMPDEST JUMPDEST PUSH0 DUP5 ADD CALLDATALOAD PUSH8 0xFFFFFFFFFFFFFFFF DUP2 GT ISZERO PUSH2 0xF5B JUMPI PUSH2 0xF5A PUSH2 0xBAB JUMP JUMPDEST JUMPDEST PUSH2 0xF67 DUP7 DUP3 DUP8 ADD PUSH2 0xEFA JUMP JUMPDEST SWAP4 POP POP PUSH1 0x20 PUSH2 0xF78 DUP7 DUP3 DUP8 ADD PUSH2 0xBCE JUMP JUMPDEST SWAP3 POP POP PUSH1 0x40 PUSH2 0xF89 DUP7 DUP3 DUP8 ADD PUSH2 0xBCE JUMP JUMPDEST SWAP2 POP POP SWAP3 POP SWAP3 POP SWAP3 JUMP JUMPDEST PUSH0 DUP2 SWAP1 POP SWAP2 SWAP1 POP JUMP JUMPDEST PUSH0 PUSH2 0xFB6 PUSH2 0xFB1 PUSH2 0xFAC DUP5 PUSH2 0xD56 JUMP JUMPDEST PUSH2 0xF93 JUMP JUMPDEST PUSH2 0xD56 JUMP JUMPDEST SWAP1 POP SWAP2 SWAP1 POP JUMP JUMPDEST PUSH0 PUSH2 0xFC7 DUP3 PUSH2 0xF9C JUMP JUMPDEST SWAP1 POP SWAP2 SWAP1 POP JUMP JUMPDEST PUSH0 PUSH2 0xFD8 DUP3 PUSH2 0xFBD JUMP JUMPDEST SWAP1 POP SWAP2 SWAP1 POP JUMP JUMPDEST PUSH2 0xFE8 DUP2 PUSH2 0xFCE JUMP JUMPDEST DUP3 MSTORE POP POP JUMP JUMPDEST PUSH0 PUSH1 0x20 DUP3 ADD SWAP1 POP PUSH2 0x1001 PUSH0 DUP4 ADD DUP5 PUSH2 0xFDF JUMP JUMPDEST SWAP3 SWAP2 POP POP JUMP JUMPDEST PUSH0 PUSH2 0x1011 DUP3 PUSH2 0xFBD JUMP JUMPDEST SWAP1 POP SWAP2 SWAP1 POP JUMP JUMPDEST PUSH2 0x1021 DUP2 PUSH2 0x1007 JUMP JUMPDEST DUP3 MSTORE POP POP JUMP JUMPDEST PUSH0 PUSH1 0x20 DUP3 ADD SWAP1 POP PUSH2 0x103A PUSH0 DUP4 ADD DUP5 PUSH2 0x1018 JUMP JUMPDEST SWAP3 SWAP2 POP POP JUMP JUMPDEST PUSH32 0x496E76616C69642064756E67656F6E2049440000000000000000000000000000 PUSH0 DUP3 ADD MSTORE POP JUMP JUMPDEST PUSH0 PUSH2 0x1074 PUSH1 0x12 DUP4 PUSH2 0xC7D JUMP JUMPDEST SWAP2 POP PUSH2 0x107F DUP3 PUSH2 0x1040 JUMP JUMPDEST PUSH1 0x20 DUP3 ADD SWAP1 POP SWAP2 SWAP1 POP JUMP JUMPDEST PUSH0 PUSH1 0x20 DUP3 ADD SWAP1 POP DUP2 DUP2 SUB PUSH0 DUP4 ADD MSTORE PUSH2 0x10A1 DUP2 PUSH2 0x1068 JUMP JUMPDEST SWAP1 POP SWAP2 SWAP1 POP JUMP JUMPDEST PUSH32 0x4E487B7100000000000000000000000000000000000000000000000000000000 PUSH0 MSTORE PUSH1 0x32 PUSH1 0x4 MSTORE PUSH1 0x24 PUSH0 REVERT JUMPDEST PUSH32 0x44756E67656F6E206973206E6F7420636F6D706C657465640000000000000000 PUSH0 DUP3 ADD MSTORE POP JUMP JUMPDEST PUSH0 PUSH2 0x1109 PUSH1 0x18 DUP4 PUSH2 0xC7D JUMP JUMPDEST SWAP2 POP PUSH2 0x1114 DUP3 PUSH2 0x10D5 JUMP JUMPDEST PUSH1 0x20 DUP3 ADD SWAP1 POP SWAP2 SWAP1 POP JUMP JUMPDEST PUSH0 PUSH1 0x20 DUP3 ADD SWAP1 POP DUP2 DUP2 SUB PUSH0 DUP4 ADD MSTORE PUSH2 0x1136 DUP2 PUSH2 0x10FD JUMP JUMPDEST SWAP1 POP SWAP2 SWAP1 POP JUMP JUMPDEST PUSH32 0x796F7520686176656E277420617474656D7074656420746869732064756E6765 PUSH0 DUP3 ADD MSTORE PUSH32 0x6F6E000000000000000000000000000000000000000000000000000000000000 PUSH1 0x20 DUP3 ADD MSTORE POP JUMP JUMPDEST PUSH0 PUSH2 0x1197 PUSH1 0x22 DUP4 PUSH2 0xC7D JUMP JUMPDEST SWAP2 POP PUSH2 0x11A2 DUP3 PUSH2 0x113D JUMP JUMPDEST PUSH1 0x40 DUP3 ADD SWAP1 POP SWAP2 SWAP1 POP JUMP JUMPDEST PUSH0 PUSH1 0x20 DUP3 ADD SWAP1 POP DUP2 DUP2 SUB PUSH0 DUP4 ADD MSTORE PUSH2 0x11C4 DUP2 PUSH2 0x118B JUMP JUMPDEST SWAP1 POP SWAP2 SWAP1 POP JUMP JUMPDEST PUSH0 PUSH1 0x60 DUP3 ADD SWAP1 POP PUSH2 0x11DE PUSH0 DUP4 ADD DUP7 PUSH2 0xD86 JUMP JUMPDEST PUSH2 0x11EB PUSH1 0x20 DUP4 ADD DUP6 PUSH2 0xD86 JUMP JUMPDEST PUSH2 0x11F8 PUSH1 0x40 DUP4 ADD DUP5 PUSH2 0xC20 JUMP JUMPDEST SWAP5 SWAP4 POP POP POP POP JUMP JUMPDEST PUSH0 DUP2 ISZERO ISZERO SWAP1 POP SWAP2 SWAP1 POP JUMP JUMPDEST PUSH2 0x1214 DUP2 PUSH2 0x1200 JUMP JUMPDEST DUP2 EQ PUSH2 0x121E JUMPI PUSH0 DUP1 REVERT JUMPDEST POP JUMP JUMPDEST PUSH0 DUP2 MLOAD SWAP1 POP PUSH2 0x122F DUP2 PUSH2 0x120B JUMP JUMPDEST SWAP3 SWAP2 POP POP JUMP JUMPDEST PUSH0 PUSH1 0x20 DUP3 DUP5 SUB SLT ISZERO PUSH2 0x124A JUMPI PUSH2 0x1249 PUSH2 0xBA7 JUMP JUMPDEST JUMPDEST PUSH0 PUSH2 0x1257 DUP5 DUP3 DUP6 ADD PUSH2 0x1221 JUMP JUMPDEST SWAP2 POP POP SWAP3 SWAP2 POP POP JUMP JUMPDEST PUSH32 0x4E487B7100000000000000000000000000000000000000000000000000000000 PUSH0 MSTORE PUSH1 0x22 PUSH1 0x4 MSTORE PUSH1 0x24 PUSH0 REVERT JUMPDEST PUSH0 PUSH1 0x2 DUP3 DIV SWAP1 POP PUSH1 0x1 DUP3 AND DUP1 PUSH2 0x12A4 JUMPI PUSH1 0x7F DUP3 AND SWAP2 POP JUMPDEST PUSH1 0x20 DUP3 LT DUP2 SUB PUSH2 0x12B7 JUMPI PUSH2 0x12B6 PUSH2 0x1260 JUMP JUMPDEST JUMPDEST POP SWAP2 SWAP1 POP JUMP JUMPDEST PUSH32 0x526577617264206D7573742062652067726561746572207468616E2030000000 PUSH0 DUP3 ADD MSTORE POP JUMP JUMPDEST PUSH0 PUSH2 0x12F1 PUSH1 0x1D DUP4 PUSH2 0xC7D JUMP JUMPDEST SWAP2 POP PUSH2 0x12FC DUP3 PUSH2 0x12BD JUMP JUMPDEST PUSH1 0x20 DUP3 ADD SWAP1 POP SWAP2 SWAP1 POP JUMP JUMPDEST PUSH0 PUSH1 0x20 DUP3 ADD SWAP1 POP DUP2 DUP2 SUB PUSH0 DUP4 ADD MSTORE PUSH2 0x131E DUP2 PUSH2 0x12E5 JUMP JUMPDEST SWAP1 POP SWAP2 SWAP1 POP JUMP JUMPDEST PUSH0 PUSH1 0x20 DUP3 ADD SWAP1 POP PUSH2 0x1338 PUSH0 DUP4 ADD DUP5 PUSH2 0xD86 JUMP JUMPDEST SWAP3 SWAP2 POP POP JUMP JUMPDEST PUSH0 DUP2 MLOAD SWAP1 POP PUSH2 0x134C DUP2 PUSH2 0xBB8 JUMP JUMPDEST SWAP3 SWAP2 POP POP JUMP JUMPDEST PUSH0 PUSH1 0x20 DUP3 DUP5 SUB SLT ISZERO PUSH2 0x1367 JUMPI PUSH2 0x1366 PUSH2 0xBA7 JUMP JUMPDEST JUMPDEST PUSH0 PUSH2 0x1374 DUP5 DUP3 DUP6 ADD PUSH2 0x133E JUMP JUMPDEST SWAP2 POP POP SWAP3 SWAP2 POP POP JUMP JUMPDEST PUSH32 0x496E73756666696369656E7420746F6B656E2062616C616E6365000000000000 PUSH0 DUP3 ADD MSTORE POP JUMP JUMPDEST PUSH0 PUSH2 0x13B1 PUSH1 0x1A DUP4 PUSH2 0xC7D JUMP JUMPDEST SWAP2 POP PUSH2 0x13BC DUP3 PUSH2 0x137D JUMP JUMPDEST PUSH1 0x20 DUP3 ADD SWAP1 POP SWAP2 SWAP1 POP JUMP JUMPDEST PUSH0 PUSH1 0x20 DUP3 ADD SWAP1 POP DUP2 DUP2 SUB PUSH0 DUP4 ADD MSTORE PUSH2 0x13DE DUP2 PUSH2 0x13A5 JUMP JUMPDEST SWAP1 POP SWAP2 SWAP1 POP JUMP JUMPDEST PUSH0 DUP2 SWAP1 POP DUP2 PUSH0 MSTORE PUSH1 0x20 PUSH0 KECCAK256 SWAP1 POP SWAP2 SWAP1 POP JUMP JUMPDEST PUSH0 PUSH1 0x20 PUSH1 0x1F DUP4 ADD DIV SWAP1 POP SWAP2 SWAP1 POP JUMP JUMPDEST PUSH0 DUP3 DUP3 SHL SWAP1 POP SWAP3 SWAP2 POP POP JUMP JUMPDEST PUSH0 PUSH1 0x8 DUP4 MUL PUSH2 0x1441 PUSH32 0xFFFFFFFFFFFFFFFFFFFFFFFFFFFFFFFFFFFFFFFFFFFFFFFFFFFFFFFFFFFFFFFF DUP3 PUSH2 0x1406 JUMP JUMPDEST PUSH2 0x144B DUP7 DUP4 PUSH2 0x1406 JUMP JUMPDEST SWAP6 POP DUP1 NOT DUP5 AND SWAP4 POP DUP1 DUP7 AND DUP5 OR SWAP3 POP POP POP SWAP4 SWAP3 POP POP POP JUMP JUMPDEST PUSH0 PUSH2 0x147D PUSH2 0x1478 PUSH2 0x1473 DUP5 PUSH2 0xBAF JUMP JUMPDEST PUSH2 0xF93 JUMP JUMPDEST PUSH2 0xBAF JUMP JUMPDEST SWAP1 POP SWAP2 SWAP1 POP JUMP JUMPDEST PUSH0 DUP2 SWAP1 POP SWAP2 SWAP1 POP JUMP JUMPDEST PUSH2 0x1496 DUP4 PUSH2 0x1463 JUMP JUMPDEST PUSH2 0x14AA PUSH2 0x14A2 DUP3 PUSH2 0x1484 JUMP JUMPDEST DUP5 DUP5 SLOAD PUSH2 0x1412 JUMP JUMPDEST DUP3 SSTORE POP POP POP POP JUMP JUMPDEST PUSH0 SWAP1 JUMP JUMPDEST PUSH2 0x14BE PUSH2 0x14B2 JUMP JUMPDEST PUSH2 0x14C9 DUP2 DUP5 DUP5 PUSH2 0x148D JUMP JUMPDEST POP POP POP JUMP JUMPDEST JUMPDEST DUP2 DUP2 LT ISZERO PUSH2 0x14EC JUMPI PUSH2 0x14E1 PUSH0 DUP3 PUSH2 0x14B6 JUMP JUMPDEST PUSH1 0x1 DUP2 ADD SWAP1 POP PUSH2 0x14CF JUMP JUMPDEST POP POP JUMP JUMPDEST PUSH1 0x1F DUP3 GT ISZERO PUSH2 0x1531 JUMPI PUSH2 0x1502 DUP2 PUSH2 0x13E5 JUMP JUMPDEST PUSH2 0x150B DUP5 PUSH2 0x13F7 JUMP JUMPDEST DUP2 ADD PUSH1 0x20 DUP6 LT ISZERO PUSH2 0x151A JUMPI DUP2 SWAP1 POP JUMPDEST PUSH2 0x152E PUSH2 0x1526 DUP6 PUSH2 0x13F7 JUMP JUMPDEST DUP4 ADD DUP3 PUSH2 0x14CE JUMP JUMPDEST POP POP JUMPDEST POP POP POP JUMP JUMPDEST PUSH0 DUP3 DUP3 SHR SWAP1 POP SWAP3 SWAP2 POP POP JUMP JUMPDEST PUSH0 PUSH2 0x1551 PUSH0 NOT DUP5 PUSH1 0x8 MUL PUSH2 0x1536 JUMP JUMPDEST NOT DUP1 DUP4 AND SWAP2 POP POP SWAP3 SWAP2 POP POP JUMP JUMPDEST PUSH0 PUSH2 0x1569 DUP4 DUP4 PUSH2 0x1542 JUMP JUMPDEST SWAP2 POP DUP3 PUSH1 0x2 MUL DUP3 OR SWAP1 POP SWAP3 SWAP2 POP POP JUMP JUMPDEST PUSH2 0x1582 DUP3 PUSH2 0xC73 JUMP JUMPDEST PUSH8 0xFFFFFFFFFFFFFFFF DUP2 GT ISZERO PUSH2 0x159B JUMPI PUSH2 0x159A PUSH2 0xE03 JUMP JUMPDEST JUMPDEST PUSH2 0x15A5 DUP3 SLOAD PUSH2 0x128D JUMP JUMPDEST PUSH2 0x15B0 DUP3 DUP3 DUP6 PUSH2 0x14F0 JUMP JUMPDEST PUSH0 PUSH1 0x20 SWAP1 POP PUSH1 0x1F DUP4 GT PUSH1 0x1 DUP2 EQ PUSH2 0x15E1 JUMPI PUSH0 DUP5 ISZERO PUSH2 0x15CF JUMPI DUP3 DUP8 ADD MLOAD SWAP1 POP JUMPDEST PUSH2 0x15D9 DUP6 DUP3 PUSH2 0x155E JUMP JUMPDEST DUP7 SSTORE POP PUSH2 0x1640 JUMP JUMPDEST PUSH1 0x1F NOT DUP5 AND PUSH2 0x15EF DUP7 PUSH2 0x13E5 JUMP JUMPDEST PUSH0 JUMPDEST DUP3 DUP2 LT ISZERO PUSH2 0x1616 JUMPI DUP5 DUP10 ADD MLOAD DUP3 SSTORE PUSH1 0x1 DUP3 ADD SWAP2 POP PUSH1 0x20 DUP6 ADD SWAP5 POP PUSH1 0x20 DUP2 ADD SWAP1 POP PUSH2 0x15F1 JUMP JUMPDEST DUP7 DUP4 LT ISZERO PUSH2 0x1633 JUMPI DUP5 DUP10 ADD MLOAD PUSH2 0x162F PUSH1 0x1F DUP10 AND DUP3 PUSH2 0x1542 JUMP JUMPDEST DUP4 SSTORE POP JUMPDEST PUSH1 0x1 PUSH1 0x2 DUP9 MUL ADD DUP9 SSTORE POP POP POP JUMPDEST POP POP POP POP POP POP JUMP JUMPDEST PUSH0 PUSH1 0x40 DUP3 ADD SWAP1 POP PUSH2 0x165B PUSH0 DUP4 ADD DUP6 PUSH2 0xD86 JUMP JUMPDEST PUSH2 0x1668 PUSH1 0x20 DUP4 ADD DUP5 PUSH2 0xC20 JUMP JUMPDEST SWAP4 SWAP3 POP POP POP JUMP JUMPDEST PUSH32 0x44756E67656F6E20697320616C726561647920636F6D706C6574656400000000 PUSH0 DUP3 ADD MSTORE POP JUMP JUMPDEST PUSH0 PUSH2 0x16A3 PUSH1 0x1C DUP4 PUSH2 0xC7D JUMP JUMPDEST SWAP2 POP PUSH2 0x16AE DUP3 PUSH2 0x166F JUMP JUMPDEST PUSH1 0x20 DUP3 ADD SWAP1 POP SWAP2 SWAP1 POP JUMP JUMPDEST PUSH0 PUSH1 0x20 DUP3 ADD SWAP1 POP DUP2 DUP2 SUB PUSH0 DUP4 ADD MSTORE PUSH2 0x16D0 DUP2 PUSH2 0x1697 JUMP JUMPDEST SWAP1 POP SWAP2 SWAP1 POP JUMP JUMPDEST PUSH32 0x496E73756666696369656E7420617474656D7074206665650000000000000000 PUSH0 DUP3 ADD MSTORE POP JUMP JUMPDEST PUSH0 PUSH2 0x170B PUSH1 0x18 DUP4 PUSH2 0xC7D JUMP JUMPDEST SWAP2 POP PUSH2 0x1716 DUP3 PUSH2 0x16D7 JUMP JUMPDEST PUSH1 0x20 DUP3 ADD SWAP1 POP SWAP2 SWAP1 POP JUMP JUMPDEST PUSH0 PUSH1 0x20 DUP3 ADD SWAP1 POP DUP2 DUP2 SUB PUSH0 DUP4 ADD MSTORE PUSH2 0x1738 DUP2 PUSH2 0x16FF JUMP JUMPDEST SWAP1 POP SWAP2 SWAP1 POP JUMP INVALID LOG2 PUSH5 0x6970667358 0x22 SLT KECCAK256 0xD4 CALLCODE 0xC6 NUMBER 0xBB 0xEE MSIZE 0xD6 0xD0 DUP9 0xC5 PUSH2 0x68B8 SELFDESTRUCT PUSH17 0xD27C9092831A83EC3A1481398D07A9D64 PUSH20 0x6F6C634300081900330000000000000000000000 "
				},
				"gasEstimates": {
					"creation": {
						"codeDepositCost": "1201000",
						"executionCost": "infinite",
						"totalCost": "infinite"
					},
					"external": {
						"attemptDungeon(uint256)": "infinite",
						"createDungeon(string,uint256,uint256)": "infinite",
						"dungeonEntryFee()": "2448",
						"dungeons(uint256)": "infinite",
						"finishDungeon(uint256,uint256)": "infinite",
						"token()": "infinite",
						"vault()": "infinite"
					}
				},
				"methodIdentifiers": {
					"attemptDungeon(uint256)": "fa7ddb45",
					"createDungeon(string,uint256,uint256)": "cecb2601",
					"dungeonEntryFee()": "46859c3f",
					"dungeons(uint256)": "956e958a",
					"finishDungeon(uint256,uint256)": "0c0c8958",
					"token()": "fc0c546a",
					"vault()": "fbfa77cf"
				}
			},
			"storageLayout": {
				"storage": [
					{
						"astId": 219,
						"contract": "contracts/game.sol:GameContract",
						"label": "dungeons",
						"offset": 0,
						"slot": "0",
						"type": "t_array(t_struct(Dungeon)215_storage)dyn_storage"
					},
					{
						"astId": 221,
						"contract": "contracts/game.sol:GameContract",
						"label": "dungeonEntryFee",
						"offset": 0,
						"slot": "1",
						"type": "t_uint256"
					},
					{
						"astId": 224,
						"contract": "contracts/game.sol:GameContract",
						"label": "token",
						"offset": 0,
						"slot": "2",
						"type": "t_contract(ERC20)194"
					},
					{
						"astId": 227,
						"contract": "contracts/game.sol:GameContract",
						"label": "vault",
						"offset": 0,
						"slot": "3",
						"type": "t_contract(Vault)662"
					},
					{
						"astId": 231,
						"contract": "contracts/game.sol:GameContract",
						"label": "attemptedDungeon",
						"offset": 0,
						"slot": "4",
						"type": "t_mapping(t_address,t_uint256)"
					}
				],
				"types": {
					"t_address": {
						"encoding": "inplace",
						"label": "address",
						"numberOfBytes": "20"
					},
					"t_array(t_struct(Dungeon)215_storage)dyn_storage": {
						"base": "t_struct(Dungeon)215_storage",
						"encoding": "dynamic_array",
						"label": "struct GameContract.Dungeon[]",
						"numberOfBytes": "32"
					},
					"t_contract(ERC20)194": {
						"encoding": "inplace",
						"label": "contract ERC20",
						"numberOfBytes": "20"
					},
					"t_contract(Vault)662": {
						"encoding": "inplace",
						"label": "contract Vault",
						"numberOfBytes": "20"
					},
					"t_enum(DungeonStatus)201": {
						"encoding": "inplace",
						"label": "enum GameContract.DungeonStatus",
						"numberOfBytes": "1"
					},
					"t_mapping(t_address,t_uint256)": {
						"encoding": "mapping",
						"key": "t_address",
						"label": "mapping(address => uint256)",
						"numberOfBytes": "32",
						"value": "t_uint256"
					},
					"t_string_storage": {
						"encoding": "bytes",
						"label": "string",
						"numberOfBytes": "32"
					},
					"t_struct(Dungeon)215_storage": {
						"encoding": "inplace",
						"label": "struct GameContract.Dungeon",
						"members": [
							{
								"astId": 203,
								"contract": "contracts/game.sol:GameContract",
								"label": "name",
								"offset": 0,
								"slot": "0",
								"type": "t_string_storage"
							},
							{
								"astId": 205,
								"contract": "contracts/game.sol:GameContract",
								"label": "reward",
								"offset": 0,
								"slot": "1",
								"type": "t_uint256"
							},
							{
								"astId": 207,
								"contract": "contracts/game.sol:GameContract",
								"label": "dungeonId",
								"offset": 0,
								"slot": "2",
								"type": "t_uint256"
							},
							{
								"astId": 210,
								"contract": "contracts/game.sol:GameContract",
								"label": "status",
								"offset": 0,
								"slot": "3",
								"type": "t_enum(DungeonStatus)201"
							},
							{
								"astId": 212,
								"contract": "contracts/game.sol:GameContract",
								"label": "key",
								"offset": 0,
								"slot": "4",
								"type": "t_uint256"
							},
							{
								"astId": 214,
								"contract": "contracts/game.sol:GameContract",
								"label": "owner",
								"offset": 0,
								"slot": "5",
								"type": "t_address"
							}
						],
						"numberOfBytes": "192"
					},
					"t_uint256": {
						"encoding": "inplace",
						"label": "uint256",
						"numberOfBytes": "32"
					}
				}
			},
			"userdoc": {
				"kind": "user",
				"methods": {},
				"version": 1
			}
		}
	}
}