{
	"data": {
		"bytecode": {
			"linkReferences": {},
			"object": "6080604052348015600e575f80fd5b506040516104283803806104288339818101604052810190602e9190608a565b5060b0565b5f80fd5b5f73ffffffffffffffffffffffffffffffffffffffff82169050919050565b5f605e826037565b9050919050565b606c816056565b81146075575f80fd5b50565b5f815190506084816065565b92915050565b5f60208284031215609c57609b6033565b5b5f60a7848285016078565b91505092915050565b61036b806100bd5f395ff3fe608060405234801561000f575f80fd5b5060043610610029575f3560e01c8063956e958a1461002d575b5f80fd5b610047600480360381019061004291906101dd565b610060565b6040516100579493929190610287565b60405180910390f35b5f818154811061006e575f80fd5b905f5260205f2090600402015f91509050805f01805461008d90610305565b80601f01602080910402602001604051908101604052809291908181526020018280546100b990610305565b80156101045780601f106100db57610100808354040283529160200191610104565b820191905f5260205f20905b8154815290600101906020018083116100e757829003601f168201915b50505050509080600101805461011990610305565b80601f016020809104026020016040519081016040528092919081815260200182805461014590610305565b80156101905780601f1061016757610100808354040283529160200191610190565b820191905f5260205f20905b81548152906001019060200180831161017357829003601f168201915b5050505050908060020154908060030154905084565b5f80fd5b5f819050919050565b6101bc816101aa565b81146101c6575f80fd5b50565b5f813590506101d7816101b3565b92915050565b5f602082840312156101f2576101f16101a6565b5b5f6101ff848285016101c9565b91505092915050565b5f81519050919050565b5f82825260208201905092915050565b8281835e5f83830152505050565b5f601f19601f8301169050919050565b5f61024a82610208565b6102548185610212565b9350610264818560208601610222565b61026d81610230565b840191505092915050565b610281816101aa565b82525050565b5f6080820190508181035f83015261029f8187610240565b905081810360208301526102b38186610240565b90506102c26040830185610278565b6102cf6060830184610278565b95945050505050565b7f4e487b71000000000000000000000000000000000000000000000000000000005f52602260045260245ffd5b5f600282049050600182168061031c57607f821691505b60208210810361032f5761032e6102d8565b5b5091905056fea2646970667358221220d09954b9dfb4e0b979786e3b65157d219b272a63a935762c6c94968c758e654864736f6c63430008190033",
			"opcodes": "PUSH1 0x80 PUSH1 0x40 MSTORE CALLVALUE DUP1 ISZERO PUSH1 0xE JUMPI PUSH0 DUP1 REVERT JUMPDEST POP PUSH1 0x40 MLOAD PUSH2 0x428 CODESIZE SUB DUP1 PUSH2 0x428 DUP4 CODECOPY DUP2 DUP2 ADD PUSH1 0x40 MSTORE DUP2 ADD SWAP1 PUSH1 0x2E SWAP2 SWAP1 PUSH1 0x8A JUMP JUMPDEST POP PUSH1 0xB0 JUMP JUMPDEST PUSH0 DUP1 REVERT JUMPDEST PUSH0 PUSH20 0xFFFFFFFFFFFFFFFFFFFFFFFFFFFFFFFFFFFFFFFF DUP3 AND SWAP1 POP SWAP2 SWAP1 POP JUMP JUMPDEST PUSH0 PUSH1 0x5E DUP3 PUSH1 0x37 JUMP JUMPDEST SWAP1 POP SWAP2 SWAP1 POP JUMP JUMPDEST PUSH1 0x6C DUP2 PUSH1 0x56 JUMP JUMPDEST DUP2 EQ PUSH1 0x75 JUMPI PUSH0 DUP1 REVERT JUMPDEST POP JUMP JUMPDEST PUSH0 DUP2 MLOAD SWAP1 POP PUSH1 0x84 DUP2 PUSH1 0x65 JUMP JUMPDEST SWAP3 SWAP2 POP POP JUMP JUMPDEST PUSH0 PUSH1 0x20 DUP3 DUP5 SUB SLT ISZERO PUSH1 0x9C JUMPI PUSH1 0x9B PUSH1 0x33 JUMP JUMPDEST JUMPDEST PUSH0 PUSH1 0xA7 DUP5 DUP3 DUP6 ADD PUSH1 0x78 JUMP JUMPDEST SWAP2 POP POP SWAP3 SWAP2 POP POP JUMP JUMPDEST PUSH2 0x36B DUP1 PUSH2 0xBD PUSH0 CODECOPY PUSH0 RETURN INVALID PUSH1 0x80 PUSH1 0x40 MSTORE CALLVALUE DUP1 ISZERO PUSH2 0xF JUMPI PUSH0 DUP1 REVERT JUMPDEST POP PUSH1 0x4 CALLDATASIZE LT PUSH2 0x29 JUMPI PUSH0 CALLDATALOAD PUSH1 0xE0 SHR DUP1 PUSH4 0x956E958A EQ PUSH2 0x2D JUMPI JUMPDEST PUSH0 DUP1 REVERT JUMPDEST PUSH2 0x47 PUSH1 0x4 DUP1 CALLDATASIZE SUB DUP2 ADD SWAP1 PUSH2 0x42 SWAP2 SWAP1 PUSH2 0x1DD JUMP JUMPDEST PUSH2 0x60 JUMP JUMPDEST PUSH1 0x40 MLOAD PUSH2 0x57 SWAP5 SWAP4 SWAP3 SWAP2 SWAP1 PUSH2 0x287 JUMP JUMPDEST PUSH1 0x40 MLOAD DUP1 SWAP2 SUB SWAP1 RETURN JUMPDEST PUSH0 DUP2 DUP2 SLOAD DUP2 LT PUSH2 0x6E JUMPI PUSH0 DUP1 REVERT JUMPDEST SWAP1 PUSH0 MSTORE PUSH1 0x20 PUSH0 KECCAK256 SWAP1 PUSH1 0x4 MUL ADD PUSH0 SWAP2 POP SWAP1 POP DUP1 PUSH0 ADD DUP1 SLOAD PUSH2 0x8D SWAP1 PUSH2 0x305 JUMP JUMPDEST DUP1 PUSH1 0x1F ADD PUSH1 0x20 DUP1 SWAP2 DIV MUL PUSH1 0x20 ADD PUSH1 0x40 MLOAD SWAP1 DUP2 ADD PUSH1 0x40 MSTORE DUP1 SWAP3 SWAP2 SWAP1 DUP2 DUP2 MSTORE PUSH1 0x20 ADD DUP3 DUP1 SLOAD PUSH2 0xB9 SWAP1 PUSH2 0x305 JUMP JUMPDEST DUP1 ISZERO PUSH2 0x104 JUMPI DUP1 PUSH1 0x1F LT PUSH2 0xDB JUMPI PUSH2 0x100 DUP1 DUP4 SLOAD DIV MUL DUP4 MSTORE SWAP2 PUSH1 0x20 ADD SWAP2 PUSH2 0x104 JUMP JUMPDEST DUP3 ADD SWAP2 SWAP1 PUSH0 MSTORE PUSH1 0x20 PUSH0 KECCAK256 SWAP1 JUMPDEST DUP2 SLOAD DUP2 MSTORE SWAP1 PUSH1 0x1 ADD SWAP1 PUSH1 0x20 ADD DUP1 DUP4 GT PUSH2 0xE7 JUMPI DUP3 SWAP1 SUB PUSH1 0x1F AND DUP3 ADD SWAP2 JUMPDEST POP POP POP POP POP SWAP1 DUP1 PUSH1 0x1 ADD DUP1 SLOAD PUSH2 0x119 SWAP1 PUSH2 0x305 JUMP JUMPDEST DUP1 PUSH1 0x1F ADD PUSH1 0x20 DUP1 SWAP2 DIV MUL PUSH1 0x20 ADD PUSH1 0x40 MLOAD SWAP1 DUP2 ADD PUSH1 0x40 MSTORE DUP1 SWAP3 SWAP2 SWAP1 DUP2 DUP2 MSTORE PUSH1 0x20 ADD DUP3 DUP1 SLOAD PUSH2 0x145 SWAP1 PUSH2 0x305 JUMP JUMPDEST DUP1 ISZERO PUSH2 0x190 JUMPI DUP1 PUSH1 0x1F LT PUSH2 0x167 JUMPI PUSH2 0x100 DUP1 DUP4 SLOAD DIV MUL DUP4 MSTORE SWAP2 PUSH1 0x20 ADD SWAP2 PUSH2 0x190 JUMP JUMPDEST DUP3 ADD SWAP2 SWAP1 PUSH0 MSTORE PUSH1 0x20 PUSH0 KECCAK256 SWAP1 JUMPDEST DUP2 SLOAD DUP2 MSTORE SWAP1 PUSH1 0x1 ADD SWAP1 PUSH1 0x20 ADD DUP1 DUP4 GT PUSH2 0x173 JUMPI DUP3 SWAP1 SUB PUSH1 0x1F AND DUP3 ADD SWAP2 JUMPDEST POP POP POP POP POP SWAP1 DUP1 PUSH1 0x2 ADD SLOAD SWAP1 DUP1 PUSH1 0x3 ADD SLOAD SWAP1 POP DUP5 JUMP JUMPDEST PUSH0 DUP1 REVERT JUMPDEST PUSH0 DUP2 SWAP1 POP SWAP2 SWAP1 POP JUMP JUMPDEST PUSH2 0x1BC DUP2 PUSH2 0x1AA JUMP JUMPDEST DUP2 EQ PUSH2 0x1C6 JUMPI PUSH0 DUP1 REVERT JUMPDEST POP JUMP JUMPDEST PUSH0 DUP2 CALLDATALOAD SWAP1 POP PUSH2 0x1D7 DUP2 PUSH2 0x1B3 JUMP JUMPDEST SWAP3 SWAP2 POP POP JUMP JUMPDEST PUSH0 PUSH1 0x20 DUP3 DUP5 SUB SLT ISZERO PUSH2 0x1F2 JUMPI PUSH2 0x1F1 PUSH2 0x1A6 JUMP JUMPDEST JUMPDEST PUSH0 PUSH2 0x1FF DUP5 DUP3 DUP6 ADD PUSH2 0x1C9 JUMP JUMPDEST SWAP2 POP POP SWAP3 SWAP2 POP POP JUMP JUMPDEST PUSH0 DUP2 MLOAD SWAP1 POP SWAP2 SWAP1 POP JUMP JUMPDEST PUSH0 DUP3 DUP3 MSTORE PUSH1 0x20 DUP3 ADD SWAP1 POP SWAP3 SWAP2 POP POP JUMP JUMPDEST DUP3 DUP2 DUP4 MCOPY PUSH0 DUP4 DUP4 ADD MSTORE POP POP POP JUMP JUMPDEST PUSH0 PUSH1 0x1F NOT PUSH1 0x1F DUP4 ADD AND SWAP1 POP SWAP2 SWAP1 POP JUMP JUMPDEST PUSH0 PUSH2 0x24A DUP3 PUSH2 0x208 JUMP JUMPDEST PUSH2 0x254 DUP2 DUP6 PUSH2 0x212 JUMP JUMPDEST SWAP4 POP PUSH2 0x264 DUP2 DUP6 PUSH1 0x20 DUP7 ADD PUSH2 0x222 JUMP JUMPDEST PUSH2 0x26D DUP2 PUSH2 0x230 JUMP JUMPDEST DUP5 ADD SWAP2 POP POP SWAP3 SWAP2 POP POP JUMP JUMPDEST PUSH2 0x281 DUP2 PUSH2 0x1AA JUMP JUMPDEST DUP3 MSTORE POP POP JUMP JUMPDEST PUSH0 PUSH1 0x80 DUP3 ADD SWAP1 POP DUP2 DUP2 SUB PUSH0 DUP4 ADD MSTORE PUSH2 0x29F DUP2 DUP8 PUSH2 0x240 JUMP JUMPDEST SWAP1 POP DUP2 DUP2 SUB PUSH1 0x20 DUP4 ADD MSTORE PUSH2 0x2B3 DUP2 DUP7 PUSH2 0x240 JUMP JUMPDEST SWAP1 POP PUSH2 0x2C2 PUSH1 0x40 DUP4 ADD DUP6 PUSH2 0x278 JUMP JUMPDEST PUSH2 0x2CF PUSH1 0x60 DUP4 ADD DUP5 PUSH2 0x278 JUMP JUMPDEST SWAP6 SWAP5 POP POP POP POP POP JUMP JUMPDEST PUSH32 0x4E487B7100000000000000000000000000000000000000000000000000000000 PUSH0 MSTORE PUSH1 0x22 PUSH1 0x4 MSTORE PUSH1 0x24 PUSH0 REVERT JUMPDEST PUSH0 PUSH1 0x2 DUP3 DIV SWAP1 POP PUSH1 0x1 DUP3 AND DUP1 PUSH2 0x31C JUMPI PUSH1 0x7F DUP3 AND SWAP2 POP JUMPDEST PUSH1 0x20 DUP3 LT DUP2 SUB PUSH2 0x32F JUMPI PUSH2 0x32E PUSH2 0x2D8 JUMP JUMPDEST JUMPDEST POP SWAP2 SWAP1 POP JUMP INVALID LOG2 PUSH5 0x6970667358 0x22 SLT KECCAK256 0xD0 SWAP10 SLOAD 0xB9 0xDF 0xB4 0xE0 0xB9 PUSH26 0x786E3B65157D219B272A63A935762C6C94968C758E654864736F PUSH13 0x63430008190033000000000000 "
		},
		"gasEstimates": {
			"creation": {
				"codeDepositCost": "175000",
				"executionCost": "infinite",
				"totalCost": "infinite"
			},
			"external": {
				"dungeons(uint256)": "infinite"
			}
		},
		"methodIdentifiers": {
			"dungeons(uint256)": "956e958a"
		}
	},
	"abi": [
		{
			"inputs": [
				{
					"internalType": "address",
					"name": "_vaultAddress",
					"type": "address"
				}
			],
			"stateMutability": "nonpayable",
			"type": "constructor"
		},
		{
			"inputs": [
				{
					"internalType": "uint256",
					"name": "",
					"type": "uint256"
				}
			],
			"name": "dungeons",
			"outputs": [
				{
					"internalType": "string",
					"name": "dungeonId",
					"type": "string"
				},
				{
					"internalType": "string",
					"name": "name",
					"type": "string"
				},
				{
					"internalType": "uint256",
					"name": "reward",
					"type": "uint256"
				},
				{
					"internalType": "uint256",
					"name": "key",
					"type": "uint256"
				}
			],
			"stateMutability": "view",
			"type": "function"
		}
	]
}